LX51 LINKER/LOCATER V4.66.97.0                                                          01/16/2024  00:35:35  PAGE 1


LX51 LINKER/LOCATER V4.66.97.0, INVOKED BY:
C:\SILICONLABS\SIMPLICITYSTUDIO\V5\DEVELOPER\TOOLCHAINS\KEIL_8051\9.60\BIN\LX51.EXE ./lib/efm8bb1/peripheralDrivers/src/
>> spi_0.OBJ, ./src/16X2_LCD_Display.OBJ, ./src/InitDevice.OBJ, ./src/SILABS_STARTUP.OBJ, ./src/SPI0_Lib_Master.OBJ, ./s
>> rc/keypad.OBJ, ./src/mcp23s08.OBJ TO EFM8BB1_SPI_LIB_MASTER_PB.OMF.CRBUILD REMOVEUNUSED PRINT (.\EFM8BB1_SPI_Lib_Mast
>> er_PB.m51) PAGEWIDTH (120) PAGELENGTH (65) CLASSES (ECODE (C:0X0-C:0X1FFE), HCONST (C:0X0-C:0X1FFE), XDATA (X:0X0-X:0
>> XFF), HDATA (X:0X0-X:0XFF))


CPU MODE:     8051 MODE
MEMORY MODEL: SMALL


INPUT MODULES INCLUDED:
  ./lib/efm8bb1/peripheralDrivers/src/spi_0.OBJ (SPI_0)
         COMMENT TYPE 0: C51 V9.60.0.0
  ./src/16X2_LCD_Display.OBJ (16X2_LCD_DISPLAY)
         COMMENT TYPE 0: C51 V9.60.0.0
  ./src/InitDevice.OBJ (INITDEVICE)
         COMMENT TYPE 0: C51 V9.60.0.0
  ./src/SILABS_STARTUP.OBJ (?C_STARTUP)
         COMMENT TYPE 0: AX51 V3.15.3.0
  ./src/SPI0_Lib_Master.OBJ (SPI0_LIB_MASTER)
         COMMENT TYPE 0: C51 V9.60.0.0
  ./src/keypad.OBJ (KEYPAD)
         COMMENT TYPE 0: C51 V9.60.0.0
  ./src/mcp23s08.OBJ (MCP23S08)
         COMMENT TYPE 0: C51 V9.60.0.0
  C:\SILICONLABS\SIMPLICITYSTUDIO\V5\DEVELOPER\TOOLCHAINS\KEIL_8051\9.60\LIB\C51S.LIB (?C_INIT)
         COMMENT TYPE 1: A51 / ASM51 Assembler
  C:\SILICONLABS\SIMPLICITYSTUDIO\V5\DEVELOPER\TOOLCHAINS\KEIL_8051\9.60\LIB\C51S.LIB (?C?CLDOPTR)
         COMMENT TYPE 1: A51 / ASM51 Assembler
  C:\SILICONLABS\SIMPLICITYSTUDIO\V5\DEVELOPER\TOOLCHAINS\KEIL_8051\9.60\LIB\C51S.LIB (?C?CSTPTR)
         COMMENT TYPE 1: A51 / ASM51 Assembler
  C:\SILICONLABS\SIMPLICITYSTUDIO\V5\DEVELOPER\TOOLCHAINS\KEIL_8051\9.60\LIB\C51S.LIB (?C?CSTOPTR)
         COMMENT TYPE 1: A51 / ASM51 Assembler


ACTIVE MEMORY CLASSES OF MODULE:  EFM8BB1_SPI_LIB_MASTER_PB.OMF.CRBUILD (SPI_0)

BASE        START       END         USED      MEMORY CLASS
==========================================================
C:000000H   C:000000H   C:001FFEH             ECODE
C:000000H   C:000000H   C:001FFEH             HCONST
X:000000H   X:000000H   X:0000FFH             XDATA
X:000000H   X:000000H   X:0000FFH             HDATA
C:000000H   C:000000H   C:00FFFFH   000445H   CODE
I:000020H.0 I:000020H.0 I:00002FH.7 000000H.5 BIT
I:000000H   I:000000H   I:00007FH   00002FH   DATA
I:000000H   I:000000H   I:0000FFH   000001H   IDATA


MEMORY MAP OF MODULE:  EFM8BB1_SPI_LIB_MASTER_PB.OMF.CRBUILD (SPI_0)


START     STOP      LENGTH    ALIGN  RELOC    MEMORY CLASS   SEGMENT NAME
=========================================================================

* * * * * * * * * * *   D A T A   M E M O R Y   * * * * * * * * * * * * *
000000H   000007H   000008H   ---    AT..     DATA           "REG BANK 0"
000008H   000019H   000012H   BYTE   UNIT     DATA           ?DT?MCP23S08
00001AH   00001EH   000005H   BYTE   UNIT     DATA           ?DT?SPI_0
00001FH   00001FH   000001H   BYTE   UNIT     DATA           ?DT?SPI0_LIB_MASTER
000020H.0 000020H.4 000000H.5 BIT    UNIT     BIT            ?BI?SPI_0
LX51 LINKER/LOCATER V4.66.97.0                                                        01/16/2024  00:35:35  PAGE 2


000020H.5 000020H   000000H.3 ---    ---      **GAP**
000021H   00002FH   00000FH   BYTE   UNIT     DATA           _DATA_GROUP_
000030H   000030H   000001H   BYTE   UNIT     IDATA          ?STACK

* * * * * * * * * * *   C O D E   M E M O R Y   * * * * * * * * * * * * *
000000H   000002H   000003H   ---    OFFS..   CODE           ?CO?SILABS_STARTUP?3
000003H   00002EH   00002CH   BYTE   UNIT     CODE           ?PR?LCD_INIT?16X2_LCD_DISPLAY
00002FH   000032H   000004H   BYTE   UNIT     CODE           ?PR?CLOCK_0_ENTER_DEFAULTMODE_FROM_RESET?INITDEVICE
000033H   000035H   000003H   BYTE   OFFS..   CODE           ?SPI_0?00033
000036H   0000DDH   0000A8H   BYTE   UNIT     CODE           ?PR?_READ_COL?KEYPAD
0000DEH   00016CH   00008FH   BYTE   UNIT     CODE           ?C_C51STARTUP
00016DH   0001F2H   000086H   BYTE   UNIT     CODE           ?PR?SPI0_ISR?SPI_0
0001F3H   000253H   000061H   BYTE   UNIT     CODE           ?C?LIB_CODE
000254H   000296H   000043H   BYTE   UNIT     CODE           ?PR?_SPI0_TRANSFER?SPI_0
000297H   0002CCH   000036H   BYTE   UNIT     CODE           ?PR?_DELAY?16X2_LCD_DISPLAY
0002CDH   0002F4H   000028H   BYTE   UNIT     CODE           ?PR?MAIN?SPI0_LIB_MASTER
0002F5H   00031AH   000026H   BYTE   UNIT     CODE           ?PR?_SET_MCP23S08_GPIO?MCP23S08
00031BH   00033CH   000022H   BYTE   UNIT     CODE           ?PR?_SPI_READBYTE?MCP23S08
00033DH   00035CH   000020H   BYTE   UNIT     CODE           ?PR?_GET_MCP23S08_GPIO_DATA?MCP23S08
00035DH   00037BH   00001FH   BYTE   UNIT     CODE           ?PR?_READ_ROW?KEYPAD
00037CH   000399H   00001EH   BYTE   UNIT     CODE           ?PR?_SPI_WRITEBYTE?MCP23S08
00039AH   0003B3H   00001AH   BYTE   UNIT     CODE           ?C_INITSEG
0003B4H   0003C8H   000015H   BYTE   UNIT     CODE           ?PR?ENTER_DEFAULTMODE_FROM_RESET?INITDEVICE
0003C9H   0003D9H   000011H   BYTE   UNIT     CODE           ?PR?SPI0_INTERNALINIT?SPI_0
0003DAH   0003E8H   00000FH   BYTE   UNIT     CODE           ?PR?_LCD_CMD?16X2_LCD_DISPLAY
0003E9H   0003F7H   00000FH   BYTE   UNIT     CODE           ?PR?_LCD_DATA?16X2_LCD_DISPLAY
0003F8H   000406H   00000FH   BYTE   UNIT     CODE           ?PR?DEBOUNCEDELAY?KEYPAD
000407H   000410H   00000AH   BYTE   UNIT     CODE           ?PR?SPI_0_ENTER_DEFAULTMODE_FROM_RESET?INITDEVICE
000411H   000418H   000008H   BYTE   UNIT     CODE           ?PR?DISPLAY_KEY?KEYPAD
000419H   00041FH   000007H   BYTE   UNIT     CODE           ?PR?WDT_0_ENTER_DEFAULTMODE_FROM_RESET?INITDEVICE
000420H   000426H   000007H   BYTE   UNIT     CODE           ?PR?PORTS_0_ENTER_DEFAULTMODE_FROM_RESET?INITDEVICE
000427H   00042DH   000007H   BYTE   UNIT     CODE           ?PR?PORTS_1_ENTER_DEFAULTMODE_FROM_RESET?INITDEVICE
00042EH   000434H   000007H   BYTE   UNIT     CODE           ?PR?PBCFG_0_ENTER_DEFAULTMODE_FROM_RESET?INITDEVICE
000435H   000439H   000005H   BYTE   UNIT     CODE           ?PR?CLEAR_DISPLAY?16X2_LCD_DISPLAY
00043AH   00043EH   000005H   BYTE   UNIT     CODE           ?PR?BEGIN_1STLINE?16X2_LCD_DISPLAY
00043FH   000442H   000004H   BYTE   UNIT     CODE           ?PR?INTERRUPT_0_ENTER_DEFAULTMODE_FROM_RESET?INITDEVICE
000443H   000443H   000001H   BYTE   UNIT     CODE           ?PR?SPI0_TRANSFERCOMPLETECB?SPI0_LIB_MASTER
000444H   000444H   000001H   BYTE   UNIT     CODE           ?PR?SILABS_STARTUP?SPI0_LIB_MASTER

* * * * * * * * *   R E M O V E D     S E G M E N T S   * * * * * * * *
   *DEL*:           00000CH   BYTE   UNIT     CODE           ?PR?_SPI0_WRITEBYTE?SPI_0
   *DEL*:           000000H.1 BIT    UNIT     BIT            ?BI?_SPI0_WRITEBYTE?SPI_0
   *DEL*:           000006H   BYTE   UNIT     CODE           ?PR?_SPI0_POLLWRITEBYTE?SPI_0
   *DEL*:           00006FH   BYTE   UNIT     CODE           ?PR?_SPI0_POLLTRANSFER?SPI_0
   *DEL*:           000005H   BYTE   UNIT     DATA           ?DT?_SPI0_POLLTRANSFER?SPI_0
   *DEL*:           000000H.1 BIT    UNIT     BIT            ?BI?_SPI0_POLLTRANSFER?SPI_0
   *DEL*:           00001BH   BYTE   UNIT     CODE           ?PR?SPI0_ISBUSY?SPI_0
   *DEL*:           000000H.1 BIT    UNIT     BIT            ?BI?SPI0_ISBUSY?SPI_0
   *DEL*:           00002FH   BYTE   UNIT     CODE           ?PR?_SPI0_INIT?SPI_0
   *DEL*:           000000H.2 BIT    UNIT     BIT            ?BI?_SPI0_INIT?SPI_0
   *DEL*:           00002BH   BYTE   UNIT     CODE           ?PR?_SPI0_SETCLOCKDIVIDER?SPI_0
   *DEL*:           000016H   BYTE   UNIT     CODE           ?PR?SPI0_ABORTTRANSFER?SPI_0
   *DEL*:           000003H   BYTE   UNIT     CODE           ?PR?SPI0_BYTESREMAINING?SPI_0
   *DEL*:           00002BH   BYTE   UNIT     CODE           ?PR?_LCD_STRING?16X2_LCD_DISPLAY
   *DEL*:           000005H   BYTE   UNIT     DATA           ?DT?_LCD_STRING?16X2_LCD_DISPLAY
   *DEL*:           000045H   BYTE   UNIT     CODE           ?PR?_DISPLAY_TIME?16X2_LCD_DISPLAY
   *DEL*:           000005H   BYTE   UNIT     DATA           ?DT?_DISPLAY_TIME?16X2_LCD_DISPLAY
   *DEL*:           000005H   BYTE   UNIT     CODE           ?PR?CURSOR_OFF?16X2_LCD_DISPLAY
   *DEL*:           000005H   BYTE   UNIT     CODE           ?PR?BEGIN_2NDLINE?16X2_LCD_DISPLAY
   *DEL*:           000005H   BYTE   UNIT     CODE           ?PR?CURSOR_RIGHT?16X2_LCD_DISPLAY
   *DEL*:           000005H   BYTE   UNIT     CODE           ?PR?CURSOR_LEFT?16X2_LCD_DISPLAY
   *DEL*:           000005H   BYTE   UNIT     CODE           ?PR?CURSOR_BLINK?16X2_LCD_DISPLAY
LX51 LINKER/LOCATER V4.66.97.0                                                        01/16/2024  00:35:35  PAGE 3


   *DEL*:           000005H   BYTE   UNIT     CODE           ?PR?SHOW_CURSOR?16X2_LCD_DISPLAY
   *DEL*:           000038H   BYTE   UNIT     CODE           ?PR?READ_KEYPAD?KEYPAD
   *DEL*:           00005DH   BYTE   UNIT     CODE           ?PR?_SPI_READARRAY?MCP23S08
   *DEL*:           000005H   BYTE   UNIT     DATA           ?DT?_SPI_READARRAY?MCP23S08
   *DEL*:           00003FH   BYTE   UNIT     CODE           ?PR?_SPI_WRITEARRAY?MCP23S08
   *DEL*:           000003H   BYTE   UNIT     DATA           ?DT?_SPI_WRITEARRAY?MCP23S08
   *DEL*:           000015H   BYTE   UNIT     CODE           ?PR?_GET_MCP23S08_GPIOS_PINMODE?MCP23S08
   *DEL*:           000003H   BYTE   UNIT     DATA           ?DT?_GET_MCP23S08_GPIOS_PINMODE?MCP23S08
   *DEL*:           00001DH   BYTE   UNIT     CODE           ?PR?_GET_MCP23S08_GPIO_PINMODE?MCP23S08
   *DEL*:           000002H   BYTE   UNIT     DATA           ?DT?_GET_MCP23S08_GPIO_PINMODE?MCP23S08
   *DEL*:           000024H   BYTE   UNIT     CODE           ?PR?_SET_MCP23S08_GPIO_PINMODE?MCP23S08
   *DEL*:           000001H   BYTE   UNIT     DATA           ?DT?_SET_MCP23S08_GPIO_PINMODE?MCP23S08
   *DEL*:           00000EH   BYTE   UNIT     CODE           ?PR?_SET_MCP23S08_GPIO_PINMODE_OUT?MCP23S08
   *DEL*:           000001H   BYTE   UNIT     DATA           ?DT?_SET_MCP23S08_GPIO_PINMODE_OUT?MCP23S08
   *DEL*:           000015H   BYTE   UNIT     CODE           ?PR?_GET_MCP23S08_GPIO_STAT_POLARITY?MCP23S08
   *DEL*:           000003H   BYTE   UNIT     DATA           ?DT?_GET_MCP23S08_GPIO_STAT_POLARITY?MCP23S08
   *DEL*:           00001DH   BYTE   UNIT     CODE           ?PR?_GET_MCP23S08_GPIO_POLARITY?MCP23S08
   *DEL*:           000002H   BYTE   UNIT     DATA           ?DT?_GET_MCP23S08_GPIO_POLARITY?MCP23S08
   *DEL*:           000025H   BYTE   UNIT     CODE           ?PR?_SET_MCP23S08_GPIO_POLARITY?MCP23S08
   *DEL*:           000001H   BYTE   UNIT     DATA           ?DT?_SET_MCP23S08_GPIO_POLARITY?MCP23S08
   *DEL*:           00000FH   BYTE   UNIT     CODE           ?PR?_SET_MCP23S08_GPIO_ACTIVE_LOW?MCP23S08
   *DEL*:           000001H   BYTE   UNIT     DATA           ?DT?_SET_MCP23S08_GPIO_ACTIVE_LOW?MCP23S08
   *DEL*:           000015H   BYTE   UNIT     CODE           ?PR?_GET_MCP23S08_GPIOSTA_INTR_PINCHANGE?MCP23S08
   *DEL*:           000003H   BYTE   UNIT     DATA           ?DT?_GET_MCP23S08_GPIOSTA_INTR_PINCHANGE?MCP23S08
   *DEL*:           00001DH   BYTE   UNIT     CODE           ?PR?_GET_MCP23S08_GPIO_INTR_PINCHANGE?MCP23S08
   *DEL*:           000002H   BYTE   UNIT     DATA           ?DT?_GET_MCP23S08_GPIO_INTR_PINCHANGE?MCP23S08
   *DEL*:           000025H   BYTE   UNIT     CODE           ?PR?_SET_MCP23S08_GPIO_INTR_PINCHANGE?MCP23S08
   *DEL*:           000001H   BYTE   UNIT     DATA           ?DT?_SET_MCP23S08_GPIO_INTR_PINCHANGE?MCP23S08
   *DEL*:           00000FH   BYTE   UNIT     CODE           ?PR?_SET_MCP23S08_GPIO_MULTI_INTR_PINCHANGE?MCP23S08
   *DEL*:           000001H   BYTE   UNIT     DATA           ?DT?_SET_MCP23S08_GPIO_MULTI_INTR_PINCHANGE?MCP23S08
   *DEL*:           000015H   BYTE   UNIT     CODE           ?PR?_GET_MCP23S08_GPIOSTA_DEFAULT_COMPARE?MCP23S08
   *DEL*:           000003H   BYTE   UNIT     DATA           ?DT?_GET_MCP23S08_GPIOSTA_DEFAULT_COMPARE?MCP23S08
   *DEL*:           00001DH   BYTE   UNIT     CODE           ?PR?_GET_MCP23S08_GPIO_DEFAULT_COMPARE?MCP23S08
   *DEL*:           000002H   BYTE   UNIT     DATA           ?DT?_GET_MCP23S08_GPIO_DEFAULT_COMPARE?MCP23S08
   *DEL*:           000025H   BYTE   UNIT     CODE           ?PR?_SET_MCP23S08_GPIO_DEFAULT_COMPARE?MCP23S08
   *DEL*:           000001H   BYTE   UNIT     DATA           ?DT?_SET_MCP23S08_GPIO_DEFAULT_COMPARE?MCP23S08
   *DEL*:           00000FH   BYTE   UNIT     CODE           ?PR?_SET_MCP23S08_GPIO_DEFAULT_COMPARE_HIGH?MCP23S08
   *DEL*:           000001H   BYTE   UNIT     DATA           ?DT?_SET_MCP23S08_GPIO_DEFAULT_COMPARE_HIGH?MCP23S08
   *DEL*:           000015H   BYTE   UNIT     CODE           ?PR?_GET_MCP23S08_GPIOSTA_INTR_CONTROL?MCP23S08
   *DEL*:           000003H   BYTE   UNIT     DATA           ?DT?_GET_MCP23S08_GPIOSTA_INTR_CONTROL?MCP23S08
   *DEL*:           00001DH   BYTE   UNIT     CODE           ?PR?_GET_MCP23S08_GPIO_INTR_CONTROL?MCP23S08
   *DEL*:           000002H   BYTE   UNIT     DATA           ?DT?_GET_MCP23S08_GPIO_INTR_CONTROL?MCP23S08
   *DEL*:           000025H   BYTE   UNIT     CODE           ?PR?_SET_MCP23S08_GPIO_INTR_CONTROL?MCP23S08
   *DEL*:           000001H   BYTE   UNIT     DATA           ?DT?_SET_MCP23S08_GPIO_INTR_CONTROL?MCP23S08
   *DEL*:           00000FH   BYTE   UNIT     CODE           ?PR?_SET_MCP23S08_GPIO_INTR_CONTROL_DEFVAL?MCP23S08
   *DEL*:           000001H   BYTE   UNIT     DATA           ?DT?_SET_MCP23S08_GPIO_INTR_CONTROL_DEFVAL?MCP23S08
   *DEL*:           000012H   BYTE   UNIT     CODE           ?PR?GET_MCP23S08_SEQUENTIAL_OPERATION_MODE?MCP23S08
   *DEL*:           000001H   BYTE   UNIT     DATA           ?DT?GET_MCP23S08_SEQUENTIAL_OPERATION_MODE?MCP23S08
   *DEL*:           000013H   BYTE   UNIT     CODE           ?PR?_SET_MCP23S08_SEQUENTIAL_OPERATION_MODE?MCP23S08
   *DEL*:           000001H   BYTE   UNIT     DATA           ?DT?_SET_MCP23S08_SEQUENTIAL_OPERATION_MODE?MCP23S08
   *DEL*:           000011H   BYTE   UNIT     CODE           ?PR?GET_MCP23S08_SLEW_RATE_CONTROL?MCP23S08
   *DEL*:           000001H   BYTE   UNIT     DATA           ?DT?GET_MCP23S08_SLEW_RATE_CONTROL?MCP23S08
   *DEL*:           000012H   BYTE   UNIT     CODE           ?PR?_SET_MCP23S08_SLEW_RATE_CONTROL?MCP23S08
   *DEL*:           000001H   BYTE   UNIT     DATA           ?DT?_SET_MCP23S08_SLEW_RATE_CONTROL?MCP23S08
   *DEL*:           000013H   BYTE   UNIT     CODE           ?PR?GET_MCP23S08_ADDRESS_PINS_STAT?MCP23S08
   *DEL*:           000001H   BYTE   UNIT     DATA           ?DT?GET_MCP23S08_ADDRESS_PINS_STAT?MCP23S08
   *DEL*:           000014H   BYTE   UNIT     CODE           ?PR?_SET_MCP23S08_ADDRESS_PINS?MCP23S08
   *DEL*:           000001H   BYTE   UNIT     DATA           ?DT?_SET_MCP23S08_ADDRESS_PINS?MCP23S08
   *DEL*:           000012H   BYTE   UNIT     CODE           ?PR?GET_MCP23S08_INT_PIN_CONFIG?MCP23S08
   *DEL*:           000001H   BYTE   UNIT     DATA           ?DT?GET_MCP23S08_INT_PIN_CONFIG?MCP23S08
   *DEL*:           000015H   BYTE   UNIT     CODE           ?PR?_SET_MCP23S08_INT_PIN_CONFIG?MCP23S08
   *DEL*:           000001H   BYTE   UNIT     DATA           ?DT?_SET_MCP23S08_INT_PIN_CONFIG?MCP23S08
LX51 LINKER/LOCATER V4.66.97.0                                                        01/16/2024  00:35:35  PAGE 4


   *DEL*:           000012H   BYTE   UNIT     CODE           ?PR?GET_MCP23S08_INT_POLARITY?MCP23S08
   *DEL*:           000001H   BYTE   UNIT     DATA           ?DT?GET_MCP23S08_INT_POLARITY?MCP23S08
   *DEL*:           00001AH   BYTE   UNIT     CODE           ?PR?_SET_MCP23S08_INT_POLARITY?MCP23S08
   *DEL*:           000001H   BYTE   UNIT     DATA           ?DT?_SET_MCP23S08_INT_POLARITY?MCP23S08
   *DEL*:           000015H   BYTE   UNIT     CODE           ?PR?_GET_MCP23S08_GPIOSTA_PULL_UP?MCP23S08
   *DEL*:           000003H   BYTE   UNIT     DATA           ?DT?_GET_MCP23S08_GPIOSTA_PULL_UP?MCP23S08
   *DEL*:           00001DH   BYTE   UNIT     CODE           ?PR?_GET_MCP23S08_GPIO_PULL_UP_CONFIG?MCP23S08
   *DEL*:           000002H   BYTE   UNIT     DATA           ?DT?_GET_MCP23S08_GPIO_PULL_UP_CONFIG?MCP23S08
   *DEL*:           000025H   BYTE   UNIT     CODE           ?PR?_SET_MCP23S08_GPIO_PULL_UP?MCP23S08
   *DEL*:           000001H   BYTE   UNIT     DATA           ?DT?_SET_MCP23S08_GPIO_PULL_UP?MCP23S08
   *DEL*:           00000FH   BYTE   UNIT     CODE           ?PR?_SET_MCP23S08_GPIO_PULL_UP_EN?MCP23S08
   *DEL*:           000001H   BYTE   UNIT     DATA           ?DT?_SET_MCP23S08_GPIO_PULL_UP_EN?MCP23S08
   *DEL*:           000015H   BYTE   UNIT     CODE           ?PR?_GET_MCP23S08_INTR_FLAG_STAT?MCP23S08
   *DEL*:           000003H   BYTE   UNIT     DATA           ?DT?_GET_MCP23S08_INTR_FLAG_STAT?MCP23S08
   *DEL*:           00001DH   BYTE   UNIT     CODE           ?PR?_GET_MCP23S08_GPIO_INTR_CONFIG?MCP23S08
   *DEL*:           000002H   BYTE   UNIT     DATA           ?DT?_GET_MCP23S08_GPIO_INTR_CONFIG?MCP23S08
   *DEL*:           000015H   BYTE   UNIT     CODE           ?PR?_GET_MCP23S08_INTR_CAPTURE_CONFIG?MCP23S08
   *DEL*:           000003H   BYTE   UNIT     DATA           ?DT?_GET_MCP23S08_INTR_CAPTURE_CONFIG?MCP23S08
   *DEL*:           00001DH   BYTE   UNIT     CODE           ?PR?_GET_MCP23S08_GPIO_INTR_CAPTURE_CONFIG?MCP23S08
   *DEL*:           000002H   BYTE   UNIT     DATA           ?DT?_GET_MCP23S08_GPIO_INTR_CAPTURE_CONFIG?MCP23S08
   *DEL*:           000015H   BYTE   UNIT     CODE           ?PR?_GET_MCP23S08_GPIO_REG?MCP23S08
   *DEL*:           000003H   BYTE   UNIT     DATA           ?DT?_GET_MCP23S08_GPIO_REG?MCP23S08
   *DEL*:           00000FH   BYTE   UNIT     CODE           ?PR?_SET_MCP23S08_GPIO_HIGH?MCP23S08
   *DEL*:           000001H   BYTE   UNIT     DATA           ?DT?_SET_MCP23S08_GPIO_HIGH?MCP23S08
   *DEL*:           000015H   BYTE   UNIT     CODE           ?PR?_GET_MCP23S08_STA_OUTPUT_LATCH?MCP23S08
   *DEL*:           000003H   BYTE   UNIT     DATA           ?DT?_GET_MCP23S08_STA_OUTPUT_LATCH?MCP23S08
   *DEL*:           00001DH   BYTE   UNIT     CODE           ?PR?_GET_MCP23S08_OUTPUT_LATCH_CONFIG?MCP23S08
   *DEL*:           000002H   BYTE   UNIT     DATA           ?DT?_GET_MCP23S08_OUTPUT_LATCH_CONFIG?MCP23S08
   *DEL*:           000025H   BYTE   UNIT     CODE           ?PR?_SET_MCP23S08_OUTPUT_LATCH?MCP23S08
   *DEL*:           000001H   BYTE   UNIT     DATA           ?DT?_SET_MCP23S08_OUTPUT_LATCH?MCP23S08
   *DEL*:           00000FH   BYTE   UNIT     CODE           ?PR?_SET_MCP23S08_OUTPUT_LATCH_REG?MCP23S08
   *DEL*:           000001H   BYTE   UNIT     DATA           ?DT?_SET_MCP23S08_OUTPUT_LATCH_REG?MCP23S08
   *DEL*:           0000A1H   BYTE   UNIT     CODE           ?PR?_GET_MCP23S08_GPIO_PINSTAT?MCP23S08
   *DEL*:           000002H   BYTE   UNIT     DATA           ?DT?_GET_MCP23S08_GPIO_PINSTAT?MCP23S08
   *DEL*:           000019H   BYTE   UNIT     CODE           ?PR?_SET_MCP23S08_GPIO_INTR_HANDLE?MCP23S08
   *DEL*:           000003H   BYTE   UNIT     DATA           ?DT?_SET_MCP23S08_GPIO_INTR_HANDLE?MCP23S08



OVERLAY MAP OF MODULE:   EFM8BB1_SPI_LIB_MASTER_PB.OMF.CRBUILD (SPI_0)


FUNCTION/MODULE                                BIT_GROUP   DATA_GROUP 
--> CALLED FUNCTION/MODULE                    START  STOP  START  STOP
======================================================================
SPI0_ISR/SPI_0                                ----- -----  0021H 0021H
  +--> SPI0_TRANSFERCOMPLETECB/SPI0_LIB_MASTER

SPI0_TRANSFERCOMPLETECB/SPI0_LIB_MASTER       ----- -----  ----- -----

*** NEW ROOT ********************************

?C_C51STARTUP                                 ----- -----  ----- -----
  +--> SILABS_STARTUP/SPI0_LIB_MASTER
  +--> MAIN/SPI0_LIB_MASTER
  +--> ?C_INITSEG

SILABS_STARTUP/SPI0_LIB_MASTER                ----- -----  ----- -----

MAIN/SPI0_LIB_MASTER                          ----- -----  0022H 0022H
  +--> ENTER_DEFAULTMODE_FROM_RESET/INITDEVICE
  +--> _SPI_WRITEBYTE/MCP23S08
LX51 LINKER/LOCATER V4.66.97.0                                                        01/16/2024  00:35:35  PAGE 5


  +--> LCD_INIT/16X2_LCD_DISPLAY
  +--> _LCD_DATA/16X2_LCD_DISPLAY
  +--> _SET_MCP23S08_GPIO/MCP23S08
  +--> _READ_COL/KEYPAD

ENTER_DEFAULTMODE_FROM_RESET/INITDEVICE       ----- -----  ----- -----
  +--> WDT_0_ENTER_DEFAULTMODE_FROM_RESET/INITDEVICE
  +--> PORTS_0_ENTER_DEFAULTMODE_FROM_RESET/INITDEVICE
  +--> PORTS_1_ENTER_DEFAULTMODE_FROM_RESET/INITDEVICE
  +--> PBCFG_0_ENTER_DEFAULTMODE_FROM_RESET/INITDEVICE
  +--> CLOCK_0_ENTER_DEFAULTMODE_FROM_RESET/INITDEVICE
  +--> SPI_0_ENTER_DEFAULTMODE_FROM_RESET/INITDEVICE
  +--> INTERRUPT_0_ENTER_DEFAULTMODE_FROM_RESET/INITDEVICE

WDT_0_ENTER_DEFAULTMODE_FROM_RESET/INITD+     ----- -----  ----- -----
... EVICE

PORTS_0_ENTER_DEFAULTMODE_FROM_RESET/INI+     ----- -----  ----- -----
... TDEVICE

PORTS_1_ENTER_DEFAULTMODE_FROM_RESET/INI+     ----- -----  ----- -----
... TDEVICE

PBCFG_0_ENTER_DEFAULTMODE_FROM_RESET/INI+     ----- -----  ----- -----
... TDEVICE

CLOCK_0_ENTER_DEFAULTMODE_FROM_RESET/INI+     ----- -----  ----- -----
... TDEVICE

SPI_0_ENTER_DEFAULTMODE_FROM_RESET/INITD+     ----- -----  ----- -----
... EVICE

INTERRUPT_0_ENTER_DEFAULTMODE_FROM_RESET+     ----- -----  ----- -----
... /INITDEVICE

_SPI_WRITEBYTE/MCP23S08                       ----- -----  ----- -----
  +--> _SPI0_TRANSFER/SPI_0

_SPI0_TRANSFER/SPI_0                          ----- -----  002BH 002FH
  +--> SPI0_INTERNALINIT/SPI_0

SPI0_INTERNALINIT/SPI_0                       ----- -----  ----- -----

LCD_INIT/16X2_LCD_DISPLAY                     ----- -----  ----- -----
  +--> _LCD_CMD/16X2_LCD_DISPLAY
  +--> _DELAY/16X2_LCD_DISPLAY

_LCD_CMD/16X2_LCD_DISPLAY                     ----- -----  ----- -----
  +--> _DELAY/16X2_LCD_DISPLAY

_DELAY/16X2_LCD_DISPLAY                       ----- -----  ----- -----

_LCD_DATA/16X2_LCD_DISPLAY                    ----- -----  ----- -----
  +--> _DELAY/16X2_LCD_DISPLAY

_SET_MCP23S08_GPIO/MCP23S08                   ----- -----  ----- -----
  +--> _SPI_WRITEBYTE/MCP23S08

_READ_COL/KEYPAD                              ----- -----  0023H 0028H
  +--> _GET_MCP23S08_GPIO_DATA/MCP23S08
  +--> _READ_ROW/KEYPAD
  +--> DISPLAY_KEY/KEYPAD
LX51 LINKER/LOCATER V4.66.97.0                                                        01/16/2024  00:35:35  PAGE 6


  +--> CLEAR_DISPLAY/16X2_LCD_DISPLAY

_GET_MCP23S08_GPIO_DATA/MCP23S08              ----- -----  0029H 002AH
  +--> _SPI_READBYTE/MCP23S08

_SPI_READBYTE/MCP23S08                        ----- -----  ----- -----
  +--> _SPI0_TRANSFER/SPI_0

_READ_ROW/KEYPAD                              ----- -----  ----- -----
  +--> DEBOUNCEDELAY/KEYPAD

DEBOUNCEDELAY/KEYPAD                          ----- -----  ----- -----

DISPLAY_KEY/KEYPAD                            ----- -----  ----- -----
  +--> _LCD_DATA/16X2_LCD_DISPLAY
  +--> BEGIN_1STLINE/16X2_LCD_DISPLAY

BEGIN_1STLINE/16X2_LCD_DISPLAY                ----- -----  ----- -----
  +--> _LCD_CMD/16X2_LCD_DISPLAY

CLEAR_DISPLAY/16X2_LCD_DISPLAY                ----- -----  ----- -----
  +--> _LCD_CMD/16X2_LCD_DISPLAY

?C_INITSEG                                    ----- -----  ----- -----



PUBLIC SYMBOLS OF MODULE:  EFM8BB1_SPI_LIB_MASTER_PB.OMF.CRBUILD (SPI_0)


      VALUE       CLASS    TYPE      PUBLIC SYMBOL NAME
      =================================================
*DEL*:00000000H.0 BIT      BIT       ?_SPI0_init?BIT
*DEL*:00000000H   DATA     BYTE      ?_SPI0_pollTransfer?BYTE
      0000002BH   DATA     BYTE      ?_SPI0_transfer?BYTE
      010001F3H   CODE     ---       ?C?CLDOPTR
      00000000H   NUMBER   ---       ?C?CODESEG
      01000232H   CODE     ---       ?C?CSTOPTR
      01000220H   CODE     ---       ?C?CSTPTR
      00000000H   NUMBER   ---       ?C?XDATASEG
      01000128H   CODE     ---       ?C_START
      01000000H   CODE     NEAR LAB  ?C_STARTUP
      010002B5H   CODE     ---       _delay
*DEL*:00000000H   CODE     ---       _display_time
      0100033DH   CODE     ---       _Get_mcp23s08_GPIO_Data
*DEL*:00000000H   CODE     ---       _Get_mcp23s08_GPIO_DEFAULT_COMPARE
*DEL*:00000000H   CODE     ---       _Get_mcp23s08_GPIO_INTR_CAPTURE_Config
*DEL*:00000000H   CODE     ---       _Get_mcp23s08_GPIO_INTR_Config
*DEL*:00000000H   CODE     ---       _Get_mcp23s08_GPIO_INTR_CONTROL
*DEL*:00000000H   CODE     ---       _Get_mcp23s08_GPIO_INTR_PinChange
*DEL*:00000000H   CODE     ---       _Get_mcp23s08_GPIO_PinMode
*DEL*:00000000H   CODE     ---       _Get_mcp23s08_GPIO_Pinstat
*DEL*:00000000H   CODE     ---       _Get_mcp23s08_GPIO_Polarity
*DEL*:00000000H   CODE     ---       _Get_mcp23s08_GPIO_PULL_UP_Config
*DEL*:00000000H   CODE     ---       _Get_mcp23s08_GPIO_Reg
*DEL*:00000000H   CODE     ---       _Get_mcp23s08_GPIO_STAT_Polarity
*DEL*:00000000H   CODE     ---       _Get_mcp23s08_GPIOs_PinMode
*DEL*:00000000H   CODE     ---       _Get_mcp23s08_GPIOsta_DEFAULT_COMPARE
*DEL*:00000000H   CODE     ---       _Get_mcp23s08_GPIOsta_INTR_CONTROL
*DEL*:00000000H   CODE     ---       _Get_mcp23s08_GPIOsta_INTR_PinChange
*DEL*:00000000H   CODE     ---       _Get_mcp23s08_GPIOsta_PULL_UP
*DEL*:00000000H   CODE     ---       _Get_mcp23s08_INTR_CAPTURE_Config
LX51 LINKER/LOCATER V4.66.97.0                                                        01/16/2024  00:35:35  PAGE 7


*DEL*:00000000H   CODE     ---       _Get_mcp23s08_INTR_FLAG_STAT
*DEL*:00000000H   CODE     ---       _Get_mcp23s08_OUTPUT_LATCH_Config
*DEL*:00000000H   CODE     ---       _Get_mcp23s08_sta_OUTPUT_LATCH
      010003DAH   CODE     ---       _lcd_cmd
      010003E9H   CODE     ---       _lcd_data
*DEL*:00000000H   CODE     ---       _lcd_string
      01000036H   CODE     ---       _read_col
      0100035DH   CODE     ---       _read_row
*DEL*:00000000H   CODE     ---       _Set_mcp23s08_Address_Pins
      010002F5H   CODE     ---       _Set_mcp23s08_GPIO
*DEL*:00000000H   CODE     ---       _Set_mcp23s08_GPIO_ACTIVE_LOW
*DEL*:00000000H   CODE     ---       _Set_mcp23s08_GPIO_DEFAULT_COMPARE
*DEL*:00000000H   CODE     ---       _Set_mcp23s08_GPIO_DEFAULT_COMPARE_HIGH
*DEL*:00000000H   CODE     ---       _Set_mcp23s08_GPIO_High
*DEL*:00000000H   CODE     ---       _Set_mcp23s08_GPIO_INTR_CONTROL
*DEL*:00000000H   CODE     ---       _Set_mcp23s08_GPIO_INTR_CONTROL_DEFVAL
*DEL*:00000000H   CODE     ---       _Set_mcp23s08_GPIO_INTR_Handle
*DEL*:00000000H   CODE     ---       _Set_mcp23s08_GPIO_INTR_PinChange
*DEL*:00000000H   CODE     ---       _Set_mcp23s08_GPIO_Multi_INTR_PinChange
*DEL*:00000000H   CODE     ---       _Set_mcp23s08_GPIO_PinMode
*DEL*:00000000H   CODE     ---       _Set_mcp23s08_GPIO_PinMode_OUT
*DEL*:00000000H   CODE     ---       _Set_mcp23s08_GPIO_Polarity
*DEL*:00000000H   CODE     ---       _Set_mcp23s08_GPIO_PULL_UP
*DEL*:00000000H   CODE     ---       _Set_mcp23s08_GPIO_PULL_UP_EN
*DEL*:00000000H   CODE     ---       _Set_mcp23s08_INT_pin_config
*DEL*:00000000H   CODE     ---       _Set_mcp23s08_INT_polarity
*DEL*:00000000H   CODE     ---       _Set_mcp23s08_OUTPUT_LATCH
*DEL*:00000000H   CODE     ---       _Set_mcp23s08_OUTPUT_LATCH_Reg
*DEL*:00000000H   CODE     ---       _Set_mcp23s08_Sequential_Operation_Mode
*DEL*:00000000H   CODE     ---       _Set_mcp23s08_Slew_Rate_Control
*DEL*:00000000H   CODE     ---       _SPI0_init
*DEL*:00000000H   CODE     ---       _SPI0_pollTransfer
*DEL*:00000000H   CODE     ---       _SPI0_pollWriteByte
*DEL*:00000000H   CODE     ---       _SPI0_setClockDivider
      01000254H   CODE     ---       _SPI0_transfer
*DEL*:00000000H   CODE     ---       _SPI0_writeByte
*DEL*:00000000H   CODE     ---       _SPI_ReadArray
      0100031BH   CODE     ---       _SPI_ReadByte
*DEL*:00000000H   CODE     ---       _SPI_WriteArray
      0100037CH   CODE     ---       _SPI_WriteByte
*SFR* 000000E0H   DATA     BYTE      ACC
*SFR* 000000E0H.0 DATA     BIT       ACC_ACC0
*SFR* 000000E0H.1 DATA     BIT       ACC_ACC1
*SFR* 000000E0H.2 DATA     BIT       ACC_ACC2
*SFR* 000000E0H.3 DATA     BIT       ACC_ACC3
*SFR* 000000E0H.4 DATA     BIT       ACC_ACC4
*SFR* 000000E0H.5 DATA     BIT       ACC_ACC5
*SFR* 000000E0H.6 DATA     BIT       ACC_ACC6
*SFR* 000000E0H.7 DATA     BIT       ACC_ACC7
*SFR* 000000BDH   DATA     WORD      ADC0
*SFR* 000000B3H   DATA     BYTE      ADC0AC
*SFR* 000000BCH   DATA     BYTE      ADC0CF
*SFR* 000000E8H   DATA     BYTE      ADC0CN0
*SFR* 000000E8H.6 DATA     BIT       ADC0CN0_ADBMEN
*SFR* 000000E8H.4 DATA     BIT       ADC0CN0_ADBUSY
*SFR* 000000E8H.0 DATA     BIT       ADC0CN0_ADCM0
*SFR* 000000E8H.1 DATA     BIT       ADC0CN0_ADCM1
*SFR* 000000E8H.2 DATA     BIT       ADC0CN0_ADCM2
*SFR* 000000E8H.7 DATA     BIT       ADC0CN0_ADEN
*SFR* 000000E8H.5 DATA     BIT       ADC0CN0_ADINT
*SFR* 000000E8H.3 DATA     BIT       ADC0CN0_ADWINT
*SFR* 000000B2H   DATA     BYTE      ADC0CN1
LX51 LINKER/LOCATER V4.66.97.0                                                        01/16/2024  00:35:35  PAGE 8


*SFR* 000000C3H   DATA     WORD      ADC0GT
*SFR* 000000C4H   DATA     BYTE      ADC0GTH
*SFR* 000000C3H   DATA     BYTE      ADC0GTL
*SFR* 000000BEH   DATA     BYTE      ADC0H
*SFR* 000000BDH   DATA     BYTE      ADC0L
*SFR* 000000C5H   DATA     WORD      ADC0LT
*SFR* 000000C6H   DATA     BYTE      ADC0LTH
*SFR* 000000C5H   DATA     BYTE      ADC0LTL
*SFR* 000000BBH   DATA     BYTE      ADC0MX
*SFR* 000000DFH   DATA     BYTE      ADC0PWR
*SFR* 000000B9H   DATA     BYTE      ADC0TK
*SFR* 000000F0H   DATA     BYTE      B
*SFR* 000000F0H.0 DATA     BIT       B_B0
*SFR* 000000F0H.1 DATA     BIT       B_B1
*SFR* 000000F0H.2 DATA     BIT       B_B2
*SFR* 000000F0H.3 DATA     BIT       B_B3
*SFR* 000000F0H.4 DATA     BIT       B_B4
*SFR* 000000F0H.5 DATA     BIT       B_B5
*SFR* 000000F0H.6 DATA     BIT       B_B6
*SFR* 000000F0H.7 DATA     BIT       B_B7
      0100043AH   CODE     ---       Begin_1stline
*DEL*:00000000H   CODE     ---       Begin_2ndline
*SFR* 00000080H.2 DATA     BIT       BSP_BTN0
*SFR* 00000090H.4 DATA     BIT       BSP_LED0
      0000001FH   DATA     BYTE      buf
*SFR* 0000008EH   DATA     BYTE      CKCON0
      01000435H   CODE     ---       Clear_display
*SFR* 000000A9H   DATA     BYTE      CLKSEL
      0100002FH   CODE     ---       CLOCK_0_enter_DefaultMode_from_RESET
*SFR* 0000009BH   DATA     BYTE      CMP0CN0
*SFR* 0000009DH   DATA     BYTE      CMP0MD
*SFR* 0000009FH   DATA     BYTE      CMP0MX
*SFR* 000000BFH   DATA     BYTE      CMP1CN0
*SFR* 000000ABH   DATA     BYTE      CMP1MD
*SFR* 000000AAH   DATA     BYTE      CMP1MX
*SFR* 000000D2H   DATA     BYTE      CRC0AUTO
*SFR* 000000CEH   DATA     BYTE      CRC0CN0
*SFR* 000000D3H   DATA     BYTE      CRC0CNT
*SFR* 000000DEH   DATA     BYTE      CRC0DAT
*SFR* 000000CFH   DATA     BYTE      CRC0FLIP
*SFR* 000000DDH   DATA     BYTE      CRC0IN
*SFR* 00000090H.1 DATA     BIT       CS
*DEL*:00000000H   CODE     ---       cursor_blink
*DEL*:00000000H   CODE     ---       cursor_left
*DEL*:00000000H   CODE     ---       cursor_off
*DEL*:00000000H   CODE     ---       cursor_right
      010003F8H   CODE     ---       DebounceDelay
*SFR* 000000ADH   DATA     BYTE      DERIVID
*SFR* 000000B5H   DATA     BYTE      DEVICEID
      01000411H   CODE     ---       display_key
*SFR* 00000082H   DATA     WORD      DP
*SFR* 00000083H   DATA     BYTE      DPH
*SFR* 00000082H   DATA     BYTE      DPL
*SFR* 000000E6H   DATA     BYTE      EIE1
*SFR* 000000F3H   DATA     BYTE      EIP1
*SFR* 00000080H.0 DATA     BIT       EN
      010003B4H   CODE     ---       enter_DefaultMode_from_RESET
*SFR* 000000B7H   DATA     BYTE      FLKEY
*DEL*:00000000H   CODE     ---       Get_mcp23s08_Address_Pins_stat
*DEL*:00000000H   CODE     ---       Get_mcp23s08_INT_pin_config
*DEL*:00000000H   CODE     ---       Get_mcp23s08_INT_polarity
*DEL*:00000000H   CODE     ---       Get_mcp23s08_Sequential_Operation_Mode
LX51 LINKER/LOCATER V4.66.97.0                                                        01/16/2024  00:35:35  PAGE 9


*DEL*:00000000H   CODE     ---       Get_mcp23s08_Slew_Rate_Control
*SFR* 000000C7H   DATA     BYTE      HFO0CAL
*SFR* 000000A8H   DATA     BYTE      IE
*SFR* 000000A8H.7 DATA     BIT       IE_EA
*SFR* 000000A8H.4 DATA     BIT       IE_ES0
*SFR* 000000A8H.6 DATA     BIT       IE_ESPI0
*SFR* 000000A8H.1 DATA     BIT       IE_ET0
*SFR* 000000A8H.3 DATA     BIT       IE_ET1
*SFR* 000000A8H.5 DATA     BIT       IE_ET2
*SFR* 000000A8H.0 DATA     BIT       IE_EX0
*SFR* 000000A8H.2 DATA     BIT       IE_EX1
      0100043FH   CODE     ---       INTERRUPT_0_enter_DefaultMode_from_RESET
*SFR* 000000B8H   DATA     BYTE      IP
*SFR* 000000B8H.4 DATA     BIT       IP_PS0
*SFR* 000000B8H.6 DATA     BIT       IP_PSPI0
*SFR* 000000B8H.1 DATA     BIT       IP_PT0
*SFR* 000000B8H.3 DATA     BIT       IP_PT1
*SFR* 000000B8H.5 DATA     BIT       IP_PT2
*SFR* 000000B8H.0 DATA     BIT       IP_PX0
*SFR* 000000B8H.2 DATA     BIT       IP_PX1
*SFR* 000000E4H   DATA     BYTE      IT01CF
      01000003H   CODE     ---       lcd_init
*SFR* 000000B1H   DATA     BYTE      LFO0CN
      010002CDH   CODE     ---       main
*SFR* 00000080H   DATA     BYTE      P0
*SFR* 00000080H.0 DATA     BIT       P0_B0
*SFR* 00000080H.1 DATA     BIT       P0_B1
*SFR* 00000080H.2 DATA     BIT       P0_B2
*SFR* 00000080H.3 DATA     BIT       P0_B3
*SFR* 00000080H.4 DATA     BIT       P0_B4
*SFR* 00000080H.5 DATA     BIT       P0_B5
*SFR* 00000080H.6 DATA     BIT       P0_B6
*SFR* 00000080H.7 DATA     BIT       P0_B7
*SFR* 000000FEH   DATA     BYTE      P0MASK
*SFR* 000000FDH   DATA     BYTE      P0MAT
*SFR* 000000F1H   DATA     BYTE      P0MDIN
*SFR* 000000A4H   DATA     BYTE      P0MDOUT
*SFR* 000000D4H   DATA     BYTE      P0SKIP
*SFR* 00000090H   DATA     BYTE      P1
*SFR* 00000090H.0 DATA     BIT       P1_B0
*SFR* 00000090H.1 DATA     BIT       P1_B1
*SFR* 00000090H.2 DATA     BIT       P1_B2
*SFR* 00000090H.3 DATA     BIT       P1_B3
*SFR* 00000090H.4 DATA     BIT       P1_B4
*SFR* 00000090H.5 DATA     BIT       P1_B5
*SFR* 00000090H.6 DATA     BIT       P1_B6
*SFR* 00000090H.7 DATA     BIT       P1_B7
*SFR* 000000EEH   DATA     BYTE      P1MASK
*SFR* 000000EDH   DATA     BYTE      P1MAT
*SFR* 000000F2H   DATA     BYTE      P1MDIN
*SFR* 000000A5H   DATA     BYTE      P1MDOUT
*SFR* 000000D5H   DATA     BYTE      P1SKIP
*SFR* 000000A0H   DATA     BYTE      P2
*SFR* 000000A0H.0 DATA     BIT       P2_B0
*SFR* 000000A0H.1 DATA     BIT       P2_B1
*SFR* 000000A6H   DATA     BYTE      P2MDOUT
      0100042EH   CODE     ---       PBCFG_0_enter_DefaultMode_from_RESET
*SFR* 000000F9H   DATA     WORD      PCA0
*SFR* 0000009EH   DATA     BYTE      PCA0CENT
*SFR* 0000009CH   DATA     BYTE      PCA0CLR
*SFR* 000000D8H   DATA     BYTE      PCA0CN0
*SFR* 000000D8H.0 DATA     BIT       PCA0CN0_CCF0
LX51 LINKER/LOCATER V4.66.97.0                                                        01/16/2024  00:35:35  PAGE 10


*SFR* 000000D8H.1 DATA     BIT       PCA0CN0_CCF1
*SFR* 000000D8H.2 DATA     BIT       PCA0CN0_CCF2
*SFR* 000000D8H.7 DATA     BIT       PCA0CN0_CF
*SFR* 000000D8H.6 DATA     BIT       PCA0CN0_CR
*SFR* 000000FBH   DATA     WORD      PCA0CP0
*SFR* 000000E9H   DATA     WORD      PCA0CP1
*SFR* 000000EBH   DATA     WORD      PCA0CP2
*SFR* 000000FCH   DATA     BYTE      PCA0CPH0
*SFR* 000000EAH   DATA     BYTE      PCA0CPH1
*SFR* 000000ECH   DATA     BYTE      PCA0CPH2
*SFR* 000000FBH   DATA     BYTE      PCA0CPL0
*SFR* 000000E9H   DATA     BYTE      PCA0CPL1
*SFR* 000000EBH   DATA     BYTE      PCA0CPL2
*SFR* 000000DAH   DATA     BYTE      PCA0CPM0
*SFR* 000000DBH   DATA     BYTE      PCA0CPM1
*SFR* 000000DCH   DATA     BYTE      PCA0CPM2
*SFR* 000000FAH   DATA     BYTE      PCA0H
*SFR* 000000F9H   DATA     BYTE      PCA0L
*SFR* 000000D9H   DATA     BYTE      PCA0MD
*SFR* 00000096H   DATA     BYTE      PCA0POL
*SFR* 000000F7H   DATA     BYTE      PCA0PWM
*SFR* 00000087H   DATA     BYTE      PCON0
      01000420H   CODE     ---       PORTS_0_enter_DefaultMode_from_RESET
      01000427H   CODE     ---       PORTS_1_enter_DefaultMode_from_RESET
*SFR* 000000A0H   DATA     BYTE      PPAGE_SFR
*SFR* 000000F6H   DATA     BYTE      PRTDRV
*SFR* 0000008FH   DATA     BYTE      PSCTL
*SFR* 000000D0H   DATA     BYTE      PSW
*SFR* 000000D0H.6 DATA     BIT       PSW_AC
*SFR* 000000D0H.7 DATA     BIT       PSW_CY
*SFR* 000000D0H.5 DATA     BIT       PSW_F0
*SFR* 000000D0H.1 DATA     BIT       PSW_F1
*SFR* 000000D0H.2 DATA     BIT       PSW_OV
*SFR* 000000D0H.0 DATA     BIT       PSW_PARITY
*SFR* 000000D0H.3 DATA     BIT       PSW_RS0
*SFR* 000000D0H.4 DATA     BIT       PSW_RS1
*DEL*:00000000H   CODE     ---       read_keypad
*SFR* 000000D1H   DATA     BYTE      REF0CN
*SFR* 000000C9H   DATA     BYTE      REG0CN
*SFR* 000000B6H   DATA     BYTE      REVID
*SFR* 00000080H.1 DATA     BIT       RS
*SFR* 000000EFH   DATA     BYTE      RSTSRC
*SFR* 00000099H   DATA     BYTE      SBUF0
*SFR* 00000098H   DATA     BYTE      SCON0
*SFR* 00000098H.5 DATA     BIT       SCON0_MCE
*SFR* 00000098H.2 DATA     BIT       SCON0_RB8
*SFR* 00000098H.4 DATA     BIT       SCON0_REN
*SFR* 00000098H.0 DATA     BIT       SCON0_RI
*SFR* 00000098H.7 DATA     BIT       SCON0_SMODE
*SFR* 00000098H.3 DATA     BIT       SCON0_TB8
*SFR* 00000098H.1 DATA     BIT       SCON0_TI
*DEL*:00000000H   CODE     ---       show_cursor
      01000444H   CODE     ---       SILABS_STARTUP
*SFR* 000000D6H   DATA     BYTE      SMB0ADM
*SFR* 000000D7H   DATA     BYTE      SMB0ADR
*SFR* 000000C1H   DATA     BYTE      SMB0CF
*SFR* 000000C0H   DATA     BYTE      SMB0CN0
*SFR* 000000C0H.1 DATA     BIT       SMB0CN0_ACK
*SFR* 000000C0H.3 DATA     BIT       SMB0CN0_ACKRQ
*SFR* 000000C0H.2 DATA     BIT       SMB0CN0_ARBLOST
*SFR* 000000C0H.7 DATA     BIT       SMB0CN0_MASTER
*SFR* 000000C0H.0 DATA     BIT       SMB0CN0_SI
LX51 LINKER/LOCATER V4.66.97.0                                                        01/16/2024  00:35:35  PAGE 11


*SFR* 000000C0H.5 DATA     BIT       SMB0CN0_STA
*SFR* 000000C0H.4 DATA     BIT       SMB0CN0_STO
*SFR* 000000C0H.6 DATA     BIT       SMB0CN0_TXMODE
*SFR* 000000C2H   DATA     BYTE      SMB0DAT
*SFR* 000000ACH   DATA     BYTE      SMB0TC
*SFR* 00000081H   DATA     BYTE      SP
*DEL*:00000000H   CODE     ---       SPI0_abortTransfer
*DEL*:00000000H   CODE     ---       SPI0_bytesRemaining
*DEL*:00000000H   CODE     ---       SPI0_isBusy
      0100016DH   CODE     ---       SPI0_ISR
      01000443H   CODE     ---       SPI0_transferCompleteCb
*SFR* 000000A1H   DATA     BYTE      SPI0CFG
*SFR* 000000A2H   DATA     BYTE      SPI0CKR
*SFR* 000000F8H   DATA     BYTE      SPI0CN0
*SFR* 000000F8H.5 DATA     BIT       SPI0CN0_MODF
*SFR* 000000F8H.2 DATA     BIT       SPI0CN0_NSSMD0
*SFR* 000000F8H.3 DATA     BIT       SPI0CN0_NSSMD1
*SFR* 000000F8H.4 DATA     BIT       SPI0CN0_RXOVRN
*SFR* 000000F8H.0 DATA     BIT       SPI0CN0_SPIEN
*SFR* 000000F8H.7 DATA     BIT       SPI0CN0_SPIF
*SFR* 000000F8H.1 DATA     BIT       SPI0CN0_TXBMT
*SFR* 000000F8H.6 DATA     BIT       SPI0CN0_WCOL
*SFR* 000000A3H   DATA     BYTE      SPI0DAT
      01000407H   CODE     ---       SPI_0_enter_DefaultMode_from_RESET
      00000008H   DATA     ---       SPI_RxBuf
      00000011H   DATA     ---       SPI_TxBuf
*SFR* 00000088H   DATA     BYTE      TCON
*SFR* 00000088H.1 DATA     BIT       TCON_IE0
*SFR* 00000088H.3 DATA     BIT       TCON_IE1
*SFR* 00000088H.0 DATA     BIT       TCON_IT0
*SFR* 00000088H.2 DATA     BIT       TCON_IT1
*SFR* 00000088H.5 DATA     BIT       TCON_TF0
*SFR* 00000088H.7 DATA     BIT       TCON_TF1
*SFR* 00000088H.4 DATA     BIT       TCON_TR0
*SFR* 00000088H.6 DATA     BIT       TCON_TR1
*SFR* 0000008CH   DATA     BYTE      TH0
*SFR* 0000008DH   DATA     BYTE      TH1
*SFR* 0000008AH   DATA     BYTE      TL0
*SFR* 0000008BH   DATA     BYTE      TL1
*SFR* 00000089H   DATA     BYTE      TMOD
*SFR* 000000CCH   DATA     WORD      TMR2
*SFR* 000000C8H   DATA     BYTE      TMR2CN0
*SFR* 000000C8H.3 DATA     BIT       TMR2CN0_T2SPLIT
*SFR* 000000C8H.0 DATA     BIT       TMR2CN0_T2XCLK
*SFR* 000000C8H.4 DATA     BIT       TMR2CN0_TF2CEN
*SFR* 000000C8H.7 DATA     BIT       TMR2CN0_TF2H
*SFR* 000000C8H.6 DATA     BIT       TMR2CN0_TF2L
*SFR* 000000C8H.5 DATA     BIT       TMR2CN0_TF2LEN
*SFR* 000000C8H.2 DATA     BIT       TMR2CN0_TR2
*SFR* 000000CDH   DATA     BYTE      TMR2H
*SFR* 000000CCH   DATA     BYTE      TMR2L
*SFR* 000000CAH   DATA     WORD      TMR2RL
*SFR* 000000CBH   DATA     BYTE      TMR2RLH
*SFR* 000000CAH   DATA     BYTE      TMR2RLL
*SFR* 00000094H   DATA     WORD      TMR3
*SFR* 00000091H   DATA     BYTE      TMR3CN0
*SFR* 00000095H   DATA     BYTE      TMR3H
*SFR* 00000094H   DATA     BYTE      TMR3L
*SFR* 00000092H   DATA     WORD      TMR3RL
*SFR* 00000093H   DATA     BYTE      TMR3RLH
*SFR* 00000092H   DATA     BYTE      TMR3RLL
*SFR* 000000FFH   DATA     BYTE      VDM0CN
LX51 LINKER/LOCATER V4.66.97.0                                                        01/16/2024  00:35:35  PAGE 12


      01000419H   CODE     ---       WDT_0_enter_DefaultMode_from_RESET
*SFR* 00000097H   DATA     BYTE      WDTCN
*SFR* 000000E1H   DATA     BYTE      XBR0
*SFR* 000000E2H   DATA     BYTE      XBR1
*SFR* 000000E3H   DATA     BYTE      XBR2



SYMBOL TABLE OF MODULE:  EFM8BB1_SPI_LIB_MASTER_PB.OMF.CRBUILD (SPI_0)

      VALUE       REP       CLASS    TYPE      SYMBOL NAME
      ====================================================
      ---         MODULE    ---      ---       SPI_0
      0100016DH   PUBLIC    CODE     ---       SPI0_ISR
      0000002BH   PUBLIC    DATA     BYTE      ?_SPI0_transfer?BYTE
      01000254H   PUBLIC    CODE     ---       _SPI0_transfer
      000000A2H   SFRSYM    DATA     BYTE      SPI0CKR
      00000080H   SFRSYM    DATA     BYTE      P0
      000000D0H.2 SFRSYM    DATA     BIT       PSW_OV
      00000090H   SFRSYM    DATA     BYTE      P1
      00000097H   SFRSYM    DATA     BYTE      WDTCN
      000000A0H   SFRSYM    DATA     BYTE      P2
      000000BCH   SFRSYM    DATA     BYTE      ADC0CF
      000000C8H.0 SFRSYM    DATA     BIT       TMR2CN0_T2XCLK
      000000C0H.7 SFRSYM    DATA     BIT       SMB0CN0_MASTER
      000000F9H   SFRSYM    DATA     WORD      PCA0
      000000E6H   SFRSYM    DATA     BYTE      EIE1
      000000C0H.1 SFRSYM    DATA     BIT       SMB0CN0_ACK
      0000008FH   SFRSYM    DATA     BYTE      PSCTL
      000000E4H   SFRSYM    DATA     BYTE      IT01CF
      000000C0H.6 SFRSYM    DATA     BIT       SMB0CN0_TXMODE
      000000ADH   SFRSYM    DATA     BYTE      DERIVID
      000000A4H   SFRSYM    DATA     BYTE      P0MDOUT
      000000A5H   SFRSYM    DATA     BYTE      P1MDOUT
      000000E8H.5 SFRSYM    DATA     BIT       ADC0CN0_ADINT
      000000CBH   SFRSYM    DATA     BYTE      TMR2RLH
      000000A6H   SFRSYM    DATA     BYTE      P2MDOUT
      000000A8H   SFRSYM    DATA     BYTE      IE
      00000093H   SFRSYM    DATA     BYTE      TMR3RLH
      000000F3H   SFRSYM    DATA     BYTE      EIP1
      00000098H.2 SFRSYM    DATA     BIT       SCON0_RB8
      000000CAH   SFRSYM    DATA     BYTE      TMR2RLL
      000000FCH   SFRSYM    DATA     BYTE      PCA0CPH0
      00000092H   SFRSYM    DATA     BYTE      TMR3RLL
      000000EAH   SFRSYM    DATA     BYTE      PCA0CPH1
      00000098H.3 SFRSYM    DATA     BIT       SCON0_TB8
      000000F0H.0 SFRSYM    DATA     BIT       B_B0
      00000082H   SFRSYM    DATA     WORD      DP
      000000ECH   SFRSYM    DATA     BYTE      PCA0CPH2
      000000F0H.1 SFRSYM    DATA     BIT       B_B1
      000000C3H   SFRSYM    DATA     WORD      ADC0GT
      000000F0H.2 SFRSYM    DATA     BIT       B_B2
      000000FBH   SFRSYM    DATA     BYTE      PCA0CPL0
      000000F0H.3 SFRSYM    DATA     BIT       B_B3
      000000D9H   SFRSYM    DATA     BYTE      PCA0MD
      000000DAH   SFRSYM    DATA     BYTE      PCA0CPM0
      000000E9H   SFRSYM    DATA     BYTE      PCA0CPL1
      000000F0H.4 SFRSYM    DATA     BIT       B_B4
      000000DBH   SFRSYM    DATA     BYTE      PCA0CPM1
      000000EBH   SFRSYM    DATA     BYTE      PCA0CPL2
      000000F0H.5 SFRSYM    DATA     BIT       B_B5
      000000DCH   SFRSYM    DATA     BYTE      PCA0CPM2
LX51 LINKER/LOCATER V4.66.97.0                                                        01/16/2024  00:35:35  PAGE 13


      000000B8H   SFRSYM    DATA     BYTE      IP
      000000B9H   SFRSYM    DATA     BYTE      ADC0TK
      000000F0H.6 SFRSYM    DATA     BIT       B_B6
      000000C5H   SFRSYM    DATA     WORD      ADC0LT
      00000098H.5 SFRSYM    DATA     BIT       SCON0_MCE
      000000F0H.7 SFRSYM    DATA     BIT       B_B7
      000000E1H   SFRSYM    DATA     BYTE      XBR0
      000000C1H   SFRSYM    DATA     BYTE      SMB0CF
      000000E2H   SFRSYM    DATA     BYTE      XBR1
      000000C0H.5 SFRSYM    DATA     BIT       SMB0CN0_STA
      000000E3H   SFRSYM    DATA     BYTE      XBR2
      000000BBH   SFRSYM    DATA     BYTE      ADC0MX
      000000E0H.0 SFRSYM    DATA     BIT       ACC_ACC0
      000000D1H   SFRSYM    DATA     BYTE      REF0CN
      0000008EH   SFRSYM    DATA     BYTE      CKCON0
      000000E0H.1 SFRSYM    DATA     BIT       ACC_ACC1
      000000C9H   SFRSYM    DATA     BYTE      REG0CN
      000000DDH   SFRSYM    DATA     BYTE      CRC0IN
      000000C8H.2 SFRSYM    DATA     BIT       TMR2CN0_TR2
      000000E0H.2 SFRSYM    DATA     BIT       ACC_ACC2
      000000E0H.3 SFRSYM    DATA     BIT       ACC_ACC3
      00000081H   SFRSYM    DATA     BYTE      SP
      0000009DH   SFRSYM    DATA     BYTE      CMP0MD
      000000E0H.4 SFRSYM    DATA     BIT       ACC_ACC4
      000000B1H   SFRSYM    DATA     BYTE      LFO0CN
      000000ABH   SFRSYM    DATA     BYTE      CMP1MD
      000000D8H.0 SFRSYM    DATA     BIT       PCA0CN0_CCF0
      000000E0H.5 SFRSYM    DATA     BIT       ACC_ACC5
      000000D8H.1 SFRSYM    DATA     BIT       PCA0CN0_CCF1
      000000E0H.6 SFRSYM    DATA     BIT       ACC_ACC6
      000000CCH   SFRSYM    DATA     WORD      TMR2
      000000D8H.2 SFRSYM    DATA     BIT       PCA0CN0_CCF2
      000000E0H.7 SFRSYM    DATA     BIT       ACC_ACC7
      00000094H   SFRSYM    DATA     WORD      TMR3
      000000C0H.3 SFRSYM    DATA     BIT       SMB0CN0_ACKRQ
      000000FFH   SFRSYM    DATA     BYTE      VDM0CN
      000000F1H   SFRSYM    DATA     BYTE      P0MDIN
      00000098H.4 SFRSYM    DATA     BIT       SCON0_REN
      000000ACH   SFRSYM    DATA     BYTE      SMB0TC
      000000F2H   SFRSYM    DATA     BYTE      P1MDIN
      000000C0H.4 SFRSYM    DATA     BIT       SMB0CN0_STO
      000000FEH   SFRSYM    DATA     BYTE      P0MASK
      000000EEH   SFRSYM    DATA     BYTE      P1MASK
      000000D0H.3 SFRSYM    DATA     BIT       PSW_RS0
      000000D8H.7 SFRSYM    DATA     BIT       PCA0CN0_CF
      0000009EH   SFRSYM    DATA     BYTE      PCA0CENT
      000000F8H.4 SFRSYM    DATA     BIT       SPI0CN0_RXOVRN
      000000D0H.4 SFRSYM    DATA     BIT       PSW_RS1
      000000E8H.7 SFRSYM    DATA     BIT       ADC0CN0_ADEN
      00000089H   SFRSYM    DATA     BYTE      TMOD
      00000088H   SFRSYM    DATA     BYTE      TCON
      000000CFH   SFRSYM    DATA     BYTE      CRC0FLIP
      000000D0H.0 SFRSYM    DATA     BIT       PSW_PARITY
      000000A8H.4 SFRSYM    DATA     BIT       IE_ES0
      0000009FH   SFRSYM    DATA     BYTE      CMP0MX
      000000A8H.1 SFRSYM    DATA     BIT       IE_ET0
      000000AAH   SFRSYM    DATA     BYTE      CMP1MX
      000000A8H.3 SFRSYM    DATA     BIT       IE_ET1
      000000D4H   SFRSYM    DATA     BYTE      P0SKIP
      000000A8H.5 SFRSYM    DATA     BIT       IE_ET2
      000000D5H   SFRSYM    DATA     BYTE      P1SKIP
      000000E8H   SFRSYM    DATA     BYTE      ADC0CN0
LX51 LINKER/LOCATER V4.66.97.0                                                        01/16/2024  00:35:35  PAGE 14


      000000A8H.0 SFRSYM    DATA     BIT       IE_EX0
      000000B2H   SFRSYM    DATA     BYTE      ADC0CN1
      000000D8H.6 SFRSYM    DATA     BIT       PCA0CN0_CR
      000000A8H.2 SFRSYM    DATA     BIT       IE_EX1
      00000098H.7 SFRSYM    DATA     BIT       SCON0_SMODE
      000000B5H   SFRSYM    DATA     BYTE      DEVICEID
      000000A9H   SFRSYM    DATA     BYTE      CLKSEL
      000000F8H.0 SFRSYM    DATA     BIT       SPI0CN0_SPIEN
      000000F0H   SFRSYM    DATA     BYTE      B
      000000BEH   SFRSYM    DATA     BYTE      ADC0H
      000000D2H   SFRSYM    DATA     BYTE      CRC0AUTO
      000000E8H.6 SFRSYM    DATA     BIT       ADC0CN0_ADBMEN
      000000CAH   SFRSYM    DATA     WORD      TMR2RL
      000000BDH   SFRSYM    DATA     BYTE      ADC0L
      00000092H   SFRSYM    DATA     WORD      TMR3RL
      000000D8H   SFRSYM    DATA     BYTE      PCA0CN0
      000000E0H   SFRSYM    DATA     BYTE      ACC
      000000FBH   SFRSYM    DATA     WORD      PCA0CP0
      000000E9H   SFRSYM    DATA     WORD      PCA0CP1
      000000EBH   SFRSYM    DATA     WORD      PCA0CP2
      000000CEH   SFRSYM    DATA     BYTE      CRC0CN0
      0000008CH   SFRSYM    DATA     BYTE      TH0
      000000B8H.4 SFRSYM    DATA     BIT       IP_PS0
      0000008DH   SFRSYM    DATA     BYTE      TH1
      000000FAH   SFRSYM    DATA     BYTE      PCA0H
      000000B8H.1 SFRSYM    DATA     BIT       IP_PT0
      000000B8H.3 SFRSYM    DATA     BIT       IP_PT1
      000000C0H.2 SFRSYM    DATA     BIT       SMB0CN0_ARBLOST
      000000B8H.5 SFRSYM    DATA     BIT       IP_PT2
      0000008AH   SFRSYM    DATA     BYTE      TL0
      000000F8H.1 SFRSYM    DATA     BIT       SPI0CN0_TXBMT
      000000D0H.5 SFRSYM    DATA     BIT       PSW_F0
      000000A8H.6 SFRSYM    DATA     BIT       IE_ESPI0
      0000008BH   SFRSYM    DATA     BYTE      TL1
      000000F9H   SFRSYM    DATA     BYTE      PCA0L
      000000C0H.0 SFRSYM    DATA     BIT       SMB0CN0_SI
      000000D0H.1 SFRSYM    DATA     BIT       PSW_F1
      00000080H.0 SFRSYM    DATA     BIT       P0_B0
      000000B8H.0 SFRSYM    DATA     BIT       IP_PX0
      00000090H.0 SFRSYM    DATA     BIT       P1_B0
      00000080H.1 SFRSYM    DATA     BIT       P0_B1
      000000B8H.2 SFRSYM    DATA     BIT       IP_PX1
      0000009BH   SFRSYM    DATA     BYTE      CMP0CN0
      00000088H.1 SFRSYM    DATA     BIT       TCON_IE0
      000000A0H.0 SFRSYM    DATA     BIT       P2_B0
      00000090H.1 SFRSYM    DATA     BIT       P1_B1
      00000080H.2 SFRSYM    DATA     BIT       P0_B2
      000000BFH   SFRSYM    DATA     BYTE      CMP1CN0
      00000088H.3 SFRSYM    DATA     BIT       TCON_IE1
      000000A0H.1 SFRSYM    DATA     BIT       P2_B1
      00000090H.2 SFRSYM    DATA     BIT       P1_B2
      00000080H.3 SFRSYM    DATA     BIT       P0_B3
      000000C0H   SFRSYM    DATA     BYTE      SMB0CN0
      00000090H.3 SFRSYM    DATA     BIT       P1_B3
      00000080H.4 SFRSYM    DATA     BIT       P0_B4
      00000090H.4 SFRSYM    DATA     BIT       P1_B4
      00000080H.5 SFRSYM    DATA     BIT       P0_B5
      00000090H.5 SFRSYM    DATA     BIT       P1_B5
      00000080H.6 SFRSYM    DATA     BIT       P0_B6
      00000090H.6 SFRSYM    DATA     BIT       P1_B6
      00000080H.7 SFRSYM    DATA     BIT       P0_B7
      00000090H.7 SFRSYM    DATA     BIT       P1_B7
LX51 LINKER/LOCATER V4.66.97.0                                                        01/16/2024  00:35:35  PAGE 15


      00000083H   SFRSYM    DATA     BYTE      DPH
      000000C4H   SFRSYM    DATA     BYTE      ADC0GTH
      000000C8H.7 SFRSYM    DATA     BIT       TMR2CN0_TF2H
      000000C8H.3 SFRSYM    DATA     BIT       TMR2CN0_T2SPLIT
      000000D0H.6 SFRSYM    DATA     BIT       PSW_AC
      000000F8H   SFRSYM    DATA     BYTE      SPI0CN0
      000000C7H   SFRSYM    DATA     BYTE      HFO0CAL
      00000088H.5 SFRSYM    DATA     BIT       TCON_TF0
      00000098H.0 SFRSYM    DATA     BIT       SCON0_RI
      00000082H   SFRSYM    DATA     BYTE      DPL
      00000088H.7 SFRSYM    DATA     BIT       TCON_TF1
      00000099H   SFRSYM    DATA     BYTE      SBUF0
      00000087H   SFRSYM    DATA     BYTE      PCON0
      000000C3H   SFRSYM    DATA     BYTE      ADC0GTL
      000000C8H.6 SFRSYM    DATA     BIT       TMR2CN0_TF2L
      00000098H.1 SFRSYM    DATA     BIT       SCON0_TI
      000000E8H.0 SFRSYM    DATA     BIT       ADC0CN0_ADCM0
      000000C6H   SFRSYM    DATA     BYTE      ADC0LTH
      00000088H.0 SFRSYM    DATA     BIT       TCON_IT0
      000000E8H.1 SFRSYM    DATA     BIT       ADC0CN0_ADCM1
      000000EFH   SFRSYM    DATA     BYTE      RSTSRC
      000000FDH   SFRSYM    DATA     BYTE      P0MAT
      000000DEH   SFRSYM    DATA     BYTE      CRC0DAT
      00000088H.2 SFRSYM    DATA     BIT       TCON_IT1
      000000E8H.2 SFRSYM    DATA     BIT       ADC0CN0_ADCM2
      00000098H   SFRSYM    DATA     BYTE      SCON0
      000000F6H   SFRSYM    DATA     BYTE      PRTDRV
      000000EDH   SFRSYM    DATA     BYTE      P1MAT
      000000E8H.3 SFRSYM    DATA     BIT       ADC0CN0_ADWINT
      000000E8H.4 SFRSYM    DATA     BIT       ADC0CN0_ADBUSY
      000000D6H   SFRSYM    DATA     BYTE      SMB0ADM
      000000C5H   SFRSYM    DATA     BYTE      ADC0LTL
      000000F8H.5 SFRSYM    DATA     BIT       SPI0CN0_MODF
      000000B8H.6 SFRSYM    DATA     BIT       IP_PSPI0
      0000009CH   SFRSYM    DATA     BYTE      PCA0CLR
      000000C8H   SFRSYM    DATA     BYTE      TMR2CN0
      00000091H   SFRSYM    DATA     BYTE      TMR3CN0
      000000D7H   SFRSYM    DATA     BYTE      SMB0ADR
      00000088H.4 SFRSYM    DATA     BIT       TCON_TR0
      000000C8H.4 SFRSYM    DATA     BIT       TMR2CN0_TF2CEN
      00000088H.6 SFRSYM    DATA     BIT       TCON_TR1
      000000C2H   SFRSYM    DATA     BYTE      SMB0DAT
      000000CDH   SFRSYM    DATA     BYTE      TMR2H
      000000A1H   SFRSYM    DATA     BYTE      SPI0CFG
      00000095H   SFRSYM    DATA     BYTE      TMR3H
      000000D3H   SFRSYM    DATA     BYTE      CRC0CNT
      00000096H   SFRSYM    DATA     BYTE      PCA0POL
      000000CCH   SFRSYM    DATA     BYTE      TMR2L
      000000F8H.7 SFRSYM    DATA     BIT       SPI0CN0_SPIF
      00000094H   SFRSYM    DATA     BYTE      TMR3L
      000000DFH   SFRSYM    DATA     BYTE      ADC0PWR
      000000A8H.7 SFRSYM    DATA     BIT       IE_EA
      000000C8H.5 SFRSYM    DATA     BIT       TMR2CN0_TF2LEN
      000000F8H.6 SFRSYM    DATA     BIT       SPI0CN0_WCOL
      000000F8H.2 SFRSYM    DATA     BIT       SPI0CN0_NSSMD0
      000000D0H.7 SFRSYM    DATA     BIT       PSW_CY
      000000A3H   SFRSYM    DATA     BYTE      SPI0DAT
      000000F8H.3 SFRSYM    DATA     BIT       SPI0CN0_NSSMD1
      000000BDH   SFRSYM    DATA     WORD      ADC0
      000000D0H   SFRSYM    DATA     BYTE      PSW
      000000F7H   SFRSYM    DATA     BYTE      PCA0PWM
      000000B6H   SFRSYM    DATA     BYTE      REVID
LX51 LINKER/LOCATER V4.66.97.0                                                        01/16/2024  00:35:35  PAGE 16


      000000B7H   SFRSYM    DATA     BYTE      FLKEY
      000000B3H   SFRSYM    DATA     BYTE      ADC0AC
      00000020H.0 SYMBOL    BIT      BIT       useNss
      0000001AH   SYMBOL    DATA     BYTE      rxCountRemaining
      00000020H.1 SYMBOL    BIT      BIT       useRx
      0000001BH   SYMBOL    DATA     BYTE      txCountRemaining
      00000020H.2 SYMBOL    BIT      BIT       useTx
      0000001CH   SYMBOL    DATA     BYTE      bytesRemaining
      00000020H.3 SYMBOL    BIT      BIT       modeIsMaster
      0000001DH   SYMBOL    DATA     ---       pRxBuf
      0000001EH   SYMBOL    DATA     ---       pTxBuf
      00000020H.4 SYMBOL    BIT      BIT       initIsValid
      010003C9H   SYMBOL    CODE     ---       SPI0_internalInit

      010003C9H   BLOCK     CODE     ---       LVL=0
      010003C9H   LINE      CODE     ---       #27
      010003C9H   LINE      CODE     ---       #28
      010003C9H   LINE      CODE     ---       #30
      010003CFH   LINE      CODE     ---       #31
      010003D7H   LINE      CODE     ---       #34
      010003D9H   LINE      CODE     ---       #35
      ---         BLOCKEND  ---      ---       LVL=0
      00000007H   SYMBOL    DATA     BYTE      value
      00000007H   SYMBOL    DATA     BYTE      value
      00000007H   SYMBOL    DATA     ---       pTxBuffer
      00000005H   SYMBOL    DATA     ---       pRxBuffer
      00000003H   SYMBOL    DATA     BYTE      dir
      00000006H   SYMBOL    DATA     BYTE      txCount
      00000007H   SYMBOL    DATA     BYTE      count
      00000007H   SYMBOL    DATA     BYTE      clockMode
      00000006H   SYMBOL    DATA     WORD      divider

      01000254H   BLOCK     CODE     ---       LVL=0
      00000007H   SYMBOL    DATA     ---       pTxBuffer
      00000005H   SYMBOL    DATA     ---       pRxBuffer
      00000003H   SYMBOL    DATA     BYTE      dir
      0000002EH   SYMBOL    DATA     BYTE      xferCount
      01000270H   BLOCK     CODE     NEAR LAB  LVL=1
      0000002FH   SYMBOL    DATA     BYTE      dummy
      ---         BLOCKEND  ---      ---       LVL=1
      01000254H   LINE      CODE     ---       #297
      01000254H   LINE      CODE     ---       #303
      01000254H   LINE      CODE     ---       #304
      01000257H   LINE      CODE     ---       #305
      0100025AH   LINE      CODE     ---       #306
      0100025DH   LINE      CODE     ---       #307
      0100025FH   LINE      CODE     ---       #308
      01000261H   LINE      CODE     ---       #309
      01000265H   LINE      CODE     ---       #310
      0100026AH   LINE      CODE     ---       #313
      0100026DH   LINE      CODE     ---       #314
      0100026DH   LINE      CODE     ---       #315
      01000270H   LINE      CODE     ---       #316
      01000270H   LINE      CODE     ---       #319
      01000270H   LINE      CODE     ---       #320
      01000273H   LINE      CODE     ---       #321
      01000273H   LINE      CODE     ---       #324
      01000276H   LINE      CODE     ---       #327
      0100027CH   LINE      CODE     ---       #328
      0100027CH   LINE      CODE     ---       #329
      0100027EH   LINE      CODE     ---       #330
      0100027EH   LINE      CODE     ---       #334
LX51 LINKER/LOCATER V4.66.97.0                                                        01/16/2024  00:35:35  PAGE 17


      01000285H   LINE      CODE     ---       #335
      01000285H   LINE      CODE     ---       #337
      01000288H   LINE      CODE     ---       #338
      01000288H   LINE      CODE     ---       #339
      0100028DH   LINE      CODE     ---       #340
      0100028FH   LINE      CODE     ---       #341
      01000291H   LINE      CODE     ---       #345
      01000291H   LINE      CODE     ---       #346
      01000294H   LINE      CODE     ---       #347
      01000294H   LINE      CODE     ---       #348
      01000296H   LINE      CODE     ---       #349
      01000296H   LINE      CODE     ---       #372
      ---         BLOCKEND  ---      ---       LVL=0

      0100016DH   BLOCK     CODE     ---       LVL=0
      0100018AH   BLOCK     CODE     NEAR LAB  LVL=1
      00000007H   SYMBOL    DATA     BYTE      intFlags
      010001A7H   BLOCK     CODE     NEAR LAB  LVL=2
      00000021H   SYMBOL    DATA     BYTE      dummy
      ---         BLOCKEND  ---      ---       LVL=2
      ---         BLOCKEND  ---      ---       LVL=1
      0100016DH   LINE      CODE     ---       #407
      0100018AH   LINE      CODE     ---       #412
      0100018FH   LINE      CODE     ---       #413
      01000194H   LINE      CODE     ---       #418
      01000198H   LINE      CODE     ---       #419
      01000198H   LINE      CODE     ---       #421
      0100019CH   LINE      CODE     ---       #422
      0100019CH   LINE      CODE     ---       #424
      0100019FH   LINE      CODE     ---       #425
      0100019FH   LINE      CODE     ---       #426
      010001A3H   LINE      CODE     ---       #427
      010001A5H   LINE      CODE     ---       #428
      010001A7H   LINE      CODE     ---       #432
      010001A7H   LINE      CODE     ---       #433
      010001AAH   LINE      CODE     ---       #434
      010001AAH   LINE      CODE     ---       #435
      010001ACH   LINE      CODE     ---       #439
      010001B0H   LINE      CODE     ---       #440
      010001B0H   LINE      CODE     ---       #442
      010001B6H   LINE      CODE     ---       #443
      010001B6H   LINE      CODE     ---       #444
      010001B8H   LINE      CODE     ---       #445
      010001B8H   LINE      CODE     ---       #447
      010001BBH   LINE      CODE     ---       #448
      010001BDH   LINE      CODE     ---       #453
      010001BDH   LINE      CODE     ---       #454
      010001C0H   LINE      CODE     ---       #455
      010001C0H   LINE      CODE     ---       #456
      010001C0H   LINE      CODE     ---       #460
      010001C7H   LINE      CODE     ---       #461
      010001C7H   LINE      CODE     ---       #463
      010001CAH   LINE      CODE     ---       #464
      010001CAH   LINE      CODE     ---       #465
      010001CFH   LINE      CODE     ---       #466
      010001D1H   LINE      CODE     ---       #467
      010001D3H   LINE      CODE     ---       #471
      010001D3H   LINE      CODE     ---       #472
      010001D6H   LINE      CODE     ---       #473
      010001D6H   LINE      CODE     ---       #474
      010001D8H   LINE      CODE     ---       #475
      010001D8H   LINE      CODE     ---       #476
LX51 LINKER/LOCATER V4.66.97.0                                                        01/16/2024  00:35:35  PAGE 18


      010001D8H   LINE      CODE     ---       #488
      ---         BLOCKEND  ---      ---       LVL=0

      ---         MODULE    ---      ---       16X2_LCD_DISPLAY
      0100043AH   PUBLIC    CODE     ---       Begin_1stline
      01000435H   PUBLIC    CODE     ---       Clear_display
      01000003H   PUBLIC    CODE     ---       lcd_init
      010003E9H   PUBLIC    CODE     ---       _lcd_data
      010003DAH   PUBLIC    CODE     ---       _lcd_cmd
      010002B5H   PUBLIC    CODE     ---       _delay
      000000A2H   SFRSYM    DATA     BYTE      SPI0CKR
      00000080H   SFRSYM    DATA     BYTE      P0
      000000D0H.2 SFRSYM    DATA     BIT       PSW_OV
      00000090H   SFRSYM    DATA     BYTE      P1
      00000097H   SFRSYM    DATA     BYTE      WDTCN
      000000A0H   SFRSYM    DATA     BYTE      P2
      000000BCH   SFRSYM    DATA     BYTE      ADC0CF
      000000C8H.0 SFRSYM    DATA     BIT       TMR2CN0_T2XCLK
      000000C0H.7 SFRSYM    DATA     BIT       SMB0CN0_MASTER
      000000F9H   SFRSYM    DATA     WORD      PCA0
      000000E6H   SFRSYM    DATA     BYTE      EIE1
      000000C0H.1 SFRSYM    DATA     BIT       SMB0CN0_ACK
      0000008FH   SFRSYM    DATA     BYTE      PSCTL
      000000E4H   SFRSYM    DATA     BYTE      IT01CF
      000000C0H.6 SFRSYM    DATA     BIT       SMB0CN0_TXMODE
      000000ADH   SFRSYM    DATA     BYTE      DERIVID
      000000A4H   SFRSYM    DATA     BYTE      P0MDOUT
      000000A5H   SFRSYM    DATA     BYTE      P1MDOUT
      000000E8H.5 SFRSYM    DATA     BIT       ADC0CN0_ADINT
      000000CBH   SFRSYM    DATA     BYTE      TMR2RLH
      000000A6H   SFRSYM    DATA     BYTE      P2MDOUT
      000000A8H   SFRSYM    DATA     BYTE      IE
      00000093H   SFRSYM    DATA     BYTE      TMR3RLH
      000000F3H   SFRSYM    DATA     BYTE      EIP1
      00000098H.2 SFRSYM    DATA     BIT       SCON0_RB8
      000000CAH   SFRSYM    DATA     BYTE      TMR2RLL
      000000FCH   SFRSYM    DATA     BYTE      PCA0CPH0
      00000080H.0 SFRSYM    DATA     BIT       EN
      00000092H   SFRSYM    DATA     BYTE      TMR3RLL
      000000EAH   SFRSYM    DATA     BYTE      PCA0CPH1
      00000098H.3 SFRSYM    DATA     BIT       SCON0_TB8
      000000F0H.0 SFRSYM    DATA     BIT       B_B0
      00000082H   SFRSYM    DATA     WORD      DP
      000000ECH   SFRSYM    DATA     BYTE      PCA0CPH2
      000000F0H.1 SFRSYM    DATA     BIT       B_B1
      000000C3H   SFRSYM    DATA     WORD      ADC0GT
      000000F0H.2 SFRSYM    DATA     BIT       B_B2
      000000FBH   SFRSYM    DATA     BYTE      PCA0CPL0
      000000F0H.3 SFRSYM    DATA     BIT       B_B3
      000000D9H   SFRSYM    DATA     BYTE      PCA0MD
      000000DAH   SFRSYM    DATA     BYTE      PCA0CPM0
      000000E9H   SFRSYM    DATA     BYTE      PCA0CPL1
      000000F0H.4 SFRSYM    DATA     BIT       B_B4
      000000DBH   SFRSYM    DATA     BYTE      PCA0CPM1
      000000EBH   SFRSYM    DATA     BYTE      PCA0CPL2
      000000F0H.5 SFRSYM    DATA     BIT       B_B5
      000000DCH   SFRSYM    DATA     BYTE      PCA0CPM2
      000000B8H   SFRSYM    DATA     BYTE      IP
      000000B9H   SFRSYM    DATA     BYTE      ADC0TK
      000000F0H.6 SFRSYM    DATA     BIT       B_B6
      000000C5H   SFRSYM    DATA     WORD      ADC0LT
      00000098H.5 SFRSYM    DATA     BIT       SCON0_MCE
LX51 LINKER/LOCATER V4.66.97.0                                                        01/16/2024  00:35:35  PAGE 19


      000000F0H.7 SFRSYM    DATA     BIT       B_B7
      000000E1H   SFRSYM    DATA     BYTE      XBR0
      000000C1H   SFRSYM    DATA     BYTE      SMB0CF
      000000E2H   SFRSYM    DATA     BYTE      XBR1
      000000C0H.5 SFRSYM    DATA     BIT       SMB0CN0_STA
      000000E3H   SFRSYM    DATA     BYTE      XBR2
      000000BBH   SFRSYM    DATA     BYTE      ADC0MX
      000000E0H.0 SFRSYM    DATA     BIT       ACC_ACC0
      000000D1H   SFRSYM    DATA     BYTE      REF0CN
      0000008EH   SFRSYM    DATA     BYTE      CKCON0
      000000E0H.1 SFRSYM    DATA     BIT       ACC_ACC1
      000000C9H   SFRSYM    DATA     BYTE      REG0CN
      000000DDH   SFRSYM    DATA     BYTE      CRC0IN
      000000C8H.2 SFRSYM    DATA     BIT       TMR2CN0_TR2
      000000E0H.2 SFRSYM    DATA     BIT       ACC_ACC2
      000000E0H.3 SFRSYM    DATA     BIT       ACC_ACC3
      00000081H   SFRSYM    DATA     BYTE      SP
      0000009DH   SFRSYM    DATA     BYTE      CMP0MD
      000000E0H.4 SFRSYM    DATA     BIT       ACC_ACC4
      000000B1H   SFRSYM    DATA     BYTE      LFO0CN
      000000ABH   SFRSYM    DATA     BYTE      CMP1MD
      00000080H.1 SFRSYM    DATA     BIT       RS
      000000D8H.0 SFRSYM    DATA     BIT       PCA0CN0_CCF0
      000000E0H.5 SFRSYM    DATA     BIT       ACC_ACC5
      000000D8H.1 SFRSYM    DATA     BIT       PCA0CN0_CCF1
      000000E0H.6 SFRSYM    DATA     BIT       ACC_ACC6
      000000CCH   SFRSYM    DATA     WORD      TMR2
      000000D8H.2 SFRSYM    DATA     BIT       PCA0CN0_CCF2
      000000E0H.7 SFRSYM    DATA     BIT       ACC_ACC7
      00000094H   SFRSYM    DATA     WORD      TMR3
      000000C0H.3 SFRSYM    DATA     BIT       SMB0CN0_ACKRQ
      000000FFH   SFRSYM    DATA     BYTE      VDM0CN
      000000F1H   SFRSYM    DATA     BYTE      P0MDIN
      00000098H.4 SFRSYM    DATA     BIT       SCON0_REN
      000000ACH   SFRSYM    DATA     BYTE      SMB0TC
      000000F2H   SFRSYM    DATA     BYTE      P1MDIN
      000000C0H.4 SFRSYM    DATA     BIT       SMB0CN0_STO
      000000FEH   SFRSYM    DATA     BYTE      P0MASK
      000000EEH   SFRSYM    DATA     BYTE      P1MASK
      000000D0H.3 SFRSYM    DATA     BIT       PSW_RS0
      000000D8H.7 SFRSYM    DATA     BIT       PCA0CN0_CF
      0000009EH   SFRSYM    DATA     BYTE      PCA0CENT
      000000F8H.4 SFRSYM    DATA     BIT       SPI0CN0_RXOVRN
      000000D0H.4 SFRSYM    DATA     BIT       PSW_RS1
      000000E8H.7 SFRSYM    DATA     BIT       ADC0CN0_ADEN
      00000089H   SFRSYM    DATA     BYTE      TMOD
      00000088H   SFRSYM    DATA     BYTE      TCON
      000000CFH   SFRSYM    DATA     BYTE      CRC0FLIP
      000000D0H.0 SFRSYM    DATA     BIT       PSW_PARITY
      000000A8H.4 SFRSYM    DATA     BIT       IE_ES0
      0000009FH   SFRSYM    DATA     BYTE      CMP0MX
      000000A8H.1 SFRSYM    DATA     BIT       IE_ET0
      000000AAH   SFRSYM    DATA     BYTE      CMP1MX
      000000A8H.3 SFRSYM    DATA     BIT       IE_ET1
      000000D4H   SFRSYM    DATA     BYTE      P0SKIP
      000000A8H.5 SFRSYM    DATA     BIT       IE_ET2
      000000D5H   SFRSYM    DATA     BYTE      P1SKIP
      000000E8H   SFRSYM    DATA     BYTE      ADC0CN0
      000000A8H.0 SFRSYM    DATA     BIT       IE_EX0
      000000B2H   SFRSYM    DATA     BYTE      ADC0CN1
      000000D8H.6 SFRSYM    DATA     BIT       PCA0CN0_CR
      000000A8H.2 SFRSYM    DATA     BIT       IE_EX1
LX51 LINKER/LOCATER V4.66.97.0                                                        01/16/2024  00:35:35  PAGE 20


      00000098H.7 SFRSYM    DATA     BIT       SCON0_SMODE
      000000B5H   SFRSYM    DATA     BYTE      DEVICEID
      000000A9H   SFRSYM    DATA     BYTE      CLKSEL
      000000F8H.0 SFRSYM    DATA     BIT       SPI0CN0_SPIEN
      000000F0H   SFRSYM    DATA     BYTE      B
      000000BEH   SFRSYM    DATA     BYTE      ADC0H
      000000D2H   SFRSYM    DATA     BYTE      CRC0AUTO
      000000E8H.6 SFRSYM    DATA     BIT       ADC0CN0_ADBMEN
      000000CAH   SFRSYM    DATA     WORD      TMR2RL
      000000BDH   SFRSYM    DATA     BYTE      ADC0L
      00000092H   SFRSYM    DATA     WORD      TMR3RL
      000000D8H   SFRSYM    DATA     BYTE      PCA0CN0
      000000E0H   SFRSYM    DATA     BYTE      ACC
      000000FBH   SFRSYM    DATA     WORD      PCA0CP0
      000000E9H   SFRSYM    DATA     WORD      PCA0CP1
      000000EBH   SFRSYM    DATA     WORD      PCA0CP2
      000000CEH   SFRSYM    DATA     BYTE      CRC0CN0
      0000008CH   SFRSYM    DATA     BYTE      TH0
      000000B8H.4 SFRSYM    DATA     BIT       IP_PS0
      0000008DH   SFRSYM    DATA     BYTE      TH1
      000000FAH   SFRSYM    DATA     BYTE      PCA0H
      000000B8H.1 SFRSYM    DATA     BIT       IP_PT0
      000000B8H.3 SFRSYM    DATA     BIT       IP_PT1
      000000C0H.2 SFRSYM    DATA     BIT       SMB0CN0_ARBLOST
      000000B8H.5 SFRSYM    DATA     BIT       IP_PT2
      0000008AH   SFRSYM    DATA     BYTE      TL0
      000000F8H.1 SFRSYM    DATA     BIT       SPI0CN0_TXBMT
      000000D0H.5 SFRSYM    DATA     BIT       PSW_F0
      000000A8H.6 SFRSYM    DATA     BIT       IE_ESPI0
      0000008BH   SFRSYM    DATA     BYTE      TL1
      000000F9H   SFRSYM    DATA     BYTE      PCA0L
      000000C0H.0 SFRSYM    DATA     BIT       SMB0CN0_SI
      000000D0H.1 SFRSYM    DATA     BIT       PSW_F1
      00000080H.0 SFRSYM    DATA     BIT       P0_B0
      000000B8H.0 SFRSYM    DATA     BIT       IP_PX0
      00000090H.0 SFRSYM    DATA     BIT       P1_B0
      00000080H.1 SFRSYM    DATA     BIT       P0_B1
      000000B8H.2 SFRSYM    DATA     BIT       IP_PX1
      0000009BH   SFRSYM    DATA     BYTE      CMP0CN0
      00000088H.1 SFRSYM    DATA     BIT       TCON_IE0
      000000A0H.0 SFRSYM    DATA     BIT       P2_B0
      00000090H.1 SFRSYM    DATA     BIT       P1_B1
      00000080H.2 SFRSYM    DATA     BIT       P0_B2
      000000BFH   SFRSYM    DATA     BYTE      CMP1CN0
      00000088H.3 SFRSYM    DATA     BIT       TCON_IE1
      000000A0H.1 SFRSYM    DATA     BIT       P2_B1
      00000090H.2 SFRSYM    DATA     BIT       P1_B2
      00000080H.3 SFRSYM    DATA     BIT       P0_B3
      000000C0H   SFRSYM    DATA     BYTE      SMB0CN0
      00000090H.3 SFRSYM    DATA     BIT       P1_B3
      00000080H.4 SFRSYM    DATA     BIT       P0_B4
      00000090H.4 SFRSYM    DATA     BIT       P1_B4
      00000080H.5 SFRSYM    DATA     BIT       P0_B5
      00000090H.5 SFRSYM    DATA     BIT       P1_B5
      00000080H.6 SFRSYM    DATA     BIT       P0_B6
      00000090H.6 SFRSYM    DATA     BIT       P1_B6
      00000080H.7 SFRSYM    DATA     BIT       P0_B7
      00000090H.7 SFRSYM    DATA     BIT       P1_B7
      00000083H   SFRSYM    DATA     BYTE      DPH
      000000C4H   SFRSYM    DATA     BYTE      ADC0GTH
      000000C8H.7 SFRSYM    DATA     BIT       TMR2CN0_TF2H
      000000C8H.3 SFRSYM    DATA     BIT       TMR2CN0_T2SPLIT
LX51 LINKER/LOCATER V4.66.97.0                                                        01/16/2024  00:35:35  PAGE 21


      000000D0H.6 SFRSYM    DATA     BIT       PSW_AC
      000000F8H   SFRSYM    DATA     BYTE      SPI0CN0
      000000C7H   SFRSYM    DATA     BYTE      HFO0CAL
      00000088H.5 SFRSYM    DATA     BIT       TCON_TF0
      00000098H.0 SFRSYM    DATA     BIT       SCON0_RI
      00000082H   SFRSYM    DATA     BYTE      DPL
      00000088H.7 SFRSYM    DATA     BIT       TCON_TF1
      00000099H   SFRSYM    DATA     BYTE      SBUF0
      00000087H   SFRSYM    DATA     BYTE      PCON0
      000000C3H   SFRSYM    DATA     BYTE      ADC0GTL
      000000C8H.6 SFRSYM    DATA     BIT       TMR2CN0_TF2L
      00000098H.1 SFRSYM    DATA     BIT       SCON0_TI
      000000E8H.0 SFRSYM    DATA     BIT       ADC0CN0_ADCM0
      000000C6H   SFRSYM    DATA     BYTE      ADC0LTH
      00000088H.0 SFRSYM    DATA     BIT       TCON_IT0
      000000E8H.1 SFRSYM    DATA     BIT       ADC0CN0_ADCM1
      000000EFH   SFRSYM    DATA     BYTE      RSTSRC
      000000FDH   SFRSYM    DATA     BYTE      P0MAT
      000000DEH   SFRSYM    DATA     BYTE      CRC0DAT
      00000088H.2 SFRSYM    DATA     BIT       TCON_IT1
      000000E8H.2 SFRSYM    DATA     BIT       ADC0CN0_ADCM2
      00000098H   SFRSYM    DATA     BYTE      SCON0
      000000F6H   SFRSYM    DATA     BYTE      PRTDRV
      000000EDH   SFRSYM    DATA     BYTE      P1MAT
      000000E8H.3 SFRSYM    DATA     BIT       ADC0CN0_ADWINT
      000000E8H.4 SFRSYM    DATA     BIT       ADC0CN0_ADBUSY
      000000D6H   SFRSYM    DATA     BYTE      SMB0ADM
      000000C5H   SFRSYM    DATA     BYTE      ADC0LTL
      000000F8H.5 SFRSYM    DATA     BIT       SPI0CN0_MODF
      000000B8H.6 SFRSYM    DATA     BIT       IP_PSPI0
      0000009CH   SFRSYM    DATA     BYTE      PCA0CLR
      000000C8H   SFRSYM    DATA     BYTE      TMR2CN0
      00000091H   SFRSYM    DATA     BYTE      TMR3CN0
      000000D7H   SFRSYM    DATA     BYTE      SMB0ADR
      00000088H.4 SFRSYM    DATA     BIT       TCON_TR0
      000000C8H.4 SFRSYM    DATA     BIT       TMR2CN0_TF2CEN
      00000088H.6 SFRSYM    DATA     BIT       TCON_TR1
      000000C2H   SFRSYM    DATA     BYTE      SMB0DAT
      000000CDH   SFRSYM    DATA     BYTE      TMR2H
      000000A1H   SFRSYM    DATA     BYTE      SPI0CFG
      00000095H   SFRSYM    DATA     BYTE      TMR3H
      000000D3H   SFRSYM    DATA     BYTE      CRC0CNT
      00000096H   SFRSYM    DATA     BYTE      PCA0POL
      000000CCH   SFRSYM    DATA     BYTE      TMR2L
      000000F8H.7 SFRSYM    DATA     BIT       SPI0CN0_SPIF
      00000094H   SFRSYM    DATA     BYTE      TMR3L
      000000DFH   SFRSYM    DATA     BYTE      ADC0PWR
      000000A8H.7 SFRSYM    DATA     BIT       IE_EA
      000000C8H.5 SFRSYM    DATA     BIT       TMR2CN0_TF2LEN
      000000F8H.6 SFRSYM    DATA     BIT       SPI0CN0_WCOL
      000000F8H.2 SFRSYM    DATA     BIT       SPI0CN0_NSSMD0
      000000D0H.7 SFRSYM    DATA     BIT       PSW_CY
      000000A3H   SFRSYM    DATA     BYTE      SPI0DAT
      000000F8H.3 SFRSYM    DATA     BIT       SPI0CN0_NSSMD1
      000000BDH   SFRSYM    DATA     WORD      ADC0
      000000D0H   SFRSYM    DATA     BYTE      PSW
      000000F7H   SFRSYM    DATA     BYTE      PCA0PWM
      000000B6H   SFRSYM    DATA     BYTE      REVID
      000000B7H   SFRSYM    DATA     BYTE      FLKEY
      000000B3H   SFRSYM    DATA     BYTE      ADC0AC

      01000297H   BLOCK     CODE     ---       LVL=0
LX51 LINKER/LOCATER V4.66.97.0                                                        01/16/2024  00:35:35  PAGE 22


      ---         BLOCKEND  ---      ---       LVL=0

      010002B5H   BLOCK     CODE     ---       LVL=0
      00000006H   SYMBOL    DATA     INT       time
      00000004H   SYMBOL    DATA     INT       i
      010002B5H   BLOCK     CODE     NEAR LAB  LVL=1
      00000004H   SYMBOL    DATA     INT       i
      ---         BLOCKEND  ---      ---       LVL=1
      010002B5H   LINE      CODE     ---       #28
      010002B5H   LINE      CODE     ---       #29
      010002B5H   LINE      CODE     ---       #31
      010002C5H   LINE      CODE     ---       #32
      010002C5H   LINE      CODE     ---       #33
      010002CCH   LINE      CODE     ---       #34
      ---         BLOCKEND  ---      ---       LVL=0

      010003DAH   BLOCK     CODE     ---       LVL=0
      00000003H   SYMBOL    DATA     BYTE      command
      010003DAH   LINE      CODE     ---       #43
      010003DCH   LINE      CODE     ---       #44
      010003DCH   LINE      CODE     ---       #45
      010003E1H   LINE      CODE     ---       #46
      010003E3H   LINE      CODE     ---       #48
      010003E3H   LINE      CODE     ---       #49
      010003E3H   LINE      CODE     ---       #50
      010003E3H   LINE      CODE     ---       #51
      010003E3H   LINE      CODE     ---       #52
      010003E3H   LINE      CODE     ---       #53
      010003E3H   LINE      CODE     ---       #54
      010003E6H   LINE      CODE     ---       #55
      010003E8H   LINE      CODE     ---       #56
      ---         BLOCKEND  ---      ---       LVL=0

      010003E9H   BLOCK     CODE     ---       LVL=0
      00000003H   SYMBOL    DATA     BYTE      disp_data
      010003E9H   LINE      CODE     ---       #65
      010003EBH   LINE      CODE     ---       #66
      010003EBH   LINE      CODE     ---       #67
      010003F0H   LINE      CODE     ---       #68
      010003F2H   LINE      CODE     ---       #70
      010003F2H   LINE      CODE     ---       #71
      010003F2H   LINE      CODE     ---       #72
      010003F2H   LINE      CODE     ---       #73
      010003F2H   LINE      CODE     ---       #74
      010003F2H   LINE      CODE     ---       #75
      010003F2H   LINE      CODE     ---       #76
      010003F5H   LINE      CODE     ---       #77
      010003F7H   LINE      CODE     ---       #78
      ---         BLOCKEND  ---      ---       LVL=0

      01000003H   BLOCK     CODE     ---       LVL=0
      01000003H   LINE      CODE     ---       #81
      01000003H   LINE      CODE     ---       #82
      01000003H   LINE      CODE     ---       #83
      01000008H   LINE      CODE     ---       #84
      0100000BH   LINE      CODE     ---       #85
      01000010H   LINE      CODE     ---       #86
      01000013H   LINE      CODE     ---       #87
      01000018H   LINE      CODE     ---       #88
      0100001BH   LINE      CODE     ---       #89
      01000020H   LINE      CODE     ---       #90
      01000023H   LINE      CODE     ---       #91
LX51 LINKER/LOCATER V4.66.97.0                                                        01/16/2024  00:35:35  PAGE 23


      01000028H   LINE      CODE     ---       #92
      ---         BLOCKEND  ---      ---       LVL=0

      01000435H   BLOCK     CODE     ---       LVL=0
      01000435H   LINE      CODE     ---       #120
      01000435H   LINE      CODE     ---       #121
      ---         BLOCKEND  ---      ---       LVL=0

      0100043AH   BLOCK     CODE     ---       LVL=0
      0100043AH   LINE      CODE     ---       #132
      0100043AH   LINE      CODE     ---       #133
      ---         BLOCKEND  ---      ---       LVL=0

      ---         MODULE    ---      ---       INITDEVICE
      0100043FH   PUBLIC    CODE     ---       INTERRUPT_0_enter_DefaultMode_from_RESET
      01000407H   PUBLIC    CODE     ---       SPI_0_enter_DefaultMode_from_RESET
      0100002FH   PUBLIC    CODE     ---       CLOCK_0_enter_DefaultMode_from_RESET
      0100042EH   PUBLIC    CODE     ---       PBCFG_0_enter_DefaultMode_from_RESET
      01000427H   PUBLIC    CODE     ---       PORTS_1_enter_DefaultMode_from_RESET
      01000420H   PUBLIC    CODE     ---       PORTS_0_enter_DefaultMode_from_RESET
      01000419H   PUBLIC    CODE     ---       WDT_0_enter_DefaultMode_from_RESET
      010003B4H   PUBLIC    CODE     ---       enter_DefaultMode_from_RESET
      000000A2H   SFRSYM    DATA     BYTE      SPI0CKR
      00000080H   SFRSYM    DATA     BYTE      P0
      000000D0H.2 SFRSYM    DATA     BIT       PSW_OV
      00000090H   SFRSYM    DATA     BYTE      P1
      00000097H   SFRSYM    DATA     BYTE      WDTCN
      000000A0H   SFRSYM    DATA     BYTE      P2
      000000BCH   SFRSYM    DATA     BYTE      ADC0CF
      000000C8H.0 SFRSYM    DATA     BIT       TMR2CN0_T2XCLK
      000000C0H.7 SFRSYM    DATA     BIT       SMB0CN0_MASTER
      000000F9H   SFRSYM    DATA     WORD      PCA0
      000000E6H   SFRSYM    DATA     BYTE      EIE1
      000000C0H.1 SFRSYM    DATA     BIT       SMB0CN0_ACK
      0000008FH   SFRSYM    DATA     BYTE      PSCTL
      000000E4H   SFRSYM    DATA     BYTE      IT01CF
      000000C0H.6 SFRSYM    DATA     BIT       SMB0CN0_TXMODE
      000000ADH   SFRSYM    DATA     BYTE      DERIVID
      000000A4H   SFRSYM    DATA     BYTE      P0MDOUT
      000000A5H   SFRSYM    DATA     BYTE      P1MDOUT
      000000E8H.5 SFRSYM    DATA     BIT       ADC0CN0_ADINT
      000000CBH   SFRSYM    DATA     BYTE      TMR2RLH
      000000A6H   SFRSYM    DATA     BYTE      P2MDOUT
      000000A8H   SFRSYM    DATA     BYTE      IE
      00000093H   SFRSYM    DATA     BYTE      TMR3RLH
      000000F3H   SFRSYM    DATA     BYTE      EIP1
      00000098H.2 SFRSYM    DATA     BIT       SCON0_RB8
      000000CAH   SFRSYM    DATA     BYTE      TMR2RLL
      000000FCH   SFRSYM    DATA     BYTE      PCA0CPH0
      00000092H   SFRSYM    DATA     BYTE      TMR3RLL
      000000EAH   SFRSYM    DATA     BYTE      PCA0CPH1
      00000098H.3 SFRSYM    DATA     BIT       SCON0_TB8
      000000F0H.0 SFRSYM    DATA     BIT       B_B0
      00000082H   SFRSYM    DATA     WORD      DP
      000000ECH   SFRSYM    DATA     BYTE      PCA0CPH2
      000000F0H.1 SFRSYM    DATA     BIT       B_B1
      000000C3H   SFRSYM    DATA     WORD      ADC0GT
      000000F0H.2 SFRSYM    DATA     BIT       B_B2
      000000FBH   SFRSYM    DATA     BYTE      PCA0CPL0
      000000F0H.3 SFRSYM    DATA     BIT       B_B3
      000000D9H   SFRSYM    DATA     BYTE      PCA0MD
      000000DAH   SFRSYM    DATA     BYTE      PCA0CPM0
LX51 LINKER/LOCATER V4.66.97.0                                                        01/16/2024  00:35:35  PAGE 24


      000000E9H   SFRSYM    DATA     BYTE      PCA0CPL1
      000000F0H.4 SFRSYM    DATA     BIT       B_B4
      000000DBH   SFRSYM    DATA     BYTE      PCA0CPM1
      000000EBH   SFRSYM    DATA     BYTE      PCA0CPL2
      000000F0H.5 SFRSYM    DATA     BIT       B_B5
      000000DCH   SFRSYM    DATA     BYTE      PCA0CPM2
      000000B8H   SFRSYM    DATA     BYTE      IP
      000000B9H   SFRSYM    DATA     BYTE      ADC0TK
      000000F0H.6 SFRSYM    DATA     BIT       B_B6
      000000C5H   SFRSYM    DATA     WORD      ADC0LT
      00000098H.5 SFRSYM    DATA     BIT       SCON0_MCE
      000000F0H.7 SFRSYM    DATA     BIT       B_B7
      000000E1H   SFRSYM    DATA     BYTE      XBR0
      000000C1H   SFRSYM    DATA     BYTE      SMB0CF
      000000E2H   SFRSYM    DATA     BYTE      XBR1
      000000C0H.5 SFRSYM    DATA     BIT       SMB0CN0_STA
      000000E3H   SFRSYM    DATA     BYTE      XBR2
      000000BBH   SFRSYM    DATA     BYTE      ADC0MX
      000000E0H.0 SFRSYM    DATA     BIT       ACC_ACC0
      000000D1H   SFRSYM    DATA     BYTE      REF0CN
      0000008EH   SFRSYM    DATA     BYTE      CKCON0
      000000E0H.1 SFRSYM    DATA     BIT       ACC_ACC1
      000000C9H   SFRSYM    DATA     BYTE      REG0CN
      000000DDH   SFRSYM    DATA     BYTE      CRC0IN
      000000C8H.2 SFRSYM    DATA     BIT       TMR2CN0_TR2
      000000E0H.2 SFRSYM    DATA     BIT       ACC_ACC2
      000000E0H.3 SFRSYM    DATA     BIT       ACC_ACC3
      00000081H   SFRSYM    DATA     BYTE      SP
      0000009DH   SFRSYM    DATA     BYTE      CMP0MD
      000000E0H.4 SFRSYM    DATA     BIT       ACC_ACC4
      000000B1H   SFRSYM    DATA     BYTE      LFO0CN
      000000ABH   SFRSYM    DATA     BYTE      CMP1MD
      000000D8H.0 SFRSYM    DATA     BIT       PCA0CN0_CCF0
      000000E0H.5 SFRSYM    DATA     BIT       ACC_ACC5
      000000D8H.1 SFRSYM    DATA     BIT       PCA0CN0_CCF1
      000000E0H.6 SFRSYM    DATA     BIT       ACC_ACC6
      000000CCH   SFRSYM    DATA     WORD      TMR2
      000000D8H.2 SFRSYM    DATA     BIT       PCA0CN0_CCF2
      000000E0H.7 SFRSYM    DATA     BIT       ACC_ACC7
      00000094H   SFRSYM    DATA     WORD      TMR3
      000000C0H.3 SFRSYM    DATA     BIT       SMB0CN0_ACKRQ
      000000FFH   SFRSYM    DATA     BYTE      VDM0CN
      000000F1H   SFRSYM    DATA     BYTE      P0MDIN
      00000098H.4 SFRSYM    DATA     BIT       SCON0_REN
      000000ACH   SFRSYM    DATA     BYTE      SMB0TC
      000000F2H   SFRSYM    DATA     BYTE      P1MDIN
      000000C0H.4 SFRSYM    DATA     BIT       SMB0CN0_STO
      000000FEH   SFRSYM    DATA     BYTE      P0MASK
      000000EEH   SFRSYM    DATA     BYTE      P1MASK
      000000D0H.3 SFRSYM    DATA     BIT       PSW_RS0
      000000D8H.7 SFRSYM    DATA     BIT       PCA0CN0_CF
      0000009EH   SFRSYM    DATA     BYTE      PCA0CENT
      000000F8H.4 SFRSYM    DATA     BIT       SPI0CN0_RXOVRN
      000000D0H.4 SFRSYM    DATA     BIT       PSW_RS1
      000000E8H.7 SFRSYM    DATA     BIT       ADC0CN0_ADEN
      00000089H   SFRSYM    DATA     BYTE      TMOD
      00000088H   SFRSYM    DATA     BYTE      TCON
      000000CFH   SFRSYM    DATA     BYTE      CRC0FLIP
      000000D0H.0 SFRSYM    DATA     BIT       PSW_PARITY
      000000A8H.4 SFRSYM    DATA     BIT       IE_ES0
      0000009FH   SFRSYM    DATA     BYTE      CMP0MX
      000000A8H.1 SFRSYM    DATA     BIT       IE_ET0
LX51 LINKER/LOCATER V4.66.97.0                                                        01/16/2024  00:35:35  PAGE 25


      000000AAH   SFRSYM    DATA     BYTE      CMP1MX
      000000A8H.3 SFRSYM    DATA     BIT       IE_ET1
      000000D4H   SFRSYM    DATA     BYTE      P0SKIP
      000000A8H.5 SFRSYM    DATA     BIT       IE_ET2
      000000D5H   SFRSYM    DATA     BYTE      P1SKIP
      000000E8H   SFRSYM    DATA     BYTE      ADC0CN0
      000000A8H.0 SFRSYM    DATA     BIT       IE_EX0
      000000B2H   SFRSYM    DATA     BYTE      ADC0CN1
      000000D8H.6 SFRSYM    DATA     BIT       PCA0CN0_CR
      000000A8H.2 SFRSYM    DATA     BIT       IE_EX1
      00000098H.7 SFRSYM    DATA     BIT       SCON0_SMODE
      000000B5H   SFRSYM    DATA     BYTE      DEVICEID
      000000A9H   SFRSYM    DATA     BYTE      CLKSEL
      000000F8H.0 SFRSYM    DATA     BIT       SPI0CN0_SPIEN
      000000F0H   SFRSYM    DATA     BYTE      B
      000000BEH   SFRSYM    DATA     BYTE      ADC0H
      000000D2H   SFRSYM    DATA     BYTE      CRC0AUTO
      000000E8H.6 SFRSYM    DATA     BIT       ADC0CN0_ADBMEN
      000000CAH   SFRSYM    DATA     WORD      TMR2RL
      000000BDH   SFRSYM    DATA     BYTE      ADC0L
      00000092H   SFRSYM    DATA     WORD      TMR3RL
      000000D8H   SFRSYM    DATA     BYTE      PCA0CN0
      000000E0H   SFRSYM    DATA     BYTE      ACC
      000000FBH   SFRSYM    DATA     WORD      PCA0CP0
      000000E9H   SFRSYM    DATA     WORD      PCA0CP1
      000000EBH   SFRSYM    DATA     WORD      PCA0CP2
      000000CEH   SFRSYM    DATA     BYTE      CRC0CN0
      0000008CH   SFRSYM    DATA     BYTE      TH0
      000000B8H.4 SFRSYM    DATA     BIT       IP_PS0
      0000008DH   SFRSYM    DATA     BYTE      TH1
      000000FAH   SFRSYM    DATA     BYTE      PCA0H
      000000B8H.1 SFRSYM    DATA     BIT       IP_PT0
      000000B8H.3 SFRSYM    DATA     BIT       IP_PT1
      000000C0H.2 SFRSYM    DATA     BIT       SMB0CN0_ARBLOST
      000000B8H.5 SFRSYM    DATA     BIT       IP_PT2
      0000008AH   SFRSYM    DATA     BYTE      TL0
      000000F8H.1 SFRSYM    DATA     BIT       SPI0CN0_TXBMT
      000000D0H.5 SFRSYM    DATA     BIT       PSW_F0
      000000A8H.6 SFRSYM    DATA     BIT       IE_ESPI0
      0000008BH   SFRSYM    DATA     BYTE      TL1
      000000F9H   SFRSYM    DATA     BYTE      PCA0L
      000000C0H.0 SFRSYM    DATA     BIT       SMB0CN0_SI
      000000D0H.1 SFRSYM    DATA     BIT       PSW_F1
      00000080H.0 SFRSYM    DATA     BIT       P0_B0
      000000B8H.0 SFRSYM    DATA     BIT       IP_PX0
      00000090H.0 SFRSYM    DATA     BIT       P1_B0
      00000080H.1 SFRSYM    DATA     BIT       P0_B1
      000000B8H.2 SFRSYM    DATA     BIT       IP_PX1
      0000009BH   SFRSYM    DATA     BYTE      CMP0CN0
      00000088H.1 SFRSYM    DATA     BIT       TCON_IE0
      000000A0H.0 SFRSYM    DATA     BIT       P2_B0
      00000090H.1 SFRSYM    DATA     BIT       P1_B1
      00000080H.2 SFRSYM    DATA     BIT       P0_B2
      000000BFH   SFRSYM    DATA     BYTE      CMP1CN0
      00000088H.3 SFRSYM    DATA     BIT       TCON_IE1
      000000A0H.1 SFRSYM    DATA     BIT       P2_B1
      00000090H.2 SFRSYM    DATA     BIT       P1_B2
      00000080H.3 SFRSYM    DATA     BIT       P0_B3
      000000C0H   SFRSYM    DATA     BYTE      SMB0CN0
      00000090H.3 SFRSYM    DATA     BIT       P1_B3
      00000080H.4 SFRSYM    DATA     BIT       P0_B4
      00000090H.4 SFRSYM    DATA     BIT       P1_B4
LX51 LINKER/LOCATER V4.66.97.0                                                        01/16/2024  00:35:35  PAGE 26


      00000080H.5 SFRSYM    DATA     BIT       P0_B5
      00000090H.5 SFRSYM    DATA     BIT       P1_B5
      00000080H.6 SFRSYM    DATA     BIT       P0_B6
      00000090H.6 SFRSYM    DATA     BIT       P1_B6
      00000080H.7 SFRSYM    DATA     BIT       P0_B7
      00000090H.7 SFRSYM    DATA     BIT       P1_B7
      00000083H   SFRSYM    DATA     BYTE      DPH
      000000C4H   SFRSYM    DATA     BYTE      ADC0GTH
      000000C8H.7 SFRSYM    DATA     BIT       TMR2CN0_TF2H
      000000C8H.3 SFRSYM    DATA     BIT       TMR2CN0_T2SPLIT
      000000D0H.6 SFRSYM    DATA     BIT       PSW_AC
      000000F8H   SFRSYM    DATA     BYTE      SPI0CN0
      000000C7H   SFRSYM    DATA     BYTE      HFO0CAL
      00000088H.5 SFRSYM    DATA     BIT       TCON_TF0
      00000098H.0 SFRSYM    DATA     BIT       SCON0_RI
      00000082H   SFRSYM    DATA     BYTE      DPL
      00000088H.7 SFRSYM    DATA     BIT       TCON_TF1
      00000099H   SFRSYM    DATA     BYTE      SBUF0
      00000087H   SFRSYM    DATA     BYTE      PCON0
      000000C3H   SFRSYM    DATA     BYTE      ADC0GTL
      000000C8H.6 SFRSYM    DATA     BIT       TMR2CN0_TF2L
      00000098H.1 SFRSYM    DATA     BIT       SCON0_TI
      000000E8H.0 SFRSYM    DATA     BIT       ADC0CN0_ADCM0
      000000C6H   SFRSYM    DATA     BYTE      ADC0LTH
      00000088H.0 SFRSYM    DATA     BIT       TCON_IT0
      000000E8H.1 SFRSYM    DATA     BIT       ADC0CN0_ADCM1
      000000EFH   SFRSYM    DATA     BYTE      RSTSRC
      000000FDH   SFRSYM    DATA     BYTE      P0MAT
      000000DEH   SFRSYM    DATA     BYTE      CRC0DAT
      00000088H.2 SFRSYM    DATA     BIT       TCON_IT1
      000000E8H.2 SFRSYM    DATA     BIT       ADC0CN0_ADCM2
      00000098H   SFRSYM    DATA     BYTE      SCON0
      000000F6H   SFRSYM    DATA     BYTE      PRTDRV
      000000EDH   SFRSYM    DATA     BYTE      P1MAT
      000000E8H.3 SFRSYM    DATA     BIT       ADC0CN0_ADWINT
      000000E8H.4 SFRSYM    DATA     BIT       ADC0CN0_ADBUSY
      000000D6H   SFRSYM    DATA     BYTE      SMB0ADM
      000000C5H   SFRSYM    DATA     BYTE      ADC0LTL
      000000F8H.5 SFRSYM    DATA     BIT       SPI0CN0_MODF
      000000B8H.6 SFRSYM    DATA     BIT       IP_PSPI0
      0000009CH   SFRSYM    DATA     BYTE      PCA0CLR
      000000C8H   SFRSYM    DATA     BYTE      TMR2CN0
      00000091H   SFRSYM    DATA     BYTE      TMR3CN0
      000000D7H   SFRSYM    DATA     BYTE      SMB0ADR
      00000088H.4 SFRSYM    DATA     BIT       TCON_TR0
      000000C8H.4 SFRSYM    DATA     BIT       TMR2CN0_TF2CEN
      00000088H.6 SFRSYM    DATA     BIT       TCON_TR1
      000000C2H   SFRSYM    DATA     BYTE      SMB0DAT
      000000CDH   SFRSYM    DATA     BYTE      TMR2H
      000000A1H   SFRSYM    DATA     BYTE      SPI0CFG
      00000095H   SFRSYM    DATA     BYTE      TMR3H
      000000D3H   SFRSYM    DATA     BYTE      CRC0CNT
      00000096H   SFRSYM    DATA     BYTE      PCA0POL
      000000CCH   SFRSYM    DATA     BYTE      TMR2L
      000000F8H.7 SFRSYM    DATA     BIT       SPI0CN0_SPIF
      00000094H   SFRSYM    DATA     BYTE      TMR3L
      000000DFH   SFRSYM    DATA     BYTE      ADC0PWR
      000000A8H.7 SFRSYM    DATA     BIT       IE_EA
      000000C8H.5 SFRSYM    DATA     BIT       TMR2CN0_TF2LEN
      000000F8H.6 SFRSYM    DATA     BIT       SPI0CN0_WCOL
      000000F8H.2 SFRSYM    DATA     BIT       SPI0CN0_NSSMD0
      000000D0H.7 SFRSYM    DATA     BIT       PSW_CY
LX51 LINKER/LOCATER V4.66.97.0                                                        01/16/2024  00:35:35  PAGE 27


      000000A3H   SFRSYM    DATA     BYTE      SPI0DAT
      000000F8H.3 SFRSYM    DATA     BIT       SPI0CN0_NSSMD1
      000000BDH   SFRSYM    DATA     WORD      ADC0
      000000D0H   SFRSYM    DATA     BYTE      PSW
      000000F7H   SFRSYM    DATA     BYTE      PCA0PWM
      000000B6H   SFRSYM    DATA     BYTE      REVID
      000000B7H   SFRSYM    DATA     BYTE      FLKEY
      000000B3H   SFRSYM    DATA     BYTE      ADC0AC

      010003B4H   BLOCK     CODE     ---       LVL=0
      010003B4H   LINE      CODE     ---       #23
      010003B4H   LINE      CODE     ---       #25
      010003B7H   LINE      CODE     ---       #26
      010003BAH   LINE      CODE     ---       #27
      010003BDH   LINE      CODE     ---       #28
      010003C0H   LINE      CODE     ---       #29
      010003C3H   LINE      CODE     ---       #30
      010003C6H   LINE      CODE     ---       #31
      ---         BLOCKEND  ---      ---       LVL=0

      01000419H   BLOCK     CODE     ---       LVL=0
      01000419H   LINE      CODE     ---       #41
      01000419H   LINE      CODE     ---       #47
      0100041CH   LINE      CODE     ---       #48
      0100041FH   LINE      CODE     ---       #52
      ---         BLOCKEND  ---      ---       LVL=0

      01000420H   BLOCK     CODE     ---       LVL=0
      01000420H   LINE      CODE     ---       #57
      01000420H   LINE      CODE     ---       #78
      01000423H   LINE      CODE     ---       #105
      01000426H   LINE      CODE     ---       #117
      ---         BLOCKEND  ---      ---       LVL=0

      01000427H   BLOCK     CODE     ---       LVL=0
      01000427H   LINE      CODE     ---       #122
      01000427H   LINE      CODE     ---       #142
      0100042AH   LINE      CODE     ---       #169
      0100042DH   LINE      CODE     ---       #181
      ---         BLOCKEND  ---      ---       LVL=0

      0100042EH   BLOCK     CODE     ---       LVL=0
      0100042EH   LINE      CODE     ---       #186
      0100042EH   LINE      CODE     ---       #194
      01000431H   LINE      CODE     ---       #219
      01000434H   LINE      CODE     ---       #228
      ---         BLOCKEND  ---      ---       LVL=0

      0100002FH   BLOCK     CODE     ---       LVL=0
      0100002FH   LINE      CODE     ---       #233
      0100002FH   LINE      CODE     ---       #241
      01000032H   LINE      CODE     ---       #245
      ---         BLOCKEND  ---      ---       LVL=0

      01000407H   BLOCK     CODE     ---       LVL=0
      01000407H   LINE      CODE     ---       #250
      01000407H   LINE      CODE     ---       #255
      0100040AH   LINE      CODE     ---       #263
      0100040DH   LINE      CODE     ---       #272
      01000410H   LINE      CODE     ---       #276
      ---         BLOCKEND  ---      ---       LVL=0

LX51 LINKER/LOCATER V4.66.97.0                                                        01/16/2024  00:35:35  PAGE 28


      0100043FH   BLOCK     CODE     ---       LVL=0
      0100043FH   LINE      CODE     ---       #281
      0100043FH   LINE      CODE     ---       #304
      01000442H   LINE      CODE     ---       #312
      ---         BLOCKEND  ---      ---       LVL=0

      ---         MODULE    ---      ---       ?C_STARTUP
      01000000H   PUBLIC    CODE     NEAR LAB  ?C_STARTUP
      000000E0H   SFRSYM    DATA     BYTE      ACC
      000000F0H   SFRSYM    DATA     BYTE      B
      00000083H   SFRSYM    DATA     BYTE      DPH
      00000082H   SFRSYM    DATA     BYTE      DPL
      000000A0H   SFRSYM    DATA     BYTE      PPAGE_SFR
      00000081H   SFRSYM    DATA     BYTE      SP
      00000000H   SYMBOL    NUMBER   ---       IBPSTACK
      00000100H   SYMBOL    NUMBER   ---       IBPSTACKTOP
      00000080H   SYMBOL    NUMBER   ---       IDATALEN
      010000E4H   SYMBOL    CODE     NEAR LAB  IDATALOOP
      00000000H   SYMBOL    NUMBER   ---       PBPSTACK
      00000100H   SYMBOL    NUMBER   ---       PBPSTACKTOP
      00000000H   SYMBOL    NUMBER   ---       PDATALEN
      00000000H   SYMBOL    NUMBER   ---       PDATASTART
      00000000H   SYMBOL    NUMBER   ---       PPAGE
      00000000H   SYMBOL    NUMBER   ---       PPAGEENABLE
      010000DEH   SYMBOL    CODE     NEAR LAB  STARTUP1
      00000000H   SYMBOL    NUMBER   ---       XBPSTACK
      00010000H   SYMBOL    NUMBER   ---       XBPSTACKTOP
      00000000H   SYMBOL    NUMBER   ---       XDATALEN
      00000000H   SYMBOL    NUMBER   ---       XDATASTART

      01000000H   BLOCK     CODE     NEAR LAB  LVL=0
      01000000H   LINE      CODE     ---       #126
      ---         BLOCKEND  ---      ---       LVL=0

      010000DEH   BLOCK     CODE     NEAR LAB  LVL=0
      010000DEH   LINE      CODE     ---       #134
      010000E1H   LINE      CODE     ---       #138
      010000E3H   LINE      CODE     ---       #139
      010000E4H   LINE      CODE     ---       #140
      010000E5H   LINE      CODE     ---       #141
      010000E7H   LINE      CODE     ---       #190
      010000EAH   LINE      CODE     ---       #201
      ---         BLOCKEND  ---      ---       LVL=0

      ---         MODULE    ---      ---       SPI0_LIB_MASTER
      0000001FH   PUBLIC    DATA     BYTE      buf
      010002CDH   PUBLIC    CODE     ---       main
      01000444H   PUBLIC    CODE     ---       SiLabs_Startup
      01000443H   PUBLIC    CODE     ---       SPI0_transferCompleteCb
      000000A2H   SFRSYM    DATA     BYTE      SPI0CKR
      00000080H   SFRSYM    DATA     BYTE      P0
      000000D0H.2 SFRSYM    DATA     BIT       PSW_OV
      00000090H   SFRSYM    DATA     BYTE      P1
      00000097H   SFRSYM    DATA     BYTE      WDTCN
      000000A0H   SFRSYM    DATA     BYTE      P2
      000000BCH   SFRSYM    DATA     BYTE      ADC0CF
      000000C8H.0 SFRSYM    DATA     BIT       TMR2CN0_T2XCLK
      000000C0H.7 SFRSYM    DATA     BIT       SMB0CN0_MASTER
      000000F9H   SFRSYM    DATA     WORD      PCA0
      000000E6H   SFRSYM    DATA     BYTE      EIE1
      000000C0H.1 SFRSYM    DATA     BIT       SMB0CN0_ACK
      0000008FH   SFRSYM    DATA     BYTE      PSCTL
LX51 LINKER/LOCATER V4.66.97.0                                                        01/16/2024  00:35:35  PAGE 29


      000000E4H   SFRSYM    DATA     BYTE      IT01CF
      000000C0H.6 SFRSYM    DATA     BIT       SMB0CN0_TXMODE
      000000ADH   SFRSYM    DATA     BYTE      DERIVID
      000000A4H   SFRSYM    DATA     BYTE      P0MDOUT
      000000A5H   SFRSYM    DATA     BYTE      P1MDOUT
      000000E8H.5 SFRSYM    DATA     BIT       ADC0CN0_ADINT
      000000CBH   SFRSYM    DATA     BYTE      TMR2RLH
      000000A6H   SFRSYM    DATA     BYTE      P2MDOUT
      000000A8H   SFRSYM    DATA     BYTE      IE
      00000093H   SFRSYM    DATA     BYTE      TMR3RLH
      000000F3H   SFRSYM    DATA     BYTE      EIP1
      00000098H.2 SFRSYM    DATA     BIT       SCON0_RB8
      000000CAH   SFRSYM    DATA     BYTE      TMR2RLL
      000000FCH   SFRSYM    DATA     BYTE      PCA0CPH0
      00000092H   SFRSYM    DATA     BYTE      TMR3RLL
      000000EAH   SFRSYM    DATA     BYTE      PCA0CPH1
      00000098H.3 SFRSYM    DATA     BIT       SCON0_TB8
      000000F0H.0 SFRSYM    DATA     BIT       B_B0
      00000082H   SFRSYM    DATA     WORD      DP
      000000ECH   SFRSYM    DATA     BYTE      PCA0CPH2
      000000F0H.1 SFRSYM    DATA     BIT       B_B1
      000000C3H   SFRSYM    DATA     WORD      ADC0GT
      000000F0H.2 SFRSYM    DATA     BIT       B_B2
      000000FBH   SFRSYM    DATA     BYTE      PCA0CPL0
      000000F0H.3 SFRSYM    DATA     BIT       B_B3
      000000D9H   SFRSYM    DATA     BYTE      PCA0MD
      000000DAH   SFRSYM    DATA     BYTE      PCA0CPM0
      000000E9H   SFRSYM    DATA     BYTE      PCA0CPL1
      000000F0H.4 SFRSYM    DATA     BIT       B_B4
      000000DBH   SFRSYM    DATA     BYTE      PCA0CPM1
      000000EBH   SFRSYM    DATA     BYTE      PCA0CPL2
      000000F0H.5 SFRSYM    DATA     BIT       B_B5
      000000DCH   SFRSYM    DATA     BYTE      PCA0CPM2
      000000B8H   SFRSYM    DATA     BYTE      IP
      000000B9H   SFRSYM    DATA     BYTE      ADC0TK
      000000F0H.6 SFRSYM    DATA     BIT       B_B6
      000000C5H   SFRSYM    DATA     WORD      ADC0LT
      00000098H.5 SFRSYM    DATA     BIT       SCON0_MCE
      000000F0H.7 SFRSYM    DATA     BIT       B_B7
      000000E1H   SFRSYM    DATA     BYTE      XBR0
      000000C1H   SFRSYM    DATA     BYTE      SMB0CF
      000000E2H   SFRSYM    DATA     BYTE      XBR1
      000000C0H.5 SFRSYM    DATA     BIT       SMB0CN0_STA
      000000E3H   SFRSYM    DATA     BYTE      XBR2
      000000BBH   SFRSYM    DATA     BYTE      ADC0MX
      000000E0H.0 SFRSYM    DATA     BIT       ACC_ACC0
      000000D1H   SFRSYM    DATA     BYTE      REF0CN
      0000008EH   SFRSYM    DATA     BYTE      CKCON0
      000000E0H.1 SFRSYM    DATA     BIT       ACC_ACC1
      000000C9H   SFRSYM    DATA     BYTE      REG0CN
      000000DDH   SFRSYM    DATA     BYTE      CRC0IN
      000000C8H.2 SFRSYM    DATA     BIT       TMR2CN0_TR2
      000000E0H.2 SFRSYM    DATA     BIT       ACC_ACC2
      000000E0H.3 SFRSYM    DATA     BIT       ACC_ACC3
      00000081H   SFRSYM    DATA     BYTE      SP
      0000009DH   SFRSYM    DATA     BYTE      CMP0MD
      000000E0H.4 SFRSYM    DATA     BIT       ACC_ACC4
      000000B1H   SFRSYM    DATA     BYTE      LFO0CN
      000000ABH   SFRSYM    DATA     BYTE      CMP1MD
      000000D8H.0 SFRSYM    DATA     BIT       PCA0CN0_CCF0
      000000E0H.5 SFRSYM    DATA     BIT       ACC_ACC5
      000000D8H.1 SFRSYM    DATA     BIT       PCA0CN0_CCF1
LX51 LINKER/LOCATER V4.66.97.0                                                        01/16/2024  00:35:35  PAGE 30


      000000E0H.6 SFRSYM    DATA     BIT       ACC_ACC6
      000000CCH   SFRSYM    DATA     WORD      TMR2
      000000D8H.2 SFRSYM    DATA     BIT       PCA0CN0_CCF2
      000000E0H.7 SFRSYM    DATA     BIT       ACC_ACC7
      00000094H   SFRSYM    DATA     WORD      TMR3
      000000C0H.3 SFRSYM    DATA     BIT       SMB0CN0_ACKRQ
      000000FFH   SFRSYM    DATA     BYTE      VDM0CN
      000000F1H   SFRSYM    DATA     BYTE      P0MDIN
      00000098H.4 SFRSYM    DATA     BIT       SCON0_REN
      000000ACH   SFRSYM    DATA     BYTE      SMB0TC
      000000F2H   SFRSYM    DATA     BYTE      P1MDIN
      000000C0H.4 SFRSYM    DATA     BIT       SMB0CN0_STO
      000000FEH   SFRSYM    DATA     BYTE      P0MASK
      000000EEH   SFRSYM    DATA     BYTE      P1MASK
      000000D0H.3 SFRSYM    DATA     BIT       PSW_RS0
      000000D8H.7 SFRSYM    DATA     BIT       PCA0CN0_CF
      0000009EH   SFRSYM    DATA     BYTE      PCA0CENT
      000000F8H.4 SFRSYM    DATA     BIT       SPI0CN0_RXOVRN
      000000D0H.4 SFRSYM    DATA     BIT       PSW_RS1
      000000E8H.7 SFRSYM    DATA     BIT       ADC0CN0_ADEN
      00000089H   SFRSYM    DATA     BYTE      TMOD
      00000088H   SFRSYM    DATA     BYTE      TCON
      000000CFH   SFRSYM    DATA     BYTE      CRC0FLIP
      000000D0H.0 SFRSYM    DATA     BIT       PSW_PARITY
      000000A8H.4 SFRSYM    DATA     BIT       IE_ES0
      0000009FH   SFRSYM    DATA     BYTE      CMP0MX
      000000A8H.1 SFRSYM    DATA     BIT       IE_ET0
      000000AAH   SFRSYM    DATA     BYTE      CMP1MX
      000000A8H.3 SFRSYM    DATA     BIT       IE_ET1
      000000D4H   SFRSYM    DATA     BYTE      P0SKIP
      000000A8H.5 SFRSYM    DATA     BIT       IE_ET2
      000000D5H   SFRSYM    DATA     BYTE      P1SKIP
      000000E8H   SFRSYM    DATA     BYTE      ADC0CN0
      000000A8H.0 SFRSYM    DATA     BIT       IE_EX0
      000000B2H   SFRSYM    DATA     BYTE      ADC0CN1
      000000D8H.6 SFRSYM    DATA     BIT       PCA0CN0_CR
      000000A8H.2 SFRSYM    DATA     BIT       IE_EX1
      00000098H.7 SFRSYM    DATA     BIT       SCON0_SMODE
      000000B5H   SFRSYM    DATA     BYTE      DEVICEID
      000000A9H   SFRSYM    DATA     BYTE      CLKSEL
      000000F8H.0 SFRSYM    DATA     BIT       SPI0CN0_SPIEN
      000000F0H   SFRSYM    DATA     BYTE      B
      000000BEH   SFRSYM    DATA     BYTE      ADC0H
      000000D2H   SFRSYM    DATA     BYTE      CRC0AUTO
      000000E8H.6 SFRSYM    DATA     BIT       ADC0CN0_ADBMEN
      000000CAH   SFRSYM    DATA     WORD      TMR2RL
      000000BDH   SFRSYM    DATA     BYTE      ADC0L
      00000092H   SFRSYM    DATA     WORD      TMR3RL
      000000D8H   SFRSYM    DATA     BYTE      PCA0CN0
      000000E0H   SFRSYM    DATA     BYTE      ACC
      000000FBH   SFRSYM    DATA     WORD      PCA0CP0
      000000E9H   SFRSYM    DATA     WORD      PCA0CP1
      000000EBH   SFRSYM    DATA     WORD      PCA0CP2
      000000CEH   SFRSYM    DATA     BYTE      CRC0CN0
      00000090H.4 SFRSYM    DATA     BIT       BSP_LED0
      0000008CH   SFRSYM    DATA     BYTE      TH0
      000000B8H.4 SFRSYM    DATA     BIT       IP_PS0
      0000008DH   SFRSYM    DATA     BYTE      TH1
      000000FAH   SFRSYM    DATA     BYTE      PCA0H
      000000B8H.1 SFRSYM    DATA     BIT       IP_PT0
      000000B8H.3 SFRSYM    DATA     BIT       IP_PT1
      000000C0H.2 SFRSYM    DATA     BIT       SMB0CN0_ARBLOST
LX51 LINKER/LOCATER V4.66.97.0                                                        01/16/2024  00:35:35  PAGE 31


      000000B8H.5 SFRSYM    DATA     BIT       IP_PT2
      0000008AH   SFRSYM    DATA     BYTE      TL0
      000000F8H.1 SFRSYM    DATA     BIT       SPI0CN0_TXBMT
      000000D0H.5 SFRSYM    DATA     BIT       PSW_F0
      000000A8H.6 SFRSYM    DATA     BIT       IE_ESPI0
      0000008BH   SFRSYM    DATA     BYTE      TL1
      000000F9H   SFRSYM    DATA     BYTE      PCA0L
      000000C0H.0 SFRSYM    DATA     BIT       SMB0CN0_SI
      000000D0H.1 SFRSYM    DATA     BIT       PSW_F1
      00000080H.0 SFRSYM    DATA     BIT       P0_B0
      000000B8H.0 SFRSYM    DATA     BIT       IP_PX0
      00000090H.0 SFRSYM    DATA     BIT       P1_B0
      00000080H.1 SFRSYM    DATA     BIT       P0_B1
      000000B8H.2 SFRSYM    DATA     BIT       IP_PX1
      0000009BH   SFRSYM    DATA     BYTE      CMP0CN0
      00000088H.1 SFRSYM    DATA     BIT       TCON_IE0
      000000A0H.0 SFRSYM    DATA     BIT       P2_B0
      00000090H.1 SFRSYM    DATA     BIT       P1_B1
      00000080H.2 SFRSYM    DATA     BIT       P0_B2
      000000BFH   SFRSYM    DATA     BYTE      CMP1CN0
      00000088H.3 SFRSYM    DATA     BIT       TCON_IE1
      000000A0H.1 SFRSYM    DATA     BIT       P2_B1
      00000090H.2 SFRSYM    DATA     BIT       P1_B2
      00000080H.3 SFRSYM    DATA     BIT       P0_B3
      000000C0H   SFRSYM    DATA     BYTE      SMB0CN0
      00000090H.3 SFRSYM    DATA     BIT       P1_B3
      00000080H.4 SFRSYM    DATA     BIT       P0_B4
      00000090H.4 SFRSYM    DATA     BIT       P1_B4
      00000080H.5 SFRSYM    DATA     BIT       P0_B5
      00000090H.5 SFRSYM    DATA     BIT       P1_B5
      00000080H.6 SFRSYM    DATA     BIT       P0_B6
      00000090H.6 SFRSYM    DATA     BIT       P1_B6
      00000080H.7 SFRSYM    DATA     BIT       P0_B7
      00000090H.7 SFRSYM    DATA     BIT       P1_B7
      00000080H.2 SFRSYM    DATA     BIT       BSP_BTN0
      00000083H   SFRSYM    DATA     BYTE      DPH
      000000C4H   SFRSYM    DATA     BYTE      ADC0GTH
      000000C8H.7 SFRSYM    DATA     BIT       TMR2CN0_TF2H
      000000C8H.3 SFRSYM    DATA     BIT       TMR2CN0_T2SPLIT
      000000D0H.6 SFRSYM    DATA     BIT       PSW_AC
      000000F8H   SFRSYM    DATA     BYTE      SPI0CN0
      000000C7H   SFRSYM    DATA     BYTE      HFO0CAL
      00000088H.5 SFRSYM    DATA     BIT       TCON_TF0
      00000098H.0 SFRSYM    DATA     BIT       SCON0_RI
      00000082H   SFRSYM    DATA     BYTE      DPL
      00000088H.7 SFRSYM    DATA     BIT       TCON_TF1
      00000099H   SFRSYM    DATA     BYTE      SBUF0
      00000087H   SFRSYM    DATA     BYTE      PCON0
      000000C3H   SFRSYM    DATA     BYTE      ADC0GTL
      000000C8H.6 SFRSYM    DATA     BIT       TMR2CN0_TF2L
      00000098H.1 SFRSYM    DATA     BIT       SCON0_TI
      000000E8H.0 SFRSYM    DATA     BIT       ADC0CN0_ADCM0
      000000C6H   SFRSYM    DATA     BYTE      ADC0LTH
      00000088H.0 SFRSYM    DATA     BIT       TCON_IT0
      000000E8H.1 SFRSYM    DATA     BIT       ADC0CN0_ADCM1
      000000EFH   SFRSYM    DATA     BYTE      RSTSRC
      000000FDH   SFRSYM    DATA     BYTE      P0MAT
      000000DEH   SFRSYM    DATA     BYTE      CRC0DAT
      00000088H.2 SFRSYM    DATA     BIT       TCON_IT1
      000000E8H.2 SFRSYM    DATA     BIT       ADC0CN0_ADCM2
      00000098H   SFRSYM    DATA     BYTE      SCON0
      000000F6H   SFRSYM    DATA     BYTE      PRTDRV
LX51 LINKER/LOCATER V4.66.97.0                                                        01/16/2024  00:35:35  PAGE 32


      000000EDH   SFRSYM    DATA     BYTE      P1MAT
      000000E8H.3 SFRSYM    DATA     BIT       ADC0CN0_ADWINT
      000000E8H.4 SFRSYM    DATA     BIT       ADC0CN0_ADBUSY
      000000D6H   SFRSYM    DATA     BYTE      SMB0ADM
      000000C5H   SFRSYM    DATA     BYTE      ADC0LTL
      000000F8H.5 SFRSYM    DATA     BIT       SPI0CN0_MODF
      000000B8H.6 SFRSYM    DATA     BIT       IP_PSPI0
      0000009CH   SFRSYM    DATA     BYTE      PCA0CLR
      000000C8H   SFRSYM    DATA     BYTE      TMR2CN0
      00000091H   SFRSYM    DATA     BYTE      TMR3CN0
      000000D7H   SFRSYM    DATA     BYTE      SMB0ADR
      00000088H.4 SFRSYM    DATA     BIT       TCON_TR0
      000000C8H.4 SFRSYM    DATA     BIT       TMR2CN0_TF2CEN
      00000088H.6 SFRSYM    DATA     BIT       TCON_TR1
      000000C2H   SFRSYM    DATA     BYTE      SMB0DAT
      000000CDH   SFRSYM    DATA     BYTE      TMR2H
      000000A1H   SFRSYM    DATA     BYTE      SPI0CFG
      00000095H   SFRSYM    DATA     BYTE      TMR3H
      000000D3H   SFRSYM    DATA     BYTE      CRC0CNT
      00000096H   SFRSYM    DATA     BYTE      PCA0POL
      000000CCH   SFRSYM    DATA     BYTE      TMR2L
      000000F8H.7 SFRSYM    DATA     BIT       SPI0CN0_SPIF
      00000094H   SFRSYM    DATA     BYTE      TMR3L
      000000DFH   SFRSYM    DATA     BYTE      ADC0PWR
      000000A8H.7 SFRSYM    DATA     BIT       IE_EA
      000000C8H.5 SFRSYM    DATA     BIT       TMR2CN0_TF2LEN
      000000F8H.6 SFRSYM    DATA     BIT       SPI0CN0_WCOL
      000000F8H.2 SFRSYM    DATA     BIT       SPI0CN0_NSSMD0
      000000D0H.7 SFRSYM    DATA     BIT       PSW_CY
      000000A3H   SFRSYM    DATA     BYTE      SPI0DAT
      000000F8H.3 SFRSYM    DATA     BIT       SPI0CN0_NSSMD1
      000000BDH   SFRSYM    DATA     WORD      ADC0
      000000D0H   SFRSYM    DATA     BYTE      PSW
      000000F7H   SFRSYM    DATA     BYTE      PCA0PWM
      000000B6H   SFRSYM    DATA     BYTE      REVID
      000000B7H   SFRSYM    DATA     BYTE      FLKEY
      000000B3H   SFRSYM    DATA     BYTE      ADC0AC

      01000443H   BLOCK     CODE     ---       LVL=0
      01000443H   LINE      CODE     ---       #88
      01000443H   LINE      CODE     ---       #89
      01000443H   LINE      CODE     ---       #91
      ---         BLOCKEND  ---      ---       LVL=0

      01000444H   BLOCK     CODE     ---       LVL=0
      01000444H   LINE      CODE     ---       #102
      01000444H   LINE      CODE     ---       #103
      01000444H   LINE      CODE     ---       #105
      ---         BLOCKEND  ---      ---       LVL=0

      010002CDH   BLOCK     CODE     ---       LVL=0
      010002CDH   BLOCK     CODE     NEAR LAB  LVL=1
      00000022H   SYMBOL    DATA     BYTE      val
      ---         BLOCKEND  ---      ---       LVL=1
      010002CDH   LINE      CODE     ---       #111
      010002CDH   LINE      CODE     ---       #112
      010002CDH   LINE      CODE     ---       #115
      010002D0H   LINE      CODE     ---       #117
      010002D2H   LINE      CODE     ---       #143
      010002D9H   LINE      CODE     ---       #150
      010002DCH   LINE      CODE     ---       #152
      010002E1H   LINE      CODE     ---       #154
LX51 LINKER/LOCATER V4.66.97.0                                                        01/16/2024  00:35:35  PAGE 33


      010002E1H   LINE      CODE     ---       #155
      010002E1H   LINE      CODE     ---       #156
      010002E8H   LINE      CODE     ---       #157
      010002EDH   LINE      CODE     ---       #158
      010002F3H   LINE      CODE     ---       #159
      ---         BLOCKEND  ---      ---       LVL=0

      ---         MODULE    ---      ---       KEYPAD
      01000411H   PUBLIC    CODE     ---       display_key
      01000036H   PUBLIC    CODE     ---       _read_col
      0100035DH   PUBLIC    CODE     ---       _read_row
      010003F8H   PUBLIC    CODE     ---       DebounceDelay
      000000A2H   SFRSYM    DATA     BYTE      SPI0CKR
      00000080H   SFRSYM    DATA     BYTE      P0
      000000D0H.2 SFRSYM    DATA     BIT       PSW_OV
      00000090H   SFRSYM    DATA     BYTE      P1
      00000097H   SFRSYM    DATA     BYTE      WDTCN
      000000A0H   SFRSYM    DATA     BYTE      P2
      000000BCH   SFRSYM    DATA     BYTE      ADC0CF
      000000C8H.0 SFRSYM    DATA     BIT       TMR2CN0_T2XCLK
      000000C0H.7 SFRSYM    DATA     BIT       SMB0CN0_MASTER
      000000F9H   SFRSYM    DATA     WORD      PCA0
      000000E6H   SFRSYM    DATA     BYTE      EIE1
      000000C0H.1 SFRSYM    DATA     BIT       SMB0CN0_ACK
      0000008FH   SFRSYM    DATA     BYTE      PSCTL
      000000E4H   SFRSYM    DATA     BYTE      IT01CF
      000000C0H.6 SFRSYM    DATA     BIT       SMB0CN0_TXMODE
      000000ADH   SFRSYM    DATA     BYTE      DERIVID
      000000A4H   SFRSYM    DATA     BYTE      P0MDOUT
      000000A5H   SFRSYM    DATA     BYTE      P1MDOUT
      000000E8H.5 SFRSYM    DATA     BIT       ADC0CN0_ADINT
      000000CBH   SFRSYM    DATA     BYTE      TMR2RLH
      000000A6H   SFRSYM    DATA     BYTE      P2MDOUT
      000000A8H   SFRSYM    DATA     BYTE      IE
      00000093H   SFRSYM    DATA     BYTE      TMR3RLH
      000000F3H   SFRSYM    DATA     BYTE      EIP1
      00000098H.2 SFRSYM    DATA     BIT       SCON0_RB8
      000000CAH   SFRSYM    DATA     BYTE      TMR2RLL
      000000FCH   SFRSYM    DATA     BYTE      PCA0CPH0
      00000092H   SFRSYM    DATA     BYTE      TMR3RLL
      000000EAH   SFRSYM    DATA     BYTE      PCA0CPH1
      00000098H.3 SFRSYM    DATA     BIT       SCON0_TB8
      000000F0H.0 SFRSYM    DATA     BIT       B_B0
      00000082H   SFRSYM    DATA     WORD      DP
      000000ECH   SFRSYM    DATA     BYTE      PCA0CPH2
      000000F0H.1 SFRSYM    DATA     BIT       B_B1
      000000C3H   SFRSYM    DATA     WORD      ADC0GT
      000000F0H.2 SFRSYM    DATA     BIT       B_B2
      000000FBH   SFRSYM    DATA     BYTE      PCA0CPL0
      000000F0H.3 SFRSYM    DATA     BIT       B_B3
      000000D9H   SFRSYM    DATA     BYTE      PCA0MD
      000000DAH   SFRSYM    DATA     BYTE      PCA0CPM0
      000000E9H   SFRSYM    DATA     BYTE      PCA0CPL1
      000000F0H.4 SFRSYM    DATA     BIT       B_B4
      000000DBH   SFRSYM    DATA     BYTE      PCA0CPM1
      000000EBH   SFRSYM    DATA     BYTE      PCA0CPL2
      000000F0H.5 SFRSYM    DATA     BIT       B_B5
      000000DCH   SFRSYM    DATA     BYTE      PCA0CPM2
      000000B8H   SFRSYM    DATA     BYTE      IP
      000000B9H   SFRSYM    DATA     BYTE      ADC0TK
      000000F0H.6 SFRSYM    DATA     BIT       B_B6
      000000C5H   SFRSYM    DATA     WORD      ADC0LT
LX51 LINKER/LOCATER V4.66.97.0                                                        01/16/2024  00:35:35  PAGE 34


      00000098H.5 SFRSYM    DATA     BIT       SCON0_MCE
      000000F0H.7 SFRSYM    DATA     BIT       B_B7
      000000E1H   SFRSYM    DATA     BYTE      XBR0
      000000C1H   SFRSYM    DATA     BYTE      SMB0CF
      000000E2H   SFRSYM    DATA     BYTE      XBR1
      000000C0H.5 SFRSYM    DATA     BIT       SMB0CN0_STA
      000000E3H   SFRSYM    DATA     BYTE      XBR2
      000000BBH   SFRSYM    DATA     BYTE      ADC0MX
      000000E0H.0 SFRSYM    DATA     BIT       ACC_ACC0
      000000D1H   SFRSYM    DATA     BYTE      REF0CN
      0000008EH   SFRSYM    DATA     BYTE      CKCON0
      000000E0H.1 SFRSYM    DATA     BIT       ACC_ACC1
      000000C9H   SFRSYM    DATA     BYTE      REG0CN
      000000DDH   SFRSYM    DATA     BYTE      CRC0IN
      000000C8H.2 SFRSYM    DATA     BIT       TMR2CN0_TR2
      000000E0H.2 SFRSYM    DATA     BIT       ACC_ACC2
      000000E0H.3 SFRSYM    DATA     BIT       ACC_ACC3
      00000081H   SFRSYM    DATA     BYTE      SP
      0000009DH   SFRSYM    DATA     BYTE      CMP0MD
      000000E0H.4 SFRSYM    DATA     BIT       ACC_ACC4
      000000B1H   SFRSYM    DATA     BYTE      LFO0CN
      000000ABH   SFRSYM    DATA     BYTE      CMP1MD
      000000D8H.0 SFRSYM    DATA     BIT       PCA0CN0_CCF0
      000000E0H.5 SFRSYM    DATA     BIT       ACC_ACC5
      000000D8H.1 SFRSYM    DATA     BIT       PCA0CN0_CCF1
      000000E0H.6 SFRSYM    DATA     BIT       ACC_ACC6
      000000CCH   SFRSYM    DATA     WORD      TMR2
      000000D8H.2 SFRSYM    DATA     BIT       PCA0CN0_CCF2
      000000E0H.7 SFRSYM    DATA     BIT       ACC_ACC7
      00000094H   SFRSYM    DATA     WORD      TMR3
      000000C0H.3 SFRSYM    DATA     BIT       SMB0CN0_ACKRQ
      000000FFH   SFRSYM    DATA     BYTE      VDM0CN
      000000F1H   SFRSYM    DATA     BYTE      P0MDIN
      00000098H.4 SFRSYM    DATA     BIT       SCON0_REN
      000000ACH   SFRSYM    DATA     BYTE      SMB0TC
      000000F2H   SFRSYM    DATA     BYTE      P1MDIN
      000000C0H.4 SFRSYM    DATA     BIT       SMB0CN0_STO
      000000FEH   SFRSYM    DATA     BYTE      P0MASK
      000000EEH   SFRSYM    DATA     BYTE      P1MASK
      000000D0H.3 SFRSYM    DATA     BIT       PSW_RS0
      000000D8H.7 SFRSYM    DATA     BIT       PCA0CN0_CF
      0000009EH   SFRSYM    DATA     BYTE      PCA0CENT
      000000F8H.4 SFRSYM    DATA     BIT       SPI0CN0_RXOVRN
      000000D0H.4 SFRSYM    DATA     BIT       PSW_RS1
      000000E8H.7 SFRSYM    DATA     BIT       ADC0CN0_ADEN
      00000089H   SFRSYM    DATA     BYTE      TMOD
      00000088H   SFRSYM    DATA     BYTE      TCON
      000000CFH   SFRSYM    DATA     BYTE      CRC0FLIP
      000000D0H.0 SFRSYM    DATA     BIT       PSW_PARITY
      000000A8H.4 SFRSYM    DATA     BIT       IE_ES0
      0000009FH   SFRSYM    DATA     BYTE      CMP0MX
      000000A8H.1 SFRSYM    DATA     BIT       IE_ET0
      000000AAH   SFRSYM    DATA     BYTE      CMP1MX
      000000A8H.3 SFRSYM    DATA     BIT       IE_ET1
      000000D4H   SFRSYM    DATA     BYTE      P0SKIP
      000000A8H.5 SFRSYM    DATA     BIT       IE_ET2
      000000D5H   SFRSYM    DATA     BYTE      P1SKIP
      000000E8H   SFRSYM    DATA     BYTE      ADC0CN0
      000000A8H.0 SFRSYM    DATA     BIT       IE_EX0
      000000B2H   SFRSYM    DATA     BYTE      ADC0CN1
      000000D8H.6 SFRSYM    DATA     BIT       PCA0CN0_CR
      000000A8H.2 SFRSYM    DATA     BIT       IE_EX1
LX51 LINKER/LOCATER V4.66.97.0                                                        01/16/2024  00:35:35  PAGE 35


      00000098H.7 SFRSYM    DATA     BIT       SCON0_SMODE
      000000B5H   SFRSYM    DATA     BYTE      DEVICEID
      000000A9H   SFRSYM    DATA     BYTE      CLKSEL
      000000F8H.0 SFRSYM    DATA     BIT       SPI0CN0_SPIEN
      000000F0H   SFRSYM    DATA     BYTE      B
      000000BEH   SFRSYM    DATA     BYTE      ADC0H
      000000D2H   SFRSYM    DATA     BYTE      CRC0AUTO
      000000E8H.6 SFRSYM    DATA     BIT       ADC0CN0_ADBMEN
      000000CAH   SFRSYM    DATA     WORD      TMR2RL
      000000BDH   SFRSYM    DATA     BYTE      ADC0L
      00000092H   SFRSYM    DATA     WORD      TMR3RL
      000000D8H   SFRSYM    DATA     BYTE      PCA0CN0
      000000E0H   SFRSYM    DATA     BYTE      ACC
      000000FBH   SFRSYM    DATA     WORD      PCA0CP0
      000000E9H   SFRSYM    DATA     WORD      PCA0CP1
      000000EBH   SFRSYM    DATA     WORD      PCA0CP2
      000000CEH   SFRSYM    DATA     BYTE      CRC0CN0
      00000090H.4 SFRSYM    DATA     BIT       BSP_LED0
      0000008CH   SFRSYM    DATA     BYTE      TH0
      000000B8H.4 SFRSYM    DATA     BIT       IP_PS0
      0000008DH   SFRSYM    DATA     BYTE      TH1
      000000FAH   SFRSYM    DATA     BYTE      PCA0H
      000000B8H.1 SFRSYM    DATA     BIT       IP_PT0
      000000B8H.3 SFRSYM    DATA     BIT       IP_PT1
      000000C0H.2 SFRSYM    DATA     BIT       SMB0CN0_ARBLOST
      000000B8H.5 SFRSYM    DATA     BIT       IP_PT2
      0000008AH   SFRSYM    DATA     BYTE      TL0
      000000F8H.1 SFRSYM    DATA     BIT       SPI0CN0_TXBMT
      000000D0H.5 SFRSYM    DATA     BIT       PSW_F0
      000000A8H.6 SFRSYM    DATA     BIT       IE_ESPI0
      0000008BH   SFRSYM    DATA     BYTE      TL1
      000000F9H   SFRSYM    DATA     BYTE      PCA0L
      000000C0H.0 SFRSYM    DATA     BIT       SMB0CN0_SI
      000000D0H.1 SFRSYM    DATA     BIT       PSW_F1
      00000080H.0 SFRSYM    DATA     BIT       P0_B0
      000000B8H.0 SFRSYM    DATA     BIT       IP_PX0
      00000090H.0 SFRSYM    DATA     BIT       P1_B0
      00000080H.1 SFRSYM    DATA     BIT       P0_B1
      000000B8H.2 SFRSYM    DATA     BIT       IP_PX1
      0000009BH   SFRSYM    DATA     BYTE      CMP0CN0
      00000088H.1 SFRSYM    DATA     BIT       TCON_IE0
      000000A0H.0 SFRSYM    DATA     BIT       P2_B0
      00000090H.1 SFRSYM    DATA     BIT       P1_B1
      00000080H.2 SFRSYM    DATA     BIT       P0_B2
      000000BFH   SFRSYM    DATA     BYTE      CMP1CN0
      00000088H.3 SFRSYM    DATA     BIT       TCON_IE1
      000000A0H.1 SFRSYM    DATA     BIT       P2_B1
      00000090H.2 SFRSYM    DATA     BIT       P1_B2
      00000080H.3 SFRSYM    DATA     BIT       P0_B3
      000000C0H   SFRSYM    DATA     BYTE      SMB0CN0
      00000090H.3 SFRSYM    DATA     BIT       P1_B3
      00000080H.4 SFRSYM    DATA     BIT       P0_B4
      00000090H.4 SFRSYM    DATA     BIT       P1_B4
      00000080H.5 SFRSYM    DATA     BIT       P0_B5
      00000090H.5 SFRSYM    DATA     BIT       P1_B5
      00000080H.6 SFRSYM    DATA     BIT       P0_B6
      00000090H.6 SFRSYM    DATA     BIT       P1_B6
      00000080H.7 SFRSYM    DATA     BIT       P0_B7
      00000090H.7 SFRSYM    DATA     BIT       P1_B7
      00000080H.2 SFRSYM    DATA     BIT       BSP_BTN0
      00000083H   SFRSYM    DATA     BYTE      DPH
      000000C4H   SFRSYM    DATA     BYTE      ADC0GTH
LX51 LINKER/LOCATER V4.66.97.0                                                        01/16/2024  00:35:35  PAGE 36


      000000C8H.7 SFRSYM    DATA     BIT       TMR2CN0_TF2H
      000000C8H.3 SFRSYM    DATA     BIT       TMR2CN0_T2SPLIT
      000000D0H.6 SFRSYM    DATA     BIT       PSW_AC
      000000F8H   SFRSYM    DATA     BYTE      SPI0CN0
      000000C7H   SFRSYM    DATA     BYTE      HFO0CAL
      00000088H.5 SFRSYM    DATA     BIT       TCON_TF0
      00000098H.0 SFRSYM    DATA     BIT       SCON0_RI
      00000082H   SFRSYM    DATA     BYTE      DPL
      00000088H.7 SFRSYM    DATA     BIT       TCON_TF1
      00000099H   SFRSYM    DATA     BYTE      SBUF0
      00000087H   SFRSYM    DATA     BYTE      PCON0
      000000C3H   SFRSYM    DATA     BYTE      ADC0GTL
      000000C8H.6 SFRSYM    DATA     BIT       TMR2CN0_TF2L
      00000098H.1 SFRSYM    DATA     BIT       SCON0_TI
      000000E8H.0 SFRSYM    DATA     BIT       ADC0CN0_ADCM0
      000000C6H   SFRSYM    DATA     BYTE      ADC0LTH
      00000088H.0 SFRSYM    DATA     BIT       TCON_IT0
      000000E8H.1 SFRSYM    DATA     BIT       ADC0CN0_ADCM1
      000000EFH   SFRSYM    DATA     BYTE      RSTSRC
      000000FDH   SFRSYM    DATA     BYTE      P0MAT
      000000DEH   SFRSYM    DATA     BYTE      CRC0DAT
      00000088H.2 SFRSYM    DATA     BIT       TCON_IT1
      000000E8H.2 SFRSYM    DATA     BIT       ADC0CN0_ADCM2
      00000098H   SFRSYM    DATA     BYTE      SCON0
      000000F6H   SFRSYM    DATA     BYTE      PRTDRV
      000000EDH   SFRSYM    DATA     BYTE      P1MAT
      000000E8H.3 SFRSYM    DATA     BIT       ADC0CN0_ADWINT
      000000E8H.4 SFRSYM    DATA     BIT       ADC0CN0_ADBUSY
      000000D6H   SFRSYM    DATA     BYTE      SMB0ADM
      000000C5H   SFRSYM    DATA     BYTE      ADC0LTL
      000000F8H.5 SFRSYM    DATA     BIT       SPI0CN0_MODF
      000000B8H.6 SFRSYM    DATA     BIT       IP_PSPI0
      0000009CH   SFRSYM    DATA     BYTE      PCA0CLR
      000000C8H   SFRSYM    DATA     BYTE      TMR2CN0
      00000091H   SFRSYM    DATA     BYTE      TMR3CN0
      000000D7H   SFRSYM    DATA     BYTE      SMB0ADR
      00000088H.4 SFRSYM    DATA     BIT       TCON_TR0
      000000C8H.4 SFRSYM    DATA     BIT       TMR2CN0_TF2CEN
      00000088H.6 SFRSYM    DATA     BIT       TCON_TR1
      000000C2H   SFRSYM    DATA     BYTE      SMB0DAT
      000000CDH   SFRSYM    DATA     BYTE      TMR2H
      000000A1H   SFRSYM    DATA     BYTE      SPI0CFG
      00000095H   SFRSYM    DATA     BYTE      TMR3H
      000000D3H   SFRSYM    DATA     BYTE      CRC0CNT
      00000096H   SFRSYM    DATA     BYTE      PCA0POL
      000000CCH   SFRSYM    DATA     BYTE      TMR2L
      000000F8H.7 SFRSYM    DATA     BIT       SPI0CN0_SPIF
      00000094H   SFRSYM    DATA     BYTE      TMR3L
      000000DFH   SFRSYM    DATA     BYTE      ADC0PWR
      000000A8H.7 SFRSYM    DATA     BIT       IE_EA
      000000C8H.5 SFRSYM    DATA     BIT       TMR2CN0_TF2LEN
      000000F8H.6 SFRSYM    DATA     BIT       SPI0CN0_WCOL
      000000F8H.2 SFRSYM    DATA     BIT       SPI0CN0_NSSMD0
      000000D0H.7 SFRSYM    DATA     BIT       PSW_CY
      000000A3H   SFRSYM    DATA     BYTE      SPI0DAT
      000000F8H.3 SFRSYM    DATA     BIT       SPI0CN0_NSSMD1
      000000BDH   SFRSYM    DATA     WORD      ADC0
      000000D0H   SFRSYM    DATA     BYTE      PSW
      000000F7H   SFRSYM    DATA     BYTE      PCA0PWM
      000000B6H   SFRSYM    DATA     BYTE      REVID
      000000B7H   SFRSYM    DATA     BYTE      FLKEY
      000000B3H   SFRSYM    DATA     BYTE      ADC0AC
LX51 LINKER/LOCATER V4.66.97.0                                                        01/16/2024  00:35:35  PAGE 37



      010003F8H   BLOCK     CODE     ---       LVL=0
      010003F8H   BLOCK     CODE     NEAR LAB  LVL=1
      00000006H   SYMBOL    DATA     INT       i
      ---         BLOCKEND  ---      ---       LVL=1
      010003F8H   LINE      CODE     ---       #18
      010003F8H   LINE      CODE     ---       #19
      010003F8H   LINE      CODE     ---       #20
      010003FBH   LINE      CODE     ---       #21
      010003FBH   LINE      CODE     ---       #22
      010003FBH   LINE      CODE     ---       #23
      01000406H   LINE      CODE     ---       #24
      ---         BLOCKEND  ---      ---       LVL=0

      0100035DH   BLOCK     CODE     ---       LVL=0
      00000005H   SYMBOL    DATA     BYTE      row
      0100035FH   BLOCK     CODE     NEAR LAB  LVL=1
      00000002H   SYMBOL    DATA     INT       status
      ---         BLOCKEND  ---      ---       LVL=1
      0100035DH   LINE      CODE     ---       #27
      0100035FH   LINE      CODE     ---       #28
      0100035FH   LINE      CODE     ---       #29
      01000362H   LINE      CODE     ---       #30
      01000367H   LINE      CODE     ---       #31
      01000367H   LINE      CODE     ---       #32
      0100036AH   LINE      CODE     ---       #33
      0100036FH   LINE      CODE     ---       #34
      0100036FH   LINE      CODE     ---       #35
      0100036FH   LINE      CODE     ---       #36
      0100036FH   LINE      CODE     ---       #37
      01000372H   LINE      CODE     ---       #38
      01000372H   LINE      CODE     ---       #39
      01000375H   LINE      CODE     ---       #41
      01000375H   LINE      CODE     ---       #42
      01000377H   LINE      CODE     ---       #44
      01000377H   LINE      CODE     ---       #46
      01000377H   LINE      CODE     ---       #47
      0100037BH   LINE      CODE     ---       #49
      ---         BLOCKEND  ---      ---       LVL=0

      01000036H   BLOCK     CODE     ---       LVL=0
      00000023H   SYMBOL    DATA     BYTE      col
      01000038H   BLOCK     CODE     NEAR LAB  LVL=1
      00000024H   SYMBOL    DATA     INT       k
      00000004H   SYMBOL    DATA     BYTE      R1
      00000026H   SYMBOL    DATA     BYTE      R2
      00000027H   SYMBOL    DATA     BYTE      R3
      00000028H   SYMBOL    DATA     BYTE      R4
      ---         BLOCKEND  ---      ---       LVL=1
      01000036H   LINE      CODE     ---       #51
      01000038H   LINE      CODE     ---       #52
      01000038H   LINE      CODE     ---       #53
      0100003DH   LINE      CODE     ---       #54
      01000044H   LINE      CODE     ---       #55
      0100004BH   LINE      CODE     ---       #56
      01000052H   LINE      CODE     ---       #57
      01000059H   LINE      CODE     ---       #58
      01000060H   LINE      CODE     ---       #60
      0100006BH   LINE      CODE     ---       #61
      0100006BH   LINE      CODE     ---       #63
      01000071H   LINE      CODE     ---       #64
      01000077H   LINE      CODE     ---       #65
LX51 LINKER/LOCATER V4.66.97.0                                                        01/16/2024  00:35:35  PAGE 38


      0100007AH   LINE      CODE     ---       #66
      0100007CH   LINE      CODE     ---       #67
      01000087H   LINE      CODE     ---       #68
      01000087H   LINE      CODE     ---       #70
      0100008DH   LINE      CODE     ---       #71
      01000093H   LINE      CODE     ---       #72
      01000096H   LINE      CODE     ---       #73
      01000098H   LINE      CODE     ---       #74
      010000A3H   LINE      CODE     ---       #75
      010000A3H   LINE      CODE     ---       #77
      010000A9H   LINE      CODE     ---       #78
      010000AFH   LINE      CODE     ---       #79
      010000B2H   LINE      CODE     ---       #80
      010000B4H   LINE      CODE     ---       #81
      010000BFH   LINE      CODE     ---       #82
      010000BFH   LINE      CODE     ---       #83
      010000C5H   LINE      CODE     ---       #84
      010000C5H   LINE      CODE     ---       #85
      010000C8H   LINE      CODE     ---       #86
      010000CDH   LINE      CODE     ---       #87
      010000CDH   LINE      CODE     ---       #88
      010000CFH   LINE      CODE     ---       #89
      010000CFH   LINE      CODE     ---       #90
      010000D7H   LINE      CODE     ---       #91
      010000D7H   LINE      CODE     ---       #92
      010000DAH   LINE      CODE     ---       #93
      010000DAH   LINE      CODE     ---       #95
      010000DAH   LINE      CODE     ---       #96
      010000DDH   LINE      CODE     ---       #97
      010000DDH   LINE      CODE     ---       #98
      ---         BLOCKEND  ---      ---       LVL=0

      01000411H   BLOCK     CODE     ---       LVL=0
      01000411H   LINE      CODE     ---       #101
      01000411H   LINE      CODE     ---       #102
      01000411H   LINE      CODE     ---       #103
      01000416H   LINE      CODE     ---       #104
      ---         BLOCKEND  ---      ---       LVL=0

      ---         MODULE    ---      ---       MCP23S08
      00000011H   PUBLIC    DATA     ---       SPI_TxBuf
      00000008H   PUBLIC    DATA     ---       SPI_RxBuf
      010002F5H   PUBLIC    CODE     ---       _Set_mcp23s08_GPIO
      0100033DH   PUBLIC    CODE     ---       _Get_mcp23s08_GPIO_Data
      0100037CH   PUBLIC    CODE     ---       _SPI_WriteByte
      0100031BH   PUBLIC    CODE     ---       _SPI_ReadByte
      000000A2H   SFRSYM    DATA     BYTE      SPI0CKR
      00000080H   SFRSYM    DATA     BYTE      P0
      000000D0H.2 SFRSYM    DATA     BIT       PSW_OV
      00000090H   SFRSYM    DATA     BYTE      P1
      00000097H   SFRSYM    DATA     BYTE      WDTCN
      000000A0H   SFRSYM    DATA     BYTE      P2
      000000BCH   SFRSYM    DATA     BYTE      ADC0CF
      000000C8H.0 SFRSYM    DATA     BIT       TMR2CN0_T2XCLK
      000000C0H.7 SFRSYM    DATA     BIT       SMB0CN0_MASTER
      000000F9H   SFRSYM    DATA     WORD      PCA0
      000000E6H   SFRSYM    DATA     BYTE      EIE1
      000000C0H.1 SFRSYM    DATA     BIT       SMB0CN0_ACK
      0000008FH   SFRSYM    DATA     BYTE      PSCTL
      000000E4H   SFRSYM    DATA     BYTE      IT01CF
      000000C0H.6 SFRSYM    DATA     BIT       SMB0CN0_TXMODE
      000000ADH   SFRSYM    DATA     BYTE      DERIVID
LX51 LINKER/LOCATER V4.66.97.0                                                        01/16/2024  00:35:35  PAGE 39


      000000A4H   SFRSYM    DATA     BYTE      P0MDOUT
      000000A5H   SFRSYM    DATA     BYTE      P1MDOUT
      000000E8H.5 SFRSYM    DATA     BIT       ADC0CN0_ADINT
      000000CBH   SFRSYM    DATA     BYTE      TMR2RLH
      000000A6H   SFRSYM    DATA     BYTE      P2MDOUT
      000000A8H   SFRSYM    DATA     BYTE      IE
      00000093H   SFRSYM    DATA     BYTE      TMR3RLH
      000000F3H   SFRSYM    DATA     BYTE      EIP1
      00000098H.2 SFRSYM    DATA     BIT       SCON0_RB8
      000000CAH   SFRSYM    DATA     BYTE      TMR2RLL
      000000FCH   SFRSYM    DATA     BYTE      PCA0CPH0
      00000092H   SFRSYM    DATA     BYTE      TMR3RLL
      000000EAH   SFRSYM    DATA     BYTE      PCA0CPH1
      00000098H.3 SFRSYM    DATA     BIT       SCON0_TB8
      000000F0H.0 SFRSYM    DATA     BIT       B_B0
      00000082H   SFRSYM    DATA     WORD      DP
      000000ECH   SFRSYM    DATA     BYTE      PCA0CPH2
      000000F0H.1 SFRSYM    DATA     BIT       B_B1
      000000C3H   SFRSYM    DATA     WORD      ADC0GT
      00000090H.1 SFRSYM    DATA     BIT       CS
      000000F0H.2 SFRSYM    DATA     BIT       B_B2
      000000FBH   SFRSYM    DATA     BYTE      PCA0CPL0
      000000F0H.3 SFRSYM    DATA     BIT       B_B3
      000000D9H   SFRSYM    DATA     BYTE      PCA0MD
      000000DAH   SFRSYM    DATA     BYTE      PCA0CPM0
      000000E9H   SFRSYM    DATA     BYTE      PCA0CPL1
      000000F0H.4 SFRSYM    DATA     BIT       B_B4
      000000DBH   SFRSYM    DATA     BYTE      PCA0CPM1
      000000EBH   SFRSYM    DATA     BYTE      PCA0CPL2
      000000F0H.5 SFRSYM    DATA     BIT       B_B5
      000000DCH   SFRSYM    DATA     BYTE      PCA0CPM2
      000000B8H   SFRSYM    DATA     BYTE      IP
      000000B9H   SFRSYM    DATA     BYTE      ADC0TK
      000000F0H.6 SFRSYM    DATA     BIT       B_B6
      000000C5H   SFRSYM    DATA     WORD      ADC0LT
      00000098H.5 SFRSYM    DATA     BIT       SCON0_MCE
      000000F0H.7 SFRSYM    DATA     BIT       B_B7
      000000E1H   SFRSYM    DATA     BYTE      XBR0
      000000C1H   SFRSYM    DATA     BYTE      SMB0CF
      000000E2H   SFRSYM    DATA     BYTE      XBR1
      000000C0H.5 SFRSYM    DATA     BIT       SMB0CN0_STA
      000000E3H   SFRSYM    DATA     BYTE      XBR2
      000000BBH   SFRSYM    DATA     BYTE      ADC0MX
      000000E0H.0 SFRSYM    DATA     BIT       ACC_ACC0
      000000D1H   SFRSYM    DATA     BYTE      REF0CN
      0000008EH   SFRSYM    DATA     BYTE      CKCON0
      000000E0H.1 SFRSYM    DATA     BIT       ACC_ACC1
      000000C9H   SFRSYM    DATA     BYTE      REG0CN
      000000DDH   SFRSYM    DATA     BYTE      CRC0IN
      000000C8H.2 SFRSYM    DATA     BIT       TMR2CN0_TR2
      000000E0H.2 SFRSYM    DATA     BIT       ACC_ACC2
      000000E0H.3 SFRSYM    DATA     BIT       ACC_ACC3
      00000081H   SFRSYM    DATA     BYTE      SP
      0000009DH   SFRSYM    DATA     BYTE      CMP0MD
      000000E0H.4 SFRSYM    DATA     BIT       ACC_ACC4
      000000B1H   SFRSYM    DATA     BYTE      LFO0CN
      000000ABH   SFRSYM    DATA     BYTE      CMP1MD
      000000D8H.0 SFRSYM    DATA     BIT       PCA0CN0_CCF0
      000000E0H.5 SFRSYM    DATA     BIT       ACC_ACC5
      000000D8H.1 SFRSYM    DATA     BIT       PCA0CN0_CCF1
      000000E0H.6 SFRSYM    DATA     BIT       ACC_ACC6
      000000CCH   SFRSYM    DATA     WORD      TMR2
LX51 LINKER/LOCATER V4.66.97.0                                                        01/16/2024  00:35:35  PAGE 40


      000000D8H.2 SFRSYM    DATA     BIT       PCA0CN0_CCF2
      000000E0H.7 SFRSYM    DATA     BIT       ACC_ACC7
      00000094H   SFRSYM    DATA     WORD      TMR3
      000000C0H.3 SFRSYM    DATA     BIT       SMB0CN0_ACKRQ
      000000FFH   SFRSYM    DATA     BYTE      VDM0CN
      000000F1H   SFRSYM    DATA     BYTE      P0MDIN
      00000098H.4 SFRSYM    DATA     BIT       SCON0_REN
      000000ACH   SFRSYM    DATA     BYTE      SMB0TC
      000000F2H   SFRSYM    DATA     BYTE      P1MDIN
      000000C0H.4 SFRSYM    DATA     BIT       SMB0CN0_STO
      000000FEH   SFRSYM    DATA     BYTE      P0MASK
      000000EEH   SFRSYM    DATA     BYTE      P1MASK
      000000D0H.3 SFRSYM    DATA     BIT       PSW_RS0
      000000D8H.7 SFRSYM    DATA     BIT       PCA0CN0_CF
      0000009EH   SFRSYM    DATA     BYTE      PCA0CENT
      000000F8H.4 SFRSYM    DATA     BIT       SPI0CN0_RXOVRN
      000000D0H.4 SFRSYM    DATA     BIT       PSW_RS1
      000000E8H.7 SFRSYM    DATA     BIT       ADC0CN0_ADEN
      00000089H   SFRSYM    DATA     BYTE      TMOD
      00000088H   SFRSYM    DATA     BYTE      TCON
      000000CFH   SFRSYM    DATA     BYTE      CRC0FLIP
      000000D0H.0 SFRSYM    DATA     BIT       PSW_PARITY
      000000A8H.4 SFRSYM    DATA     BIT       IE_ES0
      0000009FH   SFRSYM    DATA     BYTE      CMP0MX
      000000A8H.1 SFRSYM    DATA     BIT       IE_ET0
      000000AAH   SFRSYM    DATA     BYTE      CMP1MX
      000000A8H.3 SFRSYM    DATA     BIT       IE_ET1
      000000D4H   SFRSYM    DATA     BYTE      P0SKIP
      000000A8H.5 SFRSYM    DATA     BIT       IE_ET2
      000000D5H   SFRSYM    DATA     BYTE      P1SKIP
      000000E8H   SFRSYM    DATA     BYTE      ADC0CN0
      000000A8H.0 SFRSYM    DATA     BIT       IE_EX0
      000000B2H   SFRSYM    DATA     BYTE      ADC0CN1
      000000D8H.6 SFRSYM    DATA     BIT       PCA0CN0_CR
      000000A8H.2 SFRSYM    DATA     BIT       IE_EX1
      00000098H.7 SFRSYM    DATA     BIT       SCON0_SMODE
      000000B5H   SFRSYM    DATA     BYTE      DEVICEID
      000000A9H   SFRSYM    DATA     BYTE      CLKSEL
      000000F8H.0 SFRSYM    DATA     BIT       SPI0CN0_SPIEN
      000000F0H   SFRSYM    DATA     BYTE      B
      000000BEH   SFRSYM    DATA     BYTE      ADC0H
      000000D2H   SFRSYM    DATA     BYTE      CRC0AUTO
      000000E8H.6 SFRSYM    DATA     BIT       ADC0CN0_ADBMEN
      000000CAH   SFRSYM    DATA     WORD      TMR2RL
      000000BDH   SFRSYM    DATA     BYTE      ADC0L
      00000092H   SFRSYM    DATA     WORD      TMR3RL
      000000D8H   SFRSYM    DATA     BYTE      PCA0CN0
      000000E0H   SFRSYM    DATA     BYTE      ACC
      000000FBH   SFRSYM    DATA     WORD      PCA0CP0
      000000E9H   SFRSYM    DATA     WORD      PCA0CP1
      000000EBH   SFRSYM    DATA     WORD      PCA0CP2
      000000CEH   SFRSYM    DATA     BYTE      CRC0CN0
      0000008CH   SFRSYM    DATA     BYTE      TH0
      000000B8H.4 SFRSYM    DATA     BIT       IP_PS0
      0000008DH   SFRSYM    DATA     BYTE      TH1
      000000FAH   SFRSYM    DATA     BYTE      PCA0H
      000000B8H.1 SFRSYM    DATA     BIT       IP_PT0
      000000B8H.3 SFRSYM    DATA     BIT       IP_PT1
      000000C0H.2 SFRSYM    DATA     BIT       SMB0CN0_ARBLOST
      000000B8H.5 SFRSYM    DATA     BIT       IP_PT2
      0000008AH   SFRSYM    DATA     BYTE      TL0
      000000F8H.1 SFRSYM    DATA     BIT       SPI0CN0_TXBMT
LX51 LINKER/LOCATER V4.66.97.0                                                        01/16/2024  00:35:35  PAGE 41


      000000D0H.5 SFRSYM    DATA     BIT       PSW_F0
      000000A8H.6 SFRSYM    DATA     BIT       IE_ESPI0
      0000008BH   SFRSYM    DATA     BYTE      TL1
      000000F9H   SFRSYM    DATA     BYTE      PCA0L
      000000C0H.0 SFRSYM    DATA     BIT       SMB0CN0_SI
      000000D0H.1 SFRSYM    DATA     BIT       PSW_F1
      00000080H.0 SFRSYM    DATA     BIT       P0_B0
      000000B8H.0 SFRSYM    DATA     BIT       IP_PX0
      00000090H.0 SFRSYM    DATA     BIT       P1_B0
      00000080H.1 SFRSYM    DATA     BIT       P0_B1
      000000B8H.2 SFRSYM    DATA     BIT       IP_PX1
      0000009BH   SFRSYM    DATA     BYTE      CMP0CN0
      00000088H.1 SFRSYM    DATA     BIT       TCON_IE0
      000000A0H.0 SFRSYM    DATA     BIT       P2_B0
      00000090H.1 SFRSYM    DATA     BIT       P1_B1
      00000080H.2 SFRSYM    DATA     BIT       P0_B2
      000000BFH   SFRSYM    DATA     BYTE      CMP1CN0
      00000088H.3 SFRSYM    DATA     BIT       TCON_IE1
      000000A0H.1 SFRSYM    DATA     BIT       P2_B1
      00000090H.2 SFRSYM    DATA     BIT       P1_B2
      00000080H.3 SFRSYM    DATA     BIT       P0_B3
      000000C0H   SFRSYM    DATA     BYTE      SMB0CN0
      00000090H.3 SFRSYM    DATA     BIT       P1_B3
      00000080H.4 SFRSYM    DATA     BIT       P0_B4
      00000090H.4 SFRSYM    DATA     BIT       P1_B4
      00000080H.5 SFRSYM    DATA     BIT       P0_B5
      00000090H.5 SFRSYM    DATA     BIT       P1_B5
      00000080H.6 SFRSYM    DATA     BIT       P0_B6
      00000090H.6 SFRSYM    DATA     BIT       P1_B6
      00000080H.7 SFRSYM    DATA     BIT       P0_B7
      00000090H.7 SFRSYM    DATA     BIT       P1_B7
      00000083H   SFRSYM    DATA     BYTE      DPH
      000000C4H   SFRSYM    DATA     BYTE      ADC0GTH
      000000C8H.7 SFRSYM    DATA     BIT       TMR2CN0_TF2H
      000000C8H.3 SFRSYM    DATA     BIT       TMR2CN0_T2SPLIT
      000000D0H.6 SFRSYM    DATA     BIT       PSW_AC
      000000F8H   SFRSYM    DATA     BYTE      SPI0CN0
      000000C7H   SFRSYM    DATA     BYTE      HFO0CAL
      00000088H.5 SFRSYM    DATA     BIT       TCON_TF0
      00000098H.0 SFRSYM    DATA     BIT       SCON0_RI
      00000082H   SFRSYM    DATA     BYTE      DPL
      00000088H.7 SFRSYM    DATA     BIT       TCON_TF1
      00000099H   SFRSYM    DATA     BYTE      SBUF0
      00000087H   SFRSYM    DATA     BYTE      PCON0
      000000C3H   SFRSYM    DATA     BYTE      ADC0GTL
      000000C8H.6 SFRSYM    DATA     BIT       TMR2CN0_TF2L
      00000098H.1 SFRSYM    DATA     BIT       SCON0_TI
      000000E8H.0 SFRSYM    DATA     BIT       ADC0CN0_ADCM0
      000000C6H   SFRSYM    DATA     BYTE      ADC0LTH
      00000088H.0 SFRSYM    DATA     BIT       TCON_IT0
      000000E8H.1 SFRSYM    DATA     BIT       ADC0CN0_ADCM1
      000000EFH   SFRSYM    DATA     BYTE      RSTSRC
      000000FDH   SFRSYM    DATA     BYTE      P0MAT
      000000DEH   SFRSYM    DATA     BYTE      CRC0DAT
      00000088H.2 SFRSYM    DATA     BIT       TCON_IT1
      000000E8H.2 SFRSYM    DATA     BIT       ADC0CN0_ADCM2
      00000098H   SFRSYM    DATA     BYTE      SCON0
      000000F6H   SFRSYM    DATA     BYTE      PRTDRV
      000000EDH   SFRSYM    DATA     BYTE      P1MAT
      000000E8H.3 SFRSYM    DATA     BIT       ADC0CN0_ADWINT
      000000E8H.4 SFRSYM    DATA     BIT       ADC0CN0_ADBUSY
      000000D6H   SFRSYM    DATA     BYTE      SMB0ADM
LX51 LINKER/LOCATER V4.66.97.0                                                        01/16/2024  00:35:35  PAGE 42


      000000C5H   SFRSYM    DATA     BYTE      ADC0LTL
      000000F8H.5 SFRSYM    DATA     BIT       SPI0CN0_MODF
      000000B8H.6 SFRSYM    DATA     BIT       IP_PSPI0
      0000009CH   SFRSYM    DATA     BYTE      PCA0CLR
      000000C8H   SFRSYM    DATA     BYTE      TMR2CN0
      00000091H   SFRSYM    DATA     BYTE      TMR3CN0
      000000D7H   SFRSYM    DATA     BYTE      SMB0ADR
      00000088H.4 SFRSYM    DATA     BIT       TCON_TR0
      000000C8H.4 SFRSYM    DATA     BIT       TMR2CN0_TF2CEN
      00000088H.6 SFRSYM    DATA     BIT       TCON_TR1
      000000C2H   SFRSYM    DATA     BYTE      SMB0DAT
      000000CDH   SFRSYM    DATA     BYTE      TMR2H
      000000A1H   SFRSYM    DATA     BYTE      SPI0CFG
      00000095H   SFRSYM    DATA     BYTE      TMR3H
      000000D3H   SFRSYM    DATA     BYTE      CRC0CNT
      00000096H   SFRSYM    DATA     BYTE      PCA0POL
      000000CCH   SFRSYM    DATA     BYTE      TMR2L
      000000F8H.7 SFRSYM    DATA     BIT       SPI0CN0_SPIF
      00000094H   SFRSYM    DATA     BYTE      TMR3L
      000000DFH   SFRSYM    DATA     BYTE      ADC0PWR
      000000A8H.7 SFRSYM    DATA     BIT       IE_EA
      000000C8H.5 SFRSYM    DATA     BIT       TMR2CN0_TF2LEN
      000000F8H.6 SFRSYM    DATA     BIT       SPI0CN0_WCOL
      000000F8H.2 SFRSYM    DATA     BIT       SPI0CN0_NSSMD0
      000000D0H.7 SFRSYM    DATA     BIT       PSW_CY
      000000A3H   SFRSYM    DATA     BYTE      SPI0DAT
      000000F8H.3 SFRSYM    DATA     BIT       SPI0CN0_NSSMD1
      000000BDH   SFRSYM    DATA     WORD      ADC0
      000000D0H   SFRSYM    DATA     BYTE      PSW
      000000F7H   SFRSYM    DATA     BYTE      PCA0PWM
      000000B6H   SFRSYM    DATA     BYTE      REVID
      000000B7H   SFRSYM    DATA     BYTE      FLKEY
      000000B3H   SFRSYM    DATA     BYTE      ADC0AC

      0100031BH   BLOCK     CODE     ---       LVL=0
      00000007H   SYMBOL    DATA     BYTE      Reg_addr
      0100031BH   BLOCK     CODE     NEAR LAB  LVL=1
      00000006H   SYMBOL    DATA     BYTE      dummy
      ---         BLOCKEND  ---      ---       LVL=1
      0100031BH   LINE      CODE     ---       #32
      0100031BH   LINE      CODE     ---       #33
      0100031BH   LINE      CODE     ---       #35
      0100031DH   LINE      CODE     ---       #37
      0100031FH   LINE      CODE     ---       #39
      01000322H   LINE      CODE     ---       #42
      01000325H   LINE      CODE     ---       #43
      01000327H   LINE      CODE     ---       #46
      01000329H   LINE      CODE     ---       #49
      01000335H   LINE      CODE     ---       #52
      01000338H   LINE      CODE     ---       #54
      0100033AH   LINE      CODE     ---       #56
      0100033CH   LINE      CODE     ---       #59
      ---         BLOCKEND  ---      ---       LVL=0
      00000007H   SYMBOL    DATA     BYTE      Reg_addr
      00000006H   SYMBOL    DATA     BYTE      dummy

      0100037CH   BLOCK     CODE     ---       LVL=0
      00000007H   SYMBOL    DATA     BYTE      Reg_addr
      00000005H   SYMBOL    DATA     BYTE      Txdata
      0100037CH   LINE      CODE     ---       #89
      0100037CH   LINE      CODE     ---       #90
      0100037CH   LINE      CODE     ---       #91
LX51 LINKER/LOCATER V4.66.97.0                                                        01/16/2024  00:35:35  PAGE 43


      0100037EH   LINE      CODE     ---       #92
      01000381H   LINE      CODE     ---       #95
      01000384H   LINE      CODE     ---       #96
      01000386H   LINE      CODE     ---       #97
      01000388H   LINE      CODE     ---       #99
      01000394H   LINE      CODE     ---       #100
      01000397H   LINE      CODE     ---       #102
      01000399H   LINE      CODE     ---       #103
      ---         BLOCKEND  ---      ---       LVL=0
      00000007H   SYMBOL    DATA     BYTE      Reg_addr
      00000005H   SYMBOL    DATA     BYTE      Byte_WR
      00000007H   SYMBOL    DATA     BYTE      i
      00000007H   SYMBOL    DATA     BYTE      rd
      00000007H   SYMBOL    DATA     BYTE      Reg_addr
      00000007H   SYMBOL    DATA     BYTE      rd
      00000007H   SYMBOL    DATA     BYTE      Reg_addr
      00000006H   SYMBOL    DATA     BYTE      PinNo
      00000005H   SYMBOL    DATA     BYTE      value
      00000007H   SYMBOL    DATA     BYTE      Reg_addr
      00000004H   SYMBOL    DATA     BYTE      temp
      00000006H   SYMBOL    DATA     BYTE      value
      00000007H   SYMBOL    DATA     BYTE      Reg_addr
      00000007H   SYMBOL    DATA     BYTE      rd
      00000007H   SYMBOL    DATA     BYTE      Reg_addr
      00000007H   SYMBOL    DATA     BYTE      rd
      00000007H   SYMBOL    DATA     BYTE      Reg_addr
      00000006H   SYMBOL    DATA     BYTE      PinNo
      00000005H   SYMBOL    DATA     BYTE      value
      00000007H   SYMBOL    DATA     BYTE      Reg_addr
      00000004H   SYMBOL    DATA     BYTE      temp
      00000006H   SYMBOL    DATA     BYTE      value
      00000007H   SYMBOL    DATA     BYTE      Reg_addr
      00000007H   SYMBOL    DATA     BYTE      rd
      00000007H   SYMBOL    DATA     BYTE      Reg_addr
      00000007H   SYMBOL    DATA     BYTE      rd
      00000007H   SYMBOL    DATA     BYTE      Reg_addr
      00000006H   SYMBOL    DATA     BYTE      PinNo
      00000005H   SYMBOL    DATA     BYTE      value
      00000007H   SYMBOL    DATA     BYTE      Reg_addr
      00000004H   SYMBOL    DATA     BYTE      temp
      00000006H   SYMBOL    DATA     BYTE      value
      00000007H   SYMBOL    DATA     BYTE      Reg_addr
      00000007H   SYMBOL    DATA     BYTE      rd
      00000007H   SYMBOL    DATA     BYTE      Reg_addr
      00000007H   SYMBOL    DATA     BYTE      rd
      00000007H   SYMBOL    DATA     BYTE      Reg_addr
      00000006H   SYMBOL    DATA     BYTE      PinNo
      00000005H   SYMBOL    DATA     BYTE      value
      00000007H   SYMBOL    DATA     BYTE      Reg_addr
      00000004H   SYMBOL    DATA     BYTE      temp
      00000006H   SYMBOL    DATA     BYTE      value
      00000007H   SYMBOL    DATA     BYTE      Reg_addr
      00000007H   SYMBOL    DATA     BYTE      rd
      00000007H   SYMBOL    DATA     BYTE      Reg_addr
      00000007H   SYMBOL    DATA     BYTE      rd
      00000007H   SYMBOL    DATA     BYTE      Reg_addr
      00000006H   SYMBOL    DATA     BYTE      PinNo
      00000005H   SYMBOL    DATA     BYTE      value
      00000007H   SYMBOL    DATA     BYTE      Reg_addr
      00000004H   SYMBOL    DATA     BYTE      temp
      00000006H   SYMBOL    DATA     BYTE      value
      00000007H   SYMBOL    DATA     BYTE      Reg_addr
LX51 LINKER/LOCATER V4.66.97.0                                                        01/16/2024  00:35:35  PAGE 44


      00000007H   SYMBOL    DATA     BYTE      rd
      00000007H   SYMBOL    DATA     BYTE      Reg_addr
      00000006H   SYMBOL    DATA     BYTE      value
      00000007H   SYMBOL    DATA     BYTE      Reg_addr
      00000007H   SYMBOL    DATA     BYTE      rd
      00000007H   SYMBOL    DATA     BYTE      Reg_addr
      00000006H   SYMBOL    DATA     BYTE      value
      00000007H   SYMBOL    DATA     BYTE      Reg_addr
      00000007H   SYMBOL    DATA     BYTE      rd
      00000007H   SYMBOL    DATA     BYTE      Reg_addr
      00000006H   SYMBOL    DATA     BYTE      value
      00000007H   SYMBOL    DATA     BYTE      Reg_addr
      00000007H   SYMBOL    DATA     BYTE      rd
      00000007H   SYMBOL    DATA     BYTE      Reg_addr
      00000006H   SYMBOL    DATA     BYTE      value
      00000007H   SYMBOL    DATA     BYTE      Reg_addr
      00000007H   SYMBOL    DATA     BYTE      rd
      00000007H   SYMBOL    DATA     BYTE      Reg_addr
      00000006H   SYMBOL    DATA     BYTE      value
      00000007H   SYMBOL    DATA     BYTE      Reg_addr
      00000007H   SYMBOL    DATA     BYTE      rd
      00000007H   SYMBOL    DATA     BYTE      Reg_addr
      00000007H   SYMBOL    DATA     BYTE      rd
      00000007H   SYMBOL    DATA     BYTE      Reg_addr
      00000006H   SYMBOL    DATA     BYTE      PinNo
      00000005H   SYMBOL    DATA     BYTE      value
      00000007H   SYMBOL    DATA     BYTE      Reg_addr
      00000004H   SYMBOL    DATA     BYTE      temp
      00000006H   SYMBOL    DATA     BYTE      value
      00000007H   SYMBOL    DATA     BYTE      Reg_addr
      00000007H   SYMBOL    DATA     BYTE      rd
      00000007H   SYMBOL    DATA     BYTE      Reg_addr
      00000007H   SYMBOL    DATA     BYTE      rd
      00000007H   SYMBOL    DATA     BYTE      Reg_addr
      00000007H   SYMBOL    DATA     BYTE      rd
      00000007H   SYMBOL    DATA     BYTE      Reg_addr
      00000007H   SYMBOL    DATA     BYTE      rd
      00000007H   SYMBOL    DATA     BYTE      Reg_addr
      00000007H   SYMBOL    DATA     BYTE      rd
      00000007H   SYMBOL    DATA     BYTE      Reg_addr

      0100033DH   BLOCK     CODE     ---       LVL=0
      00000029H   SYMBOL    DATA     BYTE      PinNo
      0100033FH   BLOCK     CODE     NEAR LAB  LVL=1
      00000007H   SYMBOL    DATA     BYTE      rd
      0000002AH   SYMBOL    DATA     BYTE      val
      00000007H   SYMBOL    DATA     BYTE      Reg_addr
      ---         BLOCKEND  ---      ---       LVL=1
      0100033DH   LINE      CODE     ---       #713
      0100033FH   LINE      CODE     ---       #714
      0100033FH   LINE      CODE     ---       #716
      01000344H   LINE      CODE     ---       #718
      01000347H   LINE      CODE     ---       #720
      0100034AH   LINE      CODE     ---       #722
      0100035AH   LINE      CODE     ---       #724
      0100035CH   LINE      CODE     ---       #726
      ---         BLOCKEND  ---      ---       LVL=0

      010002F5H   BLOCK     CODE     ---       LVL=0
      00000006H   SYMBOL    DATA     BYTE      PinNo
      00000004H   SYMBOL    DATA     BYTE      value
      010002F9H   BLOCK     CODE     NEAR LAB  LVL=1
LX51 LINKER/LOCATER V4.66.97.0                                                        01/16/2024  00:35:35  PAGE 45


      00000005H   SYMBOL    DATA     BYTE      val
      00000007H   SYMBOL    DATA     BYTE      Reg_addr
      00000003H   SYMBOL    DATA     BYTE      temp
      ---         BLOCKEND  ---      ---       LVL=1
      010002F5H   LINE      CODE     ---       #729
      010002F9H   LINE      CODE     ---       #730
      010002F9H   LINE      CODE     ---       #732
      010002FDH   LINE      CODE     ---       #734
      01000308H   LINE      CODE     ---       #736
      0100030BH   LINE      CODE     ---       #738
      01000318H   LINE      CODE     ---       #740
      ---         BLOCKEND  ---      ---       LVL=0
      00000006H   SYMBOL    DATA     BYTE      value
      00000007H   SYMBOL    DATA     BYTE      Reg_addr
      00000007H   SYMBOL    DATA     BYTE      rd
      00000007H   SYMBOL    DATA     BYTE      Reg_addr
      00000007H   SYMBOL    DATA     BYTE      rd
      00000007H   SYMBOL    DATA     BYTE      Reg_addr
      00000006H   SYMBOL    DATA     BYTE      PinNo
      00000005H   SYMBOL    DATA     BYTE      value
      00000007H   SYMBOL    DATA     BYTE      Reg_addr
      00000004H   SYMBOL    DATA     BYTE      temp
      00000006H   SYMBOL    DATA     BYTE      value
      00000007H   SYMBOL    DATA     BYTE      Reg_addr

      ---         MODULE    ---      ---       ?C_INIT
      01000128H   PUBLIC    CODE     ---       ?C_START

      ---         MODULE    ---      ---       ?C?CLDOPTR
      010001F3H   PUBLIC    CODE     ---       ?C?CLDOPTR

      ---         MODULE    ---      ---       ?C?CSTPTR
      01000220H   PUBLIC    CODE     ---       ?C?CSTPTR

      ---         MODULE    ---      ---       ?C?CSTOPTR
      01000232H   PUBLIC    CODE     ---       ?C?CSTOPTR

Program Size: data=48.5 xdata=0 const=0 code=1093
LX51 RUN COMPLETE.  0 WARNING(S),  0 ERROR(S)
